{
  "_format": "hh-sol-artifact-1",
  "contractName": "C2CProject",
  "sourceName": "src/contracts/projects/C2CProject.sol",
  "abi": [
    {
      "inputs": [
        {
          "internalType": "string",
          "name": "_name",
          "type": "string"
        },
        {
          "internalType": "address",
          "name": "_community",
          "type": "address"
        }
      ],
      "stateMutability": "nonpayable",
      "type": "constructor"
    },
    {
      "inputs": [
        {
          "internalType": "address",
          "name": "target",
          "type": "address"
        }
      ],
      "name": "AddressEmptyCode",
      "type": "error"
    },
    {
      "inputs": [],
      "name": "FailedInnerCall",
      "type": "error"
    },
    {
      "anonymous": false,
      "inputs": [
        {
          "indexed": true,
          "internalType": "address",
          "name": "",
          "type": "address"
        }
      ],
      "name": "BeneficiaryAdded",
      "type": "event"
    },
    {
      "anonymous": false,
      "inputs": [
        {
          "indexed": true,
          "internalType": "address",
          "name": "",
          "type": "address"
        }
      ],
      "name": "BeneficiaryRemoved",
      "type": "event"
    },
    {
      "anonymous": false,
      "inputs": [
        {
          "indexed": true,
          "internalType": "address",
          "name": "_beneficiary",
          "type": "address"
        },
        {
          "indexed": false,
          "internalType": "uint256",
          "name": "_amount",
          "type": "uint256"
        }
      ],
      "name": "ClaimAssigned",
      "type": "event"
    },
    {
      "anonymous": false,
      "inputs": [
        {
          "indexed": true,
          "internalType": "address",
          "name": "_beneficiary",
          "type": "address"
        },
        {
          "indexed": true,
          "internalType": "address",
          "name": "_tokenAddress",
          "type": "address"
        },
        {
          "indexed": false,
          "internalType": "uint256",
          "name": "_amount",
          "type": "uint256"
        }
      ],
      "name": "ClaimProcessed",
      "type": "event"
    },
    {
      "anonymous": false,
      "inputs": [],
      "name": "ProjectLocked",
      "type": "event"
    },
    {
      "anonymous": false,
      "inputs": [],
      "name": "ProjectUnlocked",
      "type": "event"
    },
    {
      "anonymous": false,
      "inputs": [
        {
          "indexed": true,
          "internalType": "address",
          "name": "tokenAddress",
          "type": "address"
        },
        {
          "indexed": false,
          "internalType": "uint256",
          "name": "amount",
          "type": "uint256"
        }
      ],
      "name": "TokenBudgetDecrease",
      "type": "event"
    },
    {
      "anonymous": false,
      "inputs": [
        {
          "indexed": true,
          "internalType": "address",
          "name": "tokenAddress",
          "type": "address"
        },
        {
          "indexed": false,
          "internalType": "uint256",
          "name": "amount",
          "type": "uint256"
        }
      ],
      "name": "TokenBudgetIncrease",
      "type": "event"
    },
    {
      "anonymous": false,
      "inputs": [
        {
          "indexed": true,
          "internalType": "address",
          "name": "token",
          "type": "address"
        },
        {
          "indexed": true,
          "internalType": "address",
          "name": "from",
          "type": "address"
        },
        {
          "indexed": false,
          "internalType": "uint256",
          "name": "amount",
          "type": "uint256"
        }
      ],
      "name": "TokenReceived",
      "type": "event"
    },
    {
      "anonymous": false,
      "inputs": [
        {
          "indexed": true,
          "internalType": "address",
          "name": "tokenAddress",
          "type": "address"
        }
      ],
      "name": "TokenRegistered",
      "type": "event"
    },
    {
      "anonymous": false,
      "inputs": [
        {
          "indexed": true,
          "internalType": "address",
          "name": "token",
          "type": "address"
        },
        {
          "indexed": true,
          "internalType": "address",
          "name": "to",
          "type": "address"
        },
        {
          "indexed": false,
          "internalType": "uint256",
          "name": "amount",
          "type": "uint256"
        }
      ],
      "name": "TokenTransfer",
      "type": "event"
    },
    {
      "inputs": [],
      "name": "IID_RAHAT_PROJECT",
      "outputs": [
        {
          "internalType": "bytes4",
          "name": "",
          "type": "bytes4"
        }
      ],
      "stateMutability": "view",
      "type": "function"
    },
    {
      "inputs": [],
      "name": "RahatCommunity",
      "outputs": [
        {
          "internalType": "contract IRahatCommunity",
          "name": "",
          "type": "address"
        }
      ],
      "stateMutability": "view",
      "type": "function"
    },
    {
      "inputs": [
        {
          "internalType": "address",
          "name": "_from",
          "type": "address"
        },
        {
          "internalType": "address",
          "name": "_tokenAddress",
          "type": "address"
        },
        {
          "internalType": "uint256",
          "name": "_amount",
          "type": "uint256"
        }
      ],
      "name": "acceptToken",
      "outputs": [],
      "stateMutability": "nonpayable",
      "type": "function"
    },
    {
      "inputs": [
        {
          "internalType": "address",
          "name": "_beneficiary",
          "type": "address"
        }
      ],
      "name": "addBeneficiary",
      "outputs": [],
      "stateMutability": "nonpayable",
      "type": "function"
    },
    {
      "inputs": [
        {
          "internalType": "address",
          "name": "_beneficiary",
          "type": "address"
        },
        {
          "internalType": "address",
          "name": "_tokenAddress",
          "type": "address"
        },
        {
          "internalType": "uint256",
          "name": "_amount",
          "type": "uint256"
        }
      ],
      "name": "assignClaims",
      "outputs": [],
      "stateMutability": "nonpayable",
      "type": "function"
    },
    {
      "inputs": [
        {
          "internalType": "address",
          "name": "",
          "type": "address"
        }
      ],
      "name": "beneficiaryClaims",
      "outputs": [
        {
          "internalType": "uint256",
          "name": "",
          "type": "uint256"
        }
      ],
      "stateMutability": "view",
      "type": "function"
    },
    {
      "inputs": [],
      "name": "beneficiaryCount",
      "outputs": [
        {
          "internalType": "uint256",
          "name": "",
          "type": "uint256"
        }
      ],
      "stateMutability": "view",
      "type": "function"
    },
    {
      "inputs": [],
      "name": "community",
      "outputs": [
        {
          "internalType": "address",
          "name": "",
          "type": "address"
        }
      ],
      "stateMutability": "view",
      "type": "function"
    },
    {
      "inputs": [
        {
          "internalType": "address",
          "name": "_address",
          "type": "address"
        }
      ],
      "name": "isBeneficiary",
      "outputs": [
        {
          "internalType": "bool",
          "name": "",
          "type": "bool"
        }
      ],
      "stateMutability": "view",
      "type": "function"
    },
    {
      "inputs": [
        {
          "internalType": "address",
          "name": "",
          "type": "address"
        }
      ],
      "name": "isDonor",
      "outputs": [
        {
          "internalType": "bool",
          "name": "",
          "type": "bool"
        }
      ],
      "stateMutability": "view",
      "type": "function"
    },
    {
      "inputs": [
        {
          "internalType": "bytes[]",
          "name": "data",
          "type": "bytes[]"
        }
      ],
      "name": "multicall",
      "outputs": [
        {
          "internalType": "bytes[]",
          "name": "results",
          "type": "bytes[]"
        }
      ],
      "stateMutability": "nonpayable",
      "type": "function"
    },
    {
      "inputs": [],
      "name": "name",
      "outputs": [
        {
          "internalType": "string",
          "name": "",
          "type": "string"
        }
      ],
      "stateMutability": "view",
      "type": "function"
    },
    {
      "inputs": [
        {
          "internalType": "address",
          "name": "_beneficiary",
          "type": "address"
        },
        {
          "internalType": "address",
          "name": "_tokenAddress",
          "type": "address"
        },
        {
          "internalType": "uint256",
          "name": "_amount",
          "type": "uint256"
        }
      ],
      "name": "processTransferToBeneficiary",
      "outputs": [],
      "stateMutability": "nonpayable",
      "type": "function"
    },
    {
      "inputs": [
        {
          "internalType": "address",
          "name": "_beneficiary",
          "type": "address"
        },
        {
          "internalType": "address",
          "name": "_tokenAddress",
          "type": "address"
        }
      ],
      "name": "removeBeneficiary",
      "outputs": [],
      "stateMutability": "nonpayable",
      "type": "function"
    },
    {
      "inputs": [
        {
          "internalType": "bytes4",
          "name": "interfaceId",
          "type": "bytes4"
        }
      ],
      "name": "supportsInterface",
      "outputs": [
        {
          "internalType": "bool",
          "name": "",
          "type": "bool"
        }
      ],
      "stateMutability": "view",
      "type": "function"
    },
    {
      "inputs": [
        {
          "internalType": "address",
          "name": "_tokenAddress",
          "type": "address"
        }
      ],
      "name": "tokenBudget",
      "outputs": [
        {
          "internalType": "uint256",
          "name": "",
          "type": "uint256"
        }
      ],
      "stateMutability": "view",
      "type": "function"
    },
    {
      "inputs": [],
      "name": "totalClaimsAssigned",
      "outputs": [
        {
          "internalType": "uint256",
          "name": "_totalClaims",
          "type": "uint256"
        }
      ],
      "stateMutability": "view",
      "type": "function"
    },
    {
      "inputs": [
        {
          "internalType": "address",
          "name": "_tokenAddress",
          "type": "address"
        }
      ],
      "name": "withdrawToken",
      "outputs": [],
      "stateMutability": "nonpayable",
      "type": "function"
    }
  ],
  "bytecode": "0x60806040523480156200001157600080fd5b5060405162001bb738038062001bb78339810160408190526200003491620000f4565b818160036200004483826200026b565b50600480546001600160a01b0319166001600160a01b0392909216918217815560405163521a58d360e11b8152309181019190915290915063a434b1a690602401600060405180830381600087803b158015620000a057600080fd5b505af1158015620000b5573d6000803e3d6000fd5b50505050505062000337565b634e487b7160e01b600052604160045260246000fd5b80516001600160a01b0381168114620000ef57600080fd5b919050565b600080604083850312156200010857600080fd5b82516001600160401b03808211156200012057600080fd5b818501915085601f8301126200013557600080fd5b8151818111156200014a576200014a620000c1565b604051601f8201601f19908116603f01168101908382118183101715620001755762000175620000c1565b816040528281526020935088848487010111156200019257600080fd5b600091505b82821015620001b6578482018401518183018501529083019062000197565b6000848483010152809650505050620001d1818601620000d7565b925050509250929050565b600181811c90821680620001f157607f821691505b6020821081036200021257634e487b7160e01b600052602260045260246000fd5b50919050565b601f8211156200026657600081815260208120601f850160051c81016020861015620002415750805b601f850160051c820191505b8181101562000262578281556001016200024d565b5050505b505050565b81516001600160401b03811115620002875762000287620000c1565b6200029f81620002988454620001dc565b8462000218565b602080601f831160018114620002d75760008415620002be5750858301515b600019600386901b1c1916600185901b17855562000262565b600085815260208120601f198616915b828110156200030857888601518255948401946001909101908401620002e7565b5085821015620003275787850151600019600388901b60f8161c191681555b5050505050600190811b01905550565b61187080620003476000396000f3fe608060405234801561001057600080fd5b50600436106101165760003560e01c80636a4277f4116100a25780639d19b226116100715780639d19b2261461027d578063ac9650d814610290578063dc1fb5a5146102b0578063e082e718146102c1578063eb681e62146102d457600080fd5b80636a4277f414610217578063734b2a7c14610242578063800fff3e1461024a578063894760691461026a57600080fd5b80634fc3171b116100e95780634fc3171b146101a15780634fe21571146101b75780635704479d146101de5780635926651d146101f15780635aa329271461020457600080fd5b806301ffc9a71461011b57806306fdde03146101545780632bc3d7aa14610169578063314346be1461018c575b600080fd5b61013f610129366004611464565b6001600160e01b03191663667c6f9b60e01b1490565b60405190151581526020015b60405180910390f35b61015c6102fd565b60405161014b91906114de565b61013f61017736600461150d565b60086020526000908152604090205460ff1681565b61019f61019a366004611528565b61038b565b005b6101a9610436565b60405190815260200161014b565b6101c563667c6f9b60e01b81565b6040516001600160e01b0319909116815260200161014b565b61019f6101ec366004611528565b610496565b61019f6101ff36600461150d565b61054d565b61019f610212366004611528565b6105e2565b60045461022a906001600160a01b031681565b6040516001600160a01b03909116815260200161014b565b6101a96108ed565b6101a961025836600461150d565b60076020526000908152604090205481565b61019f61027836600461150d565b6108fe565b61013f61028b36600461150d565b610a02565b6102a361029e366004611564565b610a15565b60405161014b91906115d9565b6004546001600160a01b031661022a565b61019f6102cf36600461163b565b610b08565b6101a96102e236600461150d565b6001600160a01b031660009081526001602052604090205490565b6003805461030a9061166e565b80601f01602080910402602001604051908101604052809291908181526020018280546103369061166e565b80156103835780601f1061035857610100808354040283529160200191610383565b820191906000526020600020905b81548152906001019060200180831161036657829003601f168201915b505050505081565b60048054604051630935e01b60e21b815233928101929092526001600160a01b0316906324d7806c90602401602060405180830381865afa1580156103d4573d6000803e3d6000fd5b505050506040513d601f19601f820116820180604052508101906103f891906116a8565b61041d5760405162461bcd60e51b8152600401610414906116ca565b60405180910390fd5b61042683610ba6565b610431838383610ca1565b505050565b6000805b6104446005610db8565b811015610492576007600061045a600584610dc2565b6001600160a01b0316815260208101919091526040016000205461047e908361170f565b91508061048a81611722565b91505061043a565b5090565b60048054604051630935e01b60e21b815233928101929092526001600160a01b0316906324d7806c90602401602060405180830381865afa1580156104df573d6000803e3d6000fd5b505050506040513d601f19601f8201168201806040525081019061050391906116a8565b61051f5760405162461bcd60e51b8152600401610414906116ca565b6001600160a01b0383166000908152600860205260409020805460ff19166001179055610431828483610dd5565b60048054604051630935e01b60e21b815233928101929092526001600160a01b0316906324d7806c90602401602060405180830381865afa158015610596573d6000803e3d6000fd5b505050506040513d601f19601f820116820180604052508101906105ba91906116a8565b6105d65760405162461bcd60e51b8152600401610414906116ca565b6105df81610ba6565b50565b60048054604051630935e01b60e21b815233928101929092526001600160a01b0316906324d7806c90602401602060405180830381865afa15801561062b573d6000803e3d6000fd5b505050506040513d601f19601f8201168201806040525081019061064f91906116a8565b61066b5760405162461bcd60e51b8152600401610414906116ca565b61067483610a02565b6106b45760405162461bcd60e51b81526020600482015260116024820152704e6f7420612042656e656669636961727960781b6044820152606401610414565b6001600160a01b0383166000908152600760205260409020548111156107105760405162461bcd60e51b81526020600482015260116024820152704e6f7420656e6f75676820436c61696d7360781b6044820152606401610414565b6040516370a0823160e01b815230600482015281906001600160a01b038416906370a0823190602401602060405180830381865afa158015610756573d6000803e3d6000fd5b505050506040513d601f19601f8201168201806040525081019061077a919061173b565b10156107bd5760405162461bcd60e51b81526020600482015260126024820152714e6f7420656e6f7567682062616c616e636560701b6044820152606401610414565b6001600160a01b038316600090815260076020526040812080548392906107e5908490611754565b909155505060405163a9059cbb60e01b81526001600160a01b0384811660048301526024820183905283169063a9059cbb906044016020604051808303816000875af1158015610839573d6000803e3d6000fd5b505050506040513d601f19601f8201168201806040525081019061085d91906116a8565b61089b5760405162461bcd60e51b815260206004820152600f60248201526e151c985b9cd9995c8811985a5b1959608a1b6044820152606401610414565b816001600160a01b0316836001600160a01b03167fa0728b81017b6fcecec0b026b50029180648015951f826cde3fea05a25064ff9836040516108e091815260200190565b60405180910390a3505050565b60006108f96005610db8565b905090565b60048054604051630935e01b60e21b815233928101929092526001600160a01b0316906324d7806c90602401602060405180830381865afa158015610947573d6000803e3d6000fd5b505050506040513d601f19601f8201168201806040525081019061096b91906116a8565b6109875760405162461bcd60e51b8152600401610414906116ca565b6040516370a0823160e01b81523060048201526000906001600160a01b038316906370a0823190602401602060405180830381865afa1580156109ce573d6000803e3d6000fd5b505050506040513d601f19601f820116820180604052508101906109f2919061173b565b90506109fe8282610f4d565b5050565b6000610a0f60058361101a565b92915050565b6040805160008152602081019091526060908267ffffffffffffffff811115610a4057610a40611767565b604051908082528060200260200182016040528015610a7357816020015b6060815260200190600190039081610a5e5790505b50915060005b83811015610b0057610ad030868684818110610a9757610a9761177d565b9050602002810190610aa99190611793565b85604051602001610abc939291906117e1565b60405160208183030381529060405261103c565b838281518110610ae257610ae261177d565b60200260200101819052508080610af890611722565b915050610a79565b505092915050565b60048054604051630935e01b60e21b815233928101929092526001600160a01b0316906324d7806c90602401602060405180830381865afa158015610b51573d6000803e3d6000fd5b505050506040513d601f19601f82011682018060405250810190610b7591906116a8565b610b915760405162461bcd60e51b8152600401610414906116ca565b610b9a826110b2565b6109fe82826000610ca1565b60048054604051634e8cd91360e11b81526001600160a01b0384811693820193909352911690639d19b22690602401602060405180830381865afa158015610bf2573d6000803e3d6000fd5b505050506040513d601f19601f82011682018060405250810190610c1691906116a8565b610c525760405162461bcd60e51b815260206004820152600d60248201526c3737ba103b30b634b2103132b760991b6044820152606401610414565b610c5d60058261101a565b610c96576040516001600160a01b038216907fc3e089fc6227e049d0e41c3d7a383d57efe69c1955c5752f7e5a9b5f1f11302090600090a25b6109fe600582611102565b80610caa610436565b610cb4919061170f565b6040516370a0823160e01b81523060048201526001600160a01b038416906370a0823190602401602060405180830381865afa158015610cf8573d6000803e3d6000fd5b505050506040513d601f19601f82011682018060405250810190610d1c919061173b565b1015610d5e5760405162461bcd60e51b81526020600482015260116024820152706e6f7420656e6f75676820746f6b656e7360781b6044820152606401610414565b6001600160a01b03831660008181526007602052604090819020839055517f4631d14d4c16b9460d34e65ad5f88348611250f573857337076bcb9634d685bb90610dab9084815260200190565b60405180910390a2505050565b6000610a0f825490565b6000610dce8383611117565b9392505050565b6004805460405162b9028160e31b815230928101929092526001600160a01b0316906305c8140890602401602060405180830381865afa158015610e1d573d6000803e3d6000fd5b505050506040513d601f19601f82011682018060405250810190610e4191906116a8565b610e845760405162461bcd60e51b81526020600482015260146024820152731c1c9bda9958dd081b9bdd08185c1c1c9bdd995960621b6044820152606401610414565b6040516323b872dd60e01b81526001600160a01b038381166004830152306024830152604482018390528416906323b872dd906064016020604051808303816000875af1158015610ed9573d6000803e3d6000fd5b505050506040513d601f19601f82011682018060405250810190610efd91906116a8565b50610f088382611141565b816001600160a01b0316836001600160a01b03167fa83965f0e7c5e026e57c9ba2dd91e4ebcca352f2d514498c1e9ed23ba6538600836040516108e091815260200190565b6004805460405163a9059cbb60e01b81526001600160a01b03918216928101929092526024820183905283169063a9059cbb906044016020604051808303816000875af1158015610fa2573d6000803e3d6000fd5b505050506040513d601f19601f82011682018060405250810190610fc691906116a8565b50610fd18282611219565b6004546040518281526001600160a01b03918216918416907fd0ed88a3f042c6bbb1e3ea406079b5f2b4b198afccaa535d837f4c63abbc4de69060200160405180910390a35050565b6001600160a01b03811660009081526001830160205260408120541515610dce565b6060600080846001600160a01b0316846040516110599190611808565b600060405180830381855af49150503d8060008114611094576040519150601f19603f3d011682016040523d82523d6000602084013e611099565b606091505b50915091506110a9858383611288565b95945050505050565b6110bd60058261101a565b156110f7576040516001600160a01b038216907f72977dad29432f655f11c2f0e72ef5124bb9ade7a512fb7a43a9f504df22342890600090a25b6109fe6005826112e4565b6000610dce836001600160a01b0384166112f9565b600082600001828154811061112e5761112e61177d565b9060005260206000200154905092915050565b6001600160a01b0382166000908152600160205260408120805483929061116990849061170f565b90915550506040518181526001600160a01b038316907fe49f42d07d8046279c22af872fe6bc5678c4dfc38ace0f43b8e8d5a03d0e8f109060200160405180910390a26001600160a01b03821660009081526002602052604090205460ff166109fe576001600160a01b038216600081815260026020526040808220805460ff19166001179055517f158412daecdc1456d01568828bcdb18464cc7f1ce0215ddbc3f3cfede9d1e63d9190a25050565b6001600160a01b03821660009081526001602052604081208054839290611241908490611754565b90915550506040518181526001600160a01b038316907f854a0a098d6cafcdbf8cc91b503d29e40e31095273eec189216a6ed881543eb49060200160405180910390a25050565b60608261129d5761129882611348565b610dce565b81511580156112b457506001600160a01b0384163b155b156112dd57604051639996b31560e01b81526001600160a01b0385166004820152602401610414565b5092915050565b6000610dce836001600160a01b038416611371565b600081815260018301602052604081205461134057508154600181810184556000848152602080822090930184905584548482528286019093526040902091909155610a0f565b506000610a0f565b8051156113585780518082602001fd5b604051630a12f52160e11b815260040160405180910390fd5b6000818152600183016020526040812054801561145a576000611395600183611754565b85549091506000906113a990600190611754565b905080821461140e5760008660000182815481106113c9576113c961177d565b90600052602060002001549050808760000184815481106113ec576113ec61177d565b6000918252602080832090910192909255918252600188019052604090208390555b855486908061141f5761141f611824565b600190038181906000526020600020016000905590558560010160008681526020019081526020016000206000905560019350505050610a0f565b6000915050610a0f565b60006020828403121561147657600080fd5b81356001600160e01b031981168114610dce57600080fd5b60005b838110156114a9578181015183820152602001611491565b50506000910152565b600081518084526114ca81602086016020860161148e565b601f01601f19169290920160200192915050565b602081526000610dce60208301846114b2565b80356001600160a01b038116811461150857600080fd5b919050565b60006020828403121561151f57600080fd5b610dce826114f1565b60008060006060848603121561153d57600080fd5b611546846114f1565b9250611554602085016114f1565b9150604084013590509250925092565b6000806020838503121561157757600080fd5b823567ffffffffffffffff8082111561158f57600080fd5b818501915085601f8301126115a357600080fd5b8135818111156115b257600080fd5b8660208260051b85010111156115c757600080fd5b60209290920196919550909350505050565b6000602080830181845280855180835260408601915060408160051b870101925083870160005b8281101561162e57603f1988860301845261161c8583516114b2565b94509285019290850190600101611600565b5092979650505050505050565b6000806040838503121561164e57600080fd5b611657836114f1565b9150611665602084016114f1565b90509250929050565b600181811c9082168061168257607f821691505b6020821081036116a257634e487b7160e01b600052602260045260246000fd5b50919050565b6000602082840312156116ba57600080fd5b81518015158114610dce57600080fd5b6020808252601590820152743737ba10309031b7b6b6bab734ba3c9030b236b4b760591b604082015260600190565b634e487b7160e01b600052601160045260246000fd5b80820180821115610a0f57610a0f6116f9565b600060018201611734576117346116f9565b5060010190565b60006020828403121561174d57600080fd5b5051919050565b81810381811115610a0f57610a0f6116f9565b634e487b7160e01b600052604160045260246000fd5b634e487b7160e01b600052603260045260246000fd5b6000808335601e198436030181126117aa57600080fd5b83018035915067ffffffffffffffff8211156117c557600080fd5b6020019150368190038213156117da57600080fd5b9250929050565b8284823760008382016000815283516117fe81836020880161148e565b0195945050505050565b6000825161181a81846020870161148e565b9190910192915050565b634e487b7160e01b600052603160045260246000fdfea2646970667358221220c98f804fd0640264bae2c45c5c9b03788f85eaf19e7e6ef5f6d8fe7da8028f2564736f6c63430008140033",
  "linkReferences": {},
  "deployedLinkReferences": {}
}