{
  "_format": "hh-sol-artifact-1",
  "contractName": "C2CProject",
  "sourceName": "src/contracts/projects/C2CProject.sol",
  "abi": [
    {
      "inputs": [
        {
          "internalType": "string",
          "name": "_name",
          "type": "string"
        }
      ],
      "stateMutability": "nonpayable",
      "type": "constructor"
    },
    {
      "inputs": [
        {
          "internalType": "address",
          "name": "target",
          "type": "address"
        }
      ],
      "name": "AddressEmptyCode",
      "type": "error"
    },
    {
      "inputs": [],
      "name": "FailedInnerCall",
      "type": "error"
    },
    {
      "anonymous": false,
      "inputs": [
        {
          "indexed": true,
          "internalType": "address",
          "name": "",
          "type": "address"
        }
      ],
      "name": "BeneficiaryAdded",
      "type": "event"
    },
    {
      "anonymous": false,
      "inputs": [
        {
          "indexed": true,
          "internalType": "address",
          "name": "",
          "type": "address"
        }
      ],
      "name": "BeneficiaryRemoved",
      "type": "event"
    },
    {
      "anonymous": false,
      "inputs": [
        {
          "indexed": true,
          "internalType": "address",
          "name": "tokenAddress",
          "type": "address"
        },
        {
          "indexed": false,
          "internalType": "uint256",
          "name": "amount",
          "type": "uint256"
        }
      ],
      "name": "TokenBudgetDecrease",
      "type": "event"
    },
    {
      "anonymous": false,
      "inputs": [
        {
          "indexed": true,
          "internalType": "address",
          "name": "tokenAddress",
          "type": "address"
        },
        {
          "indexed": false,
          "internalType": "uint256",
          "name": "amount",
          "type": "uint256"
        }
      ],
      "name": "TokenBudgetIncrease",
      "type": "event"
    },
    {
      "anonymous": false,
      "inputs": [
        {
          "indexed": true,
          "internalType": "address",
          "name": "token",
          "type": "address"
        },
        {
          "indexed": true,
          "internalType": "address",
          "name": "from",
          "type": "address"
        },
        {
          "indexed": false,
          "internalType": "uint256",
          "name": "amount",
          "type": "uint256"
        }
      ],
      "name": "TokenReceived",
      "type": "event"
    },
    {
      "anonymous": false,
      "inputs": [
        {
          "indexed": true,
          "internalType": "address",
          "name": "tokenAddress",
          "type": "address"
        }
      ],
      "name": "TokenRegistered",
      "type": "event"
    },
    {
      "anonymous": false,
      "inputs": [
        {
          "indexed": true,
          "internalType": "address",
          "name": "token",
          "type": "address"
        },
        {
          "indexed": true,
          "internalType": "address",
          "name": "to",
          "type": "address"
        },
        {
          "indexed": false,
          "internalType": "uint256",
          "name": "amount",
          "type": "uint256"
        }
      ],
      "name": "TokenTransfer",
      "type": "event"
    },
    {
      "anonymous": false,
      "inputs": [
        {
          "indexed": true,
          "internalType": "address",
          "name": "_tokenAddress",
          "type": "address"
        },
        {
          "indexed": true,
          "internalType": "address",
          "name": "_to",
          "type": "address"
        },
        {
          "indexed": true,
          "internalType": "address",
          "name": "_from",
          "type": "address"
        },
        {
          "indexed": false,
          "internalType": "uint256",
          "name": "_amount",
          "type": "uint256"
        }
      ],
      "name": "TransferProcessed",
      "type": "event"
    },
    {
      "inputs": [],
      "name": "IID_RAHAT_PROJECT",
      "outputs": [
        {
          "internalType": "bytes4",
          "name": "",
          "type": "bytes4"
        }
      ],
      "stateMutability": "view",
      "type": "function"
    },
    {
      "inputs": [
        {
          "internalType": "address",
          "name": "_from",
          "type": "address"
        },
        {
          "internalType": "address",
          "name": "_tokenAddress",
          "type": "address"
        },
        {
          "internalType": "uint256",
          "name": "_amount",
          "type": "uint256"
        }
      ],
      "name": "acceptToken",
      "outputs": [],
      "stateMutability": "nonpayable",
      "type": "function"
    },
    {
      "inputs": [
        {
          "internalType": "address",
          "name": "_beneficiary",
          "type": "address"
        }
      ],
      "name": "addBeneficiary",
      "outputs": [],
      "stateMutability": "nonpayable",
      "type": "function"
    },
    {
      "inputs": [],
      "name": "beneficiaryCount",
      "outputs": [
        {
          "internalType": "uint256",
          "name": "",
          "type": "uint256"
        }
      ],
      "stateMutability": "view",
      "type": "function"
    },
    {
      "inputs": [
        {
          "internalType": "address",
          "name": "_tokenAddress",
          "type": "address"
        },
        {
          "internalType": "address",
          "name": "_beneficiary",
          "type": "address"
        },
        {
          "internalType": "address",
          "name": "_tokenOwner",
          "type": "address"
        },
        {
          "internalType": "uint256",
          "name": "_amount",
          "type": "uint256"
        }
      ],
      "name": "disburseExternalToken",
      "outputs": [],
      "stateMutability": "nonpayable",
      "type": "function"
    },
    {
      "inputs": [
        {
          "internalType": "address",
          "name": "_tokenAddress",
          "type": "address"
        },
        {
          "internalType": "address",
          "name": "_beneficiary",
          "type": "address"
        },
        {
          "internalType": "uint256",
          "name": "_amount",
          "type": "uint256"
        }
      ],
      "name": "disburseOwnedToken",
      "outputs": [],
      "stateMutability": "nonpayable",
      "type": "function"
    },
    {
      "inputs": [
        {
          "internalType": "address",
          "name": "_tokenAddress",
          "type": "address"
        },
        {
          "internalType": "address",
          "name": "_beneficiary",
          "type": "address"
        },
        {
          "internalType": "uint256",
          "name": "_amount",
          "type": "uint256"
        }
      ],
      "name": "disburseProjectToken",
      "outputs": [],
      "stateMutability": "nonpayable",
      "type": "function"
    },
    {
      "inputs": [
        {
          "internalType": "address",
          "name": "_address",
          "type": "address"
        }
      ],
      "name": "isBeneficiary",
      "outputs": [
        {
          "internalType": "bool",
          "name": "",
          "type": "bool"
        }
      ],
      "stateMutability": "view",
      "type": "function"
    },
    {
      "inputs": [
        {
          "internalType": "address",
          "name": "",
          "type": "address"
        }
      ],
      "name": "isDonor",
      "outputs": [
        {
          "internalType": "bool",
          "name": "",
          "type": "bool"
        }
      ],
      "stateMutability": "view",
      "type": "function"
    },
    {
      "inputs": [
        {
          "internalType": "bytes[]",
          "name": "data",
          "type": "bytes[]"
        }
      ],
      "name": "multicall",
      "outputs": [
        {
          "internalType": "bytes[]",
          "name": "results",
          "type": "bytes[]"
        }
      ],
      "stateMutability": "nonpayable",
      "type": "function"
    },
    {
      "inputs": [],
      "name": "name",
      "outputs": [
        {
          "internalType": "string",
          "name": "",
          "type": "string"
        }
      ],
      "stateMutability": "view",
      "type": "function"
    },
    {
      "inputs": [
        {
          "internalType": "address",
          "name": "_beneficiary",
          "type": "address"
        }
      ],
      "name": "removeBeneficiary",
      "outputs": [],
      "stateMutability": "nonpayable",
      "type": "function"
    },
    {
      "inputs": [
        {
          "internalType": "bytes4",
          "name": "interfaceId",
          "type": "bytes4"
        }
      ],
      "name": "supportsInterface",
      "outputs": [
        {
          "internalType": "bool",
          "name": "",
          "type": "bool"
        }
      ],
      "stateMutability": "view",
      "type": "function"
    },
    {
      "inputs": [
        {
          "internalType": "address",
          "name": "_tokenAddress",
          "type": "address"
        }
      ],
      "name": "tokenBudget",
      "outputs": [
        {
          "internalType": "uint256",
          "name": "",
          "type": "uint256"
        }
      ],
      "stateMutability": "view",
      "type": "function"
    },
    {
      "inputs": [
        {
          "internalType": "address",
          "name": "_tokenAddress",
          "type": "address"
        },
        {
          "internalType": "address",
          "name": "_withdrawAddress",
          "type": "address"
        }
      ],
      "name": "withdrawToken",
      "outputs": [],
      "stateMutability": "nonpayable",
      "type": "function"
    }
  ],
  "bytecode": "0x60806040523480156200001157600080fd5b506040516200151f3803806200151f833981016040819052620000349162000062565b806002620000438282620001c6565b50505062000292565b634e487b7160e01b600052604160045260246000fd5b600060208083850312156200007657600080fd5b82516001600160401b03808211156200008e57600080fd5b818501915085601f830112620000a357600080fd5b815181811115620000b857620000b86200004c565b604051601f8201601f19908116603f01168101908382118183101715620000e357620000e36200004c565b816040528281528886848701011115620000fc57600080fd5b600093505b8284101562000120578484018601518185018701529285019262000101565b600086848301015280965050505050505092915050565b600181811c908216806200014c57607f821691505b6020821081036200016d57634e487b7160e01b600052602260045260246000fd5b50919050565b601f821115620001c157600081815260208120601f850160051c810160208610156200019c5750805b601f850160051c820191505b81811015620001bd57828155600101620001a8565b5050505b505050565b81516001600160401b03811115620001e257620001e26200004c565b620001fa81620001f3845462000137565b8462000173565b602080601f831160018114620002325760008415620002195750858301515b600019600386901b1c1916600185901b178555620001bd565b600085815260208120601f198616915b82811015620002635788860151825594840194600190910190840162000242565b5085821015620002825787850151600019600388901b60f8161c191681555b5050505050600190811b01905550565b61127d80620002a26000396000f3fe608060405234801561001057600080fd5b50600436106100f55760003560e01c806359633a1c11610097578063ac9650d811610066578063ac9650d81461021c578063e055fd7c1461023c578063eb681e621461024f578063ee1d8dc81461027857600080fd5b806359633a1c146101cd5780635c0690f3146101e0578063734b2a7c146101f35780639d19b2261461020957600080fd5b80633aeac4e1116100d35780633aeac4e11461016b5780634fe21571146101805780635704479d146101a75780635926651d146101ba57600080fd5b806301ffc9a7146100fa57806306fdde03146101335780632bc3d7aa14610148575b600080fd5b61011e610108366004610e2c565b6001600160e01b0319166301c1039d60e11b1490565b60405190151581526020015b60405180910390f35b61013b61028b565b60405161012a9190610ea6565b61011e610156366004610ed5565b60056020526000908152604090205460ff1681565b61017e610179366004610ef0565b610319565b005b61018e6301c1039d60e11b81565b6040516001600160e01b0319909116815260200161012a565b61017e6101b5366004610f23565b610396565b61017e6101c8366004610ed5565b6103c4565b61017e6101db366004610ed5565b6103d0565b61017e6101ee366004610f23565b6103d9565b6101fb6104dc565b60405190815260200161012a565b61011e610217366004610ed5565b6104ed565b61022f61022a366004610f5f565b610500565b60405161012a9190610fd4565b61017e61024a366004610f23565b6105f3565b6101fb61025d366004610ed5565b6001600160a01b031660009081526020819052604090205490565b61017e610286366004611036565b610787565b6002805461029890611081565b80601f01602080910402602001604051908101604052809291908181526020018280546102c490611081565b80156103115780601f106102e657610100808354040283529160200191610311565b820191906000526020600020905b8154815290600101906020018083116102f457829003601f168201915b505050505081565b6040516370a0823160e01b81523060048201526000906001600160a01b038416906370a0823190602401602060405180830381865afa158015610360573d6000803e3d6000fd5b505050506040513d601f19601f8201168201806040525081019061038491906110bb565b9050610391838284610884565b505050565b6001600160a01b0383166000908152600560205260409020805460ff191660011790556103918284836108e0565b6103cd816109a9565b50565b6103cd816109fc565b6103e2826103c4565b6040516323b872dd60e01b81523360048201526001600160a01b038381166024830152604482018390528416906323b872dd906064016020604051808303816000875af1158015610437573d6000803e3d6000fd5b505050506040513d601f19601f8201168201806040525081019061045b91906110d4565b6104805760405162461bcd60e51b8152600401610477906110f6565b60405180910390fd5b336001600160a01b0316826001600160a01b0316846001600160a01b03167f3afecfb1aabaf344cc989ce53b44325f4f27b0f0d543485012cc51397f569779846040516104cf91815260200190565b60405180910390a4505050565b60006104e86003610a4c565b905090565b60006104fa600383610a56565b92915050565b6040805160008152602081019091526060908267ffffffffffffffff81111561052b5761052b611148565b60405190808252806020026020018201604052801561055e57816020015b60608152602001906001900390816105495790505b50915060005b838110156105eb576105bb308686848181106105825761058261115e565b90506020028101906105949190611174565b856040516020016105a7939291906111c2565b604051602081830303815290604052610a7b565b8382815181106105cd576105cd61115e565b602002602001018190525080806105e3906111e9565b915050610564565b505092915050565b6105fc826103c4565b6040516370a0823160e01b815230600482015281906001600160a01b038516906370a0823190602401602060405180830381865afa158015610642573d6000803e3d6000fd5b505050506040513d601f19601f8201168201806040525081019061066691906110bb565b10156106a95760405162461bcd60e51b81526020600482015260126024820152714e6f7420656e6f7567682062616c616e636560701b6044820152606401610477565b60405163a9059cbb60e01b81526001600160a01b0383811660048301526024820183905284169063a9059cbb906044016020604051808303816000875af11580156106f8573d6000803e3d6000fd5b505050506040513d601f19601f8201168201806040525081019061071c91906110d4565b6107385760405162461bcd60e51b8152600401610477906110f6565b306001600160a01b0316826001600160a01b0316846001600160a01b03167f3afecfb1aabaf344cc989ce53b44325f4f27b0f0d543485012cc51397f569779846040516104cf91815260200190565b610790836103c4565b6040516323b872dd60e01b81526001600160a01b0383811660048301528481166024830152604482018390528516906323b872dd906064016020604051808303816000875af11580156107e7573d6000803e3d6000fd5b505050506040513d601f19601f8201168201806040525081019061080b91906110d4565b6108275760405162461bcd60e51b8152600401610477906110f6565b816001600160a01b0316836001600160a01b0316856001600160a01b03167f3afecfb1aabaf344cc989ce53b44325f4f27b0f0d543485012cc51397f5697798460405161087691815260200190565b60405180910390a450505050565b61088e8383610af1565b806001600160a01b0316836001600160a01b03167fd0ed88a3f042c6bbb1e3ea406079b5f2b4b198afccaa535d837f4c63abbc4de6846040516108d391815260200190565b60405180910390a3505050565b6040516323b872dd60e01b81526001600160a01b038381166004830152306024830152604482018390528416906323b872dd906064016020604051808303816000875af1158015610935573d6000803e3d6000fd5b505050506040513d601f19601f8201168201806040525081019061095991906110d4565b506109648382610b60565b816001600160a01b0316836001600160a01b03167fa83965f0e7c5e026e57c9ba2dd91e4ebcca352f2d514498c1e9ed23ba6538600836040516108d391815260200190565b6109b4600382610a56565b6109ed576040516001600160a01b038216907fc3e089fc6227e049d0e41c3d7a383d57efe69c1955c5752f7e5a9b5f1f11302090600090a25b6109f8600382610c3b565b5050565b610a07600382610a56565b15610a41576040516001600160a01b038216907f72977dad29432f655f11c2f0e72ef5124bb9ade7a512fb7a43a9f504df22342890600090a25b6109f8600382610c50565b60006104fa825490565b6001600160a01b038116600090815260018301602052604081205415155b9392505050565b6060600080846001600160a01b031684604051610a989190611202565b600060405180830381855af49150503d8060008114610ad3576040519150601f19603f3d011682016040523d82523d6000602084013e610ad8565b606091505b5091509150610ae8858383610c65565b95945050505050565b6001600160a01b03821660009081526020819052604081208054839290610b19908490611135565b90915550506040518181526001600160a01b038316907f854a0a098d6cafcdbf8cc91b503d29e40e31095273eec189216a6ed881543eb49060200160405180910390a25050565b6001600160a01b03821660009081526020819052604081208054839290610b8890849061121e565b90915550506040518181526001600160a01b038316907fe49f42d07d8046279c22af872fe6bc5678c4dfc38ace0f43b8e8d5a03d0e8f109060200160405180910390a26001600160a01b03821660009081526001602052604090205460ff166109f8576001600160a01b0382166000818152600160208190526040808320805460ff1916909217909155517f158412daecdc1456d01568828bcdb18464cc7f1ce0215ddbc3f3cfede9d1e63d9190a25050565b6000610a74836001600160a01b038416610cc1565b6000610a74836001600160a01b038416610d10565b606082610c7a57610c7582610e03565b610a74565b8151158015610c9157506001600160a01b0384163b155b15610cba57604051639996b31560e01b81526001600160a01b0385166004820152602401610477565b5092915050565b6000818152600183016020526040812054610d08575081546001818101845560008481526020808220909301849055845484825282860190935260409020919091556104fa565b5060006104fa565b60008181526001830160205260408120548015610df9576000610d34600183611135565b8554909150600090610d4890600190611135565b9050808214610dad576000866000018281548110610d6857610d6861115e565b9060005260206000200154905080876000018481548110610d8b57610d8b61115e565b6000918252602080832090910192909255918252600188019052604090208390555b8554869080610dbe57610dbe611231565b6001900381819060005260206000200160009055905585600101600086815260200190815260200160002060009055600193505050506104fa565b60009150506104fa565b805115610e135780518082602001fd5b604051630a12f52160e11b815260040160405180910390fd5b600060208284031215610e3e57600080fd5b81356001600160e01b031981168114610a7457600080fd5b60005b83811015610e71578181015183820152602001610e59565b50506000910152565b60008151808452610e92816020860160208601610e56565b601f01601f19169290920160200192915050565b602081526000610a746020830184610e7a565b80356001600160a01b0381168114610ed057600080fd5b919050565b600060208284031215610ee757600080fd5b610a7482610eb9565b60008060408385031215610f0357600080fd5b610f0c83610eb9565b9150610f1a60208401610eb9565b90509250929050565b600080600060608486031215610f3857600080fd5b610f4184610eb9565b9250610f4f60208501610eb9565b9150604084013590509250925092565b60008060208385031215610f7257600080fd5b823567ffffffffffffffff80821115610f8a57600080fd5b818501915085601f830112610f9e57600080fd5b813581811115610fad57600080fd5b8660208260051b8501011115610fc257600080fd5b60209290920196919550909350505050565b6000602080830181845280855180835260408601915060408160051b870101925083870160005b8281101561102957603f19888603018452611017858351610e7a565b94509285019290850190600101610ffb565b5092979650505050505050565b6000806000806080858703121561104c57600080fd5b61105585610eb9565b935061106360208601610eb9565b925061107160408601610eb9565b9396929550929360600135925050565b600181811c9082168061109557607f821691505b6020821081036110b557634e487b7160e01b600052602260045260246000fd5b50919050565b6000602082840312156110cd57600080fd5b5051919050565b6000602082840312156110e657600080fd5b81518015158114610a7457600080fd5b6020808252600f908201526e151c985b9cd9995c8811985a5b1959608a1b604082015260600190565b634e487b7160e01b600052601160045260246000fd5b818103818111156104fa576104fa61111f565b634e487b7160e01b600052604160045260246000fd5b634e487b7160e01b600052603260045260246000fd5b6000808335601e1984360301811261118b57600080fd5b83018035915067ffffffffffffffff8211156111a657600080fd5b6020019150368190038213156111bb57600080fd5b9250929050565b8284823760008382016000815283516111df818360208801610e56565b0195945050505050565b6000600182016111fb576111fb61111f565b5060010190565b60008251611214818460208701610e56565b9190910192915050565b808201808211156104fa576104fa61111f565b634e487b7160e01b600052603160045260246000fdfea26469706673582212209bd12ea6165ec4ebb64ce3811c327ce35438bf45c99781032d90ee071a2e4e4e64736f6c63430008140033",
  "linkReferences": {},
  "deployedLinkReferences": {}
}