{
  "_format": "hh-sol-artifact-1",
  "contractName": "C2CProject",
  "sourceName": "src/contracts/projects/C2CProject.sol",
  "abi": [
    {
      "inputs": [
        {
          "internalType": "string",
          "name": "_name",
          "type": "string"
        },
        {
          "internalType": "address",
          "name": "_manager",
          "type": "address"
        },
        {
          "internalType": "address",
          "name": "_forwarder",
          "type": "address"
        }
      ],
      "stateMutability": "nonpayable",
      "type": "constructor"
    },
    {
      "inputs": [
        {
          "internalType": "address",
          "name": "authority",
          "type": "address"
        }
      ],
      "name": "AccessManagedInvalidAuthority",
      "type": "error"
    },
    {
      "inputs": [
        {
          "internalType": "address",
          "name": "caller",
          "type": "address"
        },
        {
          "internalType": "uint32",
          "name": "delay",
          "type": "uint32"
        }
      ],
      "name": "AccessManagedRequiredDelay",
      "type": "error"
    },
    {
      "inputs": [
        {
          "internalType": "address",
          "name": "caller",
          "type": "address"
        }
      ],
      "name": "AccessManagedUnauthorized",
      "type": "error"
    },
    {
      "inputs": [
        {
          "internalType": "address",
          "name": "target",
          "type": "address"
        }
      ],
      "name": "AddressEmptyCode",
      "type": "error"
    },
    {
      "inputs": [
        {
          "internalType": "address",
          "name": "account",
          "type": "address"
        }
      ],
      "name": "AddressInsufficientBalance",
      "type": "error"
    },
    {
      "inputs": [],
      "name": "FailedInnerCall",
      "type": "error"
    },
    {
      "inputs": [
        {
          "internalType": "address",
          "name": "token",
          "type": "address"
        }
      ],
      "name": "SafeERC20FailedOperation",
      "type": "error"
    },
    {
      "anonymous": false,
      "inputs": [
        {
          "indexed": false,
          "internalType": "address",
          "name": "authority",
          "type": "address"
        }
      ],
      "name": "AuthorityUpdated",
      "type": "event"
    },
    {
      "anonymous": false,
      "inputs": [
        {
          "indexed": true,
          "internalType": "address",
          "name": "",
          "type": "address"
        }
      ],
      "name": "BeneficiaryAdded",
      "type": "event"
    },
    {
      "anonymous": false,
      "inputs": [
        {
          "indexed": true,
          "internalType": "address",
          "name": "",
          "type": "address"
        }
      ],
      "name": "BeneficiaryRemoved",
      "type": "event"
    },
    {
      "anonymous": false,
      "inputs": [
        {
          "indexed": true,
          "internalType": "address",
          "name": "tokenAddress",
          "type": "address"
        },
        {
          "indexed": false,
          "internalType": "uint256",
          "name": "amount",
          "type": "uint256"
        }
      ],
      "name": "TokenBudgetDecrease",
      "type": "event"
    },
    {
      "anonymous": false,
      "inputs": [
        {
          "indexed": true,
          "internalType": "address",
          "name": "tokenAddress",
          "type": "address"
        },
        {
          "indexed": false,
          "internalType": "uint256",
          "name": "amount",
          "type": "uint256"
        }
      ],
      "name": "TokenBudgetIncrease",
      "type": "event"
    },
    {
      "anonymous": false,
      "inputs": [
        {
          "indexed": true,
          "internalType": "address",
          "name": "token",
          "type": "address"
        },
        {
          "indexed": true,
          "internalType": "address",
          "name": "from",
          "type": "address"
        },
        {
          "indexed": false,
          "internalType": "uint256",
          "name": "amount",
          "type": "uint256"
        }
      ],
      "name": "TokenReceived",
      "type": "event"
    },
    {
      "anonymous": false,
      "inputs": [
        {
          "indexed": true,
          "internalType": "address",
          "name": "tokenAddress",
          "type": "address"
        }
      ],
      "name": "TokenRegistered",
      "type": "event"
    },
    {
      "anonymous": false,
      "inputs": [
        {
          "indexed": true,
          "internalType": "address",
          "name": "token",
          "type": "address"
        },
        {
          "indexed": true,
          "internalType": "address",
          "name": "to",
          "type": "address"
        },
        {
          "indexed": false,
          "internalType": "uint256",
          "name": "amount",
          "type": "uint256"
        }
      ],
      "name": "TokenTransfer",
      "type": "event"
    },
    {
      "anonymous": false,
      "inputs": [
        {
          "indexed": true,
          "internalType": "address",
          "name": "token",
          "type": "address"
        },
        {
          "indexed": true,
          "internalType": "address",
          "name": "beneficiary",
          "type": "address"
        },
        {
          "indexed": false,
          "internalType": "uint256",
          "name": "amount",
          "type": "uint256"
        }
      ],
      "name": "TokensAllocated",
      "type": "event"
    },
    {
      "anonymous": false,
      "inputs": [
        {
          "indexed": true,
          "internalType": "address",
          "name": "token",
          "type": "address"
        },
        {
          "indexed": true,
          "internalType": "address",
          "name": "beneficiary",
          "type": "address"
        },
        {
          "indexed": false,
          "internalType": "uint256",
          "name": "amount",
          "type": "uint256"
        }
      ],
      "name": "TokensDisbursed",
      "type": "event"
    },
    {
      "anonymous": false,
      "inputs": [
        {
          "indexed": true,
          "internalType": "address",
          "name": "_tokenAddress",
          "type": "address"
        },
        {
          "indexed": true,
          "internalType": "address",
          "name": "_to",
          "type": "address"
        },
        {
          "indexed": true,
          "internalType": "address",
          "name": "_from",
          "type": "address"
        },
        {
          "indexed": false,
          "internalType": "uint256",
          "name": "_amount",
          "type": "uint256"
        }
      ],
      "name": "TransferProcessed",
      "type": "event"
    },
    {
      "inputs": [
        {
          "internalType": "address",
          "name": "_tokenAddress",
          "type": "address"
        },
        {
          "internalType": "address",
          "name": "_from",
          "type": "address"
        },
        {
          "internalType": "uint256",
          "name": "_amount",
          "type": "uint256"
        }
      ],
      "name": "acceptToken",
      "outputs": [],
      "stateMutability": "nonpayable",
      "type": "function"
    },
    {
      "inputs": [
        {
          "internalType": "address",
          "name": "_beneficiary",
          "type": "address"
        }
      ],
      "name": "addBeneficiary",
      "outputs": [],
      "stateMutability": "nonpayable",
      "type": "function"
    },
    {
      "inputs": [],
      "name": "authority",
      "outputs": [
        {
          "internalType": "address",
          "name": "",
          "type": "address"
        }
      ],
      "stateMutability": "view",
      "type": "function"
    },
    {
      "inputs": [],
      "name": "beneficiaryCount",
      "outputs": [
        {
          "internalType": "uint256",
          "name": "",
          "type": "uint256"
        }
      ],
      "stateMutability": "view",
      "type": "function"
    },
    {
      "inputs": [
        {
          "internalType": "address",
          "name": "_tokenAddress",
          "type": "address"
        },
        {
          "internalType": "address",
          "name": "_beneficiary",
          "type": "address"
        },
        {
          "internalType": "address",
          "name": "_tokenOwner",
          "type": "address"
        },
        {
          "internalType": "uint256",
          "name": "_amount",
          "type": "uint256"
        }
      ],
      "name": "disburseExternalToken",
      "outputs": [],
      "stateMutability": "nonpayable",
      "type": "function"
    },
    {
      "inputs": [
        {
          "internalType": "address",
          "name": "_tokenAddress",
          "type": "address"
        },
        {
          "internalType": "address",
          "name": "_beneficiary",
          "type": "address"
        },
        {
          "internalType": "uint256",
          "name": "_amount",
          "type": "uint256"
        }
      ],
      "name": "disburseOwnedToken",
      "outputs": [],
      "stateMutability": "nonpayable",
      "type": "function"
    },
    {
      "inputs": [
        {
          "internalType": "address",
          "name": "_tokenAddress",
          "type": "address"
        },
        {
          "internalType": "address",
          "name": "_beneficiary",
          "type": "address"
        },
        {
          "internalType": "uint256",
          "name": "_amount",
          "type": "uint256"
        }
      ],
      "name": "disburseProjectToken",
      "outputs": [],
      "stateMutability": "nonpayable",
      "type": "function"
    },
    {
      "inputs": [
        {
          "internalType": "address",
          "name": "_address",
          "type": "address"
        }
      ],
      "name": "isBeneficiary",
      "outputs": [
        {
          "internalType": "bool",
          "name": "",
          "type": "bool"
        }
      ],
      "stateMutability": "view",
      "type": "function"
    },
    {
      "inputs": [],
      "name": "isConsumingScheduledOp",
      "outputs": [
        {
          "internalType": "bytes4",
          "name": "",
          "type": "bytes4"
        }
      ],
      "stateMutability": "view",
      "type": "function"
    },
    {
      "inputs": [
        {
          "internalType": "address",
          "name": "forwarder",
          "type": "address"
        }
      ],
      "name": "isTrustedForwarder",
      "outputs": [
        {
          "internalType": "bool",
          "name": "",
          "type": "bool"
        }
      ],
      "stateMutability": "view",
      "type": "function"
    },
    {
      "inputs": [
        {
          "internalType": "bytes[]",
          "name": "data",
          "type": "bytes[]"
        }
      ],
      "name": "multicall",
      "outputs": [
        {
          "internalType": "bytes[]",
          "name": "results",
          "type": "bytes[]"
        }
      ],
      "stateMutability": "nonpayable",
      "type": "function"
    },
    {
      "inputs": [],
      "name": "name",
      "outputs": [
        {
          "internalType": "string",
          "name": "",
          "type": "string"
        }
      ],
      "stateMutability": "view",
      "type": "function"
    },
    {
      "inputs": [
        {
          "internalType": "address",
          "name": "_beneficiary",
          "type": "address"
        }
      ],
      "name": "removeBeneficiary",
      "outputs": [],
      "stateMutability": "nonpayable",
      "type": "function"
    },
    {
      "inputs": [
        {
          "internalType": "address",
          "name": "newAuthority",
          "type": "address"
        }
      ],
      "name": "setAuthority",
      "outputs": [],
      "stateMutability": "nonpayable",
      "type": "function"
    },
    {
      "inputs": [
        {
          "internalType": "bytes4",
          "name": "interfaceId",
          "type": "bytes4"
        }
      ],
      "name": "supportsInterface",
      "outputs": [
        {
          "internalType": "bool",
          "name": "",
          "type": "bool"
        }
      ],
      "stateMutability": "view",
      "type": "function"
    },
    {
      "inputs": [
        {
          "internalType": "address",
          "name": "",
          "type": "address"
        },
        {
          "internalType": "address",
          "name": "",
          "type": "address"
        }
      ],
      "name": "tokenAllocations",
      "outputs": [
        {
          "internalType": "uint256",
          "name": "",
          "type": "uint256"
        }
      ],
      "stateMutability": "view",
      "type": "function"
    },
    {
      "inputs": [
        {
          "internalType": "address",
          "name": "_tokenAddress",
          "type": "address"
        }
      ],
      "name": "tokenBudget",
      "outputs": [
        {
          "internalType": "uint256",
          "name": "",
          "type": "uint256"
        }
      ],
      "stateMutability": "view",
      "type": "function"
    },
    {
      "inputs": [],
      "name": "trustedForwarder",
      "outputs": [
        {
          "internalType": "address",
          "name": "",
          "type": "address"
        }
      ],
      "stateMutability": "view",
      "type": "function"
    },
    {
      "inputs": [
        {
          "internalType": "address",
          "name": "_tokenAddress",
          "type": "address"
        },
        {
          "internalType": "address",
          "name": "_withdrawAddress",
          "type": "address"
        }
      ],
      "name": "withdrawToken",
      "outputs": [],
      "stateMutability": "nonpayable",
      "type": "function"
    }
  ],
  "bytecode": "0x60a06040523480156200001157600080fd5b5060405162001ddc38038062001ddc8339810160408190526200003491620000f3565b6001600160a01b0381166080528282828162000050816200006c565b5060046200005f84826200027c565b5050505050505062000348565b600080546001600160a01b0319166001600160a01b0383169081179091556040519081527f2f658b440c35314f52658ea8a740e05b284cdc84dc9ae01e891f21b8933e7cad9060200160405180910390a150565b634e487b7160e01b600052604160045260246000fd5b80516001600160a01b0381168114620000ee57600080fd5b919050565b6000806000606084860312156200010957600080fd5b83516001600160401b03808211156200012157600080fd5b818601915086601f8301126200013657600080fd5b8151818111156200014b576200014b620000c0565b604051601f8201601f19908116603f01168101908382118183101715620001765762000176620000c0565b816040528281526020935089848487010111156200019357600080fd5b600091505b82821015620001b7578482018401518183018501529083019062000198565b6000848483010152809750505050620001d2818701620000d6565b93505050620001e460408501620000d6565b90509250925092565b600181811c908216806200020257607f821691505b6020821081036200022357634e487b7160e01b600052602260045260246000fd5b50919050565b601f8211156200027757600081815260208120601f850160051c81016020861015620002525750805b601f850160051c820191505b8181101562000273578281556001016200025e565b5050505b505050565b81516001600160401b03811115620002985762000298620000c0565b620002b081620002a98454620001ed565b8462000229565b602080601f831160018114620002e85760008415620002cf5750858301515b600019600386901b1c1916600185901b17855562000273565b600085815260208120601f198616915b828110156200031957888601518255948401946001909101908401620002f8565b5085821015620003385787850151600019600388901b60f8161c191681555b5050505050600190811b01905550565b608051611a716200036b6000396000818161020301526104bb0152611a716000f3fe608060405234801561001057600080fd5b50600436106101215760003560e01c80637a9e5e4b116100ad578063bf7e214f11610071578063bf7e214f1461028f578063d052952b146102a0578063e055fd7c146102cb578063eb681e62146102de578063ee1d8dc81461030757600080fd5b80637a9e5e4b146101ee5780637da0a877146102015780638fb360371461023b5780639d19b2261461025c578063ac9650d81461026f57600080fd5b8063572b6c05116100f4578063572b6c051461018c5780635926651d1461019f57806359633a1c146101b25780635c0690f3146101c5578063734b2a7c146101d857600080fd5b806301ffc9a71461012657806306fdde031461014f5780633aeac4e1146101645780635704479d14610179575b600080fd5b61013a610134366004611535565b50600090565b60405190151581526020015b60405180910390f35b61015761031a565b60405161014691906115af565b6101776101723660046115de565b6103a8565b005b610177610187366004611611565b61043d565b61013a61019a36600461164d565b6104b9565b6101776101ad36600461164d565b6104eb565b6101776101c036600461164d565b610502565b6101776101d3366004611611565b610516565b6101e061059b565b604051908152602001610146565b6101776101fc36600461164d565b6105ac565b7f00000000000000000000000000000000000000000000000000000000000000005b6040516001600160a01b039091168152602001610146565b61024361064d565b6040516001600160e01b03199091168152602001610146565b61013a61026a36600461164d565b610671565b61028261027d366004611668565b610684565b60405161014691906116dd565b6000546001600160a01b0316610223565b6101e06102ae3660046115de565b600360209081526000928352604080842090915290825290205481565b6101776102d9366004611611565b6107ee565b6101e06102ec36600461164d565b6001600160a01b031660009081526001602052604090205490565b61017761031536600461173f565b610913565b600480546103279061178a565b80601f01602080910402602001604051908101604052809291908181526020018280546103539061178a565b80156103a05780601f10610375576101008083540402835291602001916103a0565b820191906000526020600020905b81548152906001019060200180831161038357829003601f168201915b505050505081565b6103c06103b3610999565b6103bb6109a3565b6109b6565b6040516370a0823160e01b81523060048201526000906001600160a01b038416906370a0823190602401602060405180830381865afa158015610407573d6000803e3d6000fd5b505050506040513d601f19601f8201168201806040525081019061042b91906117c4565b9050610438838284610ab6565b505050565b6104486103b3610999565b61045d6001600160a01b038416833084610b44565b6104678382610bb1565b816001600160a01b0316836001600160a01b03167fa83965f0e7c5e026e57c9ba2dd91e4ebcca352f2d514498c1e9ed23ba6538600836040516104ac91815260200190565b60405180910390a3505050565b7f00000000000000000000000000000000000000000000000000000000000000006001600160a01b0390811691161490565b6104f66103b3610999565b6104ff81610c89565b50565b61050d6103b3610999565b6104ff81610ce3565b6105216103b3610999565b61052a826104eb565b61053f6001600160a01b038416338484610b44565b336001600160a01b0316826001600160a01b0316846001600160a01b03167f3afecfb1aabaf344cc989ce53b44325f4f27b0f0d543485012cc51397f5697798460405161058e91815260200190565b60405180910390a4505050565b60006105a76005610d3e565b905090565b60006105b6610999565b90506105ca6000546001600160a01b031690565b6001600160a01b0316816001600160a01b03161461060a5760405162d1953b60e31b81526001600160a01b03821660048201526024015b60405180910390fd5b816001600160a01b03163b600003610640576040516361798f2f60e11b81526001600160a01b0383166004820152602401610601565b61064982610d48565b5050565b60008054600160a01b900460ff166106655750600090565b50638fb3603760e01b90565b600061067e600583610d9c565b92915050565b60606000610690610999565b6001600160a01b0316336001600160a01b0316146106fb576000366106b66014826117f3565b6106c1928290611806565b8080601f01602080910402602001604051908101604052809392919081815260200183838082843760009201919091525061070b92505050565b6040805160008152602081019091525b90508267ffffffffffffffff81111561072657610726611830565b60405190808252806020026020018201604052801561075957816020015b60608152602001906001900390816107445790505b50915060005b838110156107e6576107b63086868481811061077d5761077d611846565b905060200281019061078f919061185c565b856040516020016107a2939291906118aa565b604051602081830303815290604052610dc1565b8382815181106107c8576107c8611846565b602002602001018190525080806107de906118d1565b91505061075f565b505092915050565b6107f96103b3610999565b6040516370a0823160e01b815230600482015281906001600160a01b038516906370a0823190602401602060405180830381865afa15801561083f573d6000803e3d6000fd5b505050506040513d601f19601f8201168201806040525081019061086391906117c4565b10156108a65760405162461bcd60e51b81526020600482015260126024820152714e6f7420656e6f7567682062616c616e636560701b6044820152606401610601565b6108af826104eb565b6108ba838383610e37565b6108c48383610efa565b306001600160a01b0316826001600160a01b0316846001600160a01b03167f3afecfb1aabaf344cc989ce53b44325f4f27b0f0d543485012cc51397f5697798460405161058e91815260200190565b61091e6103b3610999565b610927836104eb565b61093c6001600160a01b038516838584610b44565b816001600160a01b0316836001600160a01b0316856001600160a01b03167f3afecfb1aabaf344cc989ce53b44325f4f27b0f0d543485012cc51397f5697798460405161098b91815260200190565b60405180910390a450505050565b60006105a7610feb565b3660006109ae61103d565b915091509091565b6000806109ec6109ce6000546001600160a01b031690565b86306109de60046000898b611806565b6109e7916118ea565b61108a565b9150915081610aaf5763ffffffff811615610a8c576000805460ff60a01b198116600160a01b17909155604051634a63ebf760e11b81526001600160a01b03909116906394c7d7ee90610a4790889088908890600401611918565b600060405180830381600087803b158015610a6157600080fd5b505af1158015610a75573d6000803e3d6000fd5b50506000805460ff60a01b1916905550610aaf9050565b60405162d1953b60e31b81526001600160a01b0386166004820152602401610601565b5050505050565b610ac16103b3610999565b6001600160a01b038316600090815260016020526040902054821015610aeb57610aeb8383611196565b610aff6001600160a01b0384168284611205565b806001600160a01b0316836001600160a01b03167fd0ed88a3f042c6bbb1e3ea406079b5f2b4b198afccaa535d837f4c63abbc4de6846040516104ac91815260200190565b6040516001600160a01b038481166024830152838116604483015260648201839052610bab9186918216906323b872dd906084015b604051602081830303815290604052915060e01b6020820180516001600160e01b038381831617835250505050611236565b50505050565b6001600160a01b03821660009081526001602052604081208054839290610bd9908490611958565b90915550506040518181526001600160a01b038316907fe49f42d07d8046279c22af872fe6bc5678c4dfc38ace0f43b8e8d5a03d0e8f109060200160405180910390a26001600160a01b03821660009081526002602052604090205460ff16610649576001600160a01b038216600081815260026020526040808220805460ff19166001179055517f158412daecdc1456d01568828bcdb18464cc7f1ce0215ddbc3f3cfede9d1e63d9190a25050565b610c946103b3610999565b610c9f600582610d9c565b610cd8576040516001600160a01b038216907fc3e089fc6227e049d0e41c3d7a383d57efe69c1955c5752f7e5a9b5f1f11302090600090a25b610649600582611299565b610cee6103b3610999565b610cf9600582610d9c565b15610d33576040516001600160a01b038216907f72977dad29432f655f11c2f0e72ef5124bb9ade7a512fb7a43a9f504df22342890600090a25b6106496005826112ae565b600061067e825490565b600080546001600160a01b0319166001600160a01b0383169081179091556040519081527f2f658b440c35314f52658ea8a740e05b284cdc84dc9ae01e891f21b8933e7cad9060200160405180910390a150565b6001600160a01b038116600090815260018301602052604081205415155b9392505050565b6060600080846001600160a01b031684604051610dde919061196b565b600060405180830381855af49150503d8060008114610e19576040519150601f19603f3d011682016040523d82523d6000602084013e610e1e565b606091505b5091509150610e2e8583836112c3565b95945050505050565b610e426103b3610999565b6001600160a01b038216610e985760405162461bcd60e51b815260206004820152601f60248201527f42656e65666963696172792063616e6e6f7420626520302061646472657373006044820152606401610601565b610ea182610c89565b6001600160a01b0383811660008181526003602090815260408083209487168084529482529182902085905590518481527fb85a32c5e2abde02dc41a312129cd4ce3a0d1c426a01f420cdc4eb3fffa4ae0d91016104ac565b610f056103b3610999565b6001600160a01b0380831660009081526003602090815260408083209385168352929052205480610f705760405162461bcd60e51b81526020600482015260156024820152744e6f20746f6b656e7320746f20646973627572736560581b6044820152606401610601565b6001600160a01b038084166000818152600360209081526040808320948716835293905291822091909155610fa6908383611205565b816001600160a01b0316836001600160a01b03167fd27324da142a3bd860ef3d020a577d468178cfc1370c0f229b966865e9d7327c836040516104ac91815260200190565b6000366014610ff9336104b9565b80156110055750808210155b156110355760003661101783856117f3565b611022928290611806565b61102b91611987565b60601c9250505090565b339250505090565b36600081601461104c336104b9565b80156110585750808210155b15611082576000803661106b84866117f3565b9261107893929190611806565b9350935050509091565b600036611078565b6040516001600160a01b03848116602483015283811660448301526001600160e01b03198316606483015260009182918291829189169060840160408051601f198184030181529181526020820180516001600160e01b031663b700961360e01b179052516110f9919061196b565b600060405180830381855afa9150503d8060008114611134576040519150601f19603f3d011682016040523d82523d6000602084013e611139565b606091505b5091509150811561118b57604081511061116b578080602001905181019061116191906119ca565b909450925061118b565b602081511061118b57808060200190518101906111889190611a0a565b93505b505094509492505050565b6001600160a01b038216600090815260016020526040812080548392906111be9084906117f3565b90915550506040518181526001600160a01b038316907f854a0a098d6cafcdbf8cc91b503d29e40e31095273eec189216a6ed881543eb49060200160405180910390a25050565b6040516001600160a01b0383811660248301526044820183905261043891859182169063a9059cbb90606401610b79565b600061124b6001600160a01b0384168361131f565b9050805160001415801561127057508080602001905181019061126e9190611a0a565b155b1561043857604051635274afe760e01b81526001600160a01b0384166004820152602401610601565b6000610dba836001600160a01b03841661132d565b6000610dba836001600160a01b03841661137c565b6060826112d8576112d38261146f565b610dba565b81511580156112ef57506001600160a01b0384163b155b1561131857604051639996b31560e01b81526001600160a01b0385166004820152602401610601565b5092915050565b6060610dba83836000611498565b60008181526001830160205260408120546113745750815460018181018455600084815260208082209093018490558454848252828601909352604090209190915561067e565b50600061067e565b600081815260018301602052604081205480156114655760006113a06001836117f3565b85549091506000906113b4906001906117f3565b90508082146114195760008660000182815481106113d4576113d4611846565b90600052602060002001549050808760000184815481106113f7576113f7611846565b6000918252602080832090910192909255918252600188019052604090208390555b855486908061142a5761142a611a25565b60019003818190600052602060002001600090559055856001016000868152602001908152602001600020600090556001935050505061067e565b600091505061067e565b80511561147f5780518082602001fd5b604051630a12f52160e11b815260040160405180910390fd5b6060814710156114bd5760405163cd78605960e01b8152306004820152602401610601565b600080856001600160a01b031684866040516114d9919061196b565b60006040518083038185875af1925050503d8060008114611516576040519150601f19603f3d011682016040523d82523d6000602084013e61151b565b606091505b509150915061152b8683836112c3565b9695505050505050565b60006020828403121561154757600080fd5b81356001600160e01b031981168114610dba57600080fd5b60005b8381101561157a578181015183820152602001611562565b50506000910152565b6000815180845261159b81602086016020860161155f565b601f01601f19169290920160200192915050565b602081526000610dba6020830184611583565b80356001600160a01b03811681146115d957600080fd5b919050565b600080604083850312156115f157600080fd5b6115fa836115c2565b9150611608602084016115c2565b90509250929050565b60008060006060848603121561162657600080fd5b61162f846115c2565b925061163d602085016115c2565b9150604084013590509250925092565b60006020828403121561165f57600080fd5b610dba826115c2565b6000806020838503121561167b57600080fd5b823567ffffffffffffffff8082111561169357600080fd5b818501915085601f8301126116a757600080fd5b8135818111156116b657600080fd5b8660208260051b85010111156116cb57600080fd5b60209290920196919550909350505050565b6000602080830181845280855180835260408601915060408160051b870101925083870160005b8281101561173257603f19888603018452611720858351611583565b94509285019290850190600101611704565b5092979650505050505050565b6000806000806080858703121561175557600080fd5b61175e856115c2565b935061176c602086016115c2565b925061177a604086016115c2565b9396929550929360600135925050565b600181811c9082168061179e57607f821691505b6020821081036117be57634e487b7160e01b600052602260045260246000fd5b50919050565b6000602082840312156117d657600080fd5b5051919050565b634e487b7160e01b600052601160045260246000fd5b8181038181111561067e5761067e6117dd565b6000808585111561181657600080fd5b8386111561182357600080fd5b5050820193919092039150565b634e487b7160e01b600052604160045260246000fd5b634e487b7160e01b600052603260045260246000fd5b6000808335601e1984360301811261187357600080fd5b83018035915067ffffffffffffffff82111561188e57600080fd5b6020019150368190038213156118a357600080fd5b9250929050565b8284823760008382016000815283516118c781836020880161155f565b0195945050505050565b6000600182016118e3576118e36117dd565b5060010190565b6001600160e01b031981358181169160048510156107e65760049490940360031b84901b1690921692915050565b6001600160a01b03841681526040602082018190528101829052818360608301376000818301606090810191909152601f909201601f1916010192915050565b8082018082111561067e5761067e6117dd565b6000825161197d81846020870161155f565b9190910192915050565b6bffffffffffffffffffffffff1981358181169160148510156107e65760149490940360031b84901b1690921692915050565b805180151581146115d957600080fd5b600080604083850312156119dd57600080fd5b6119e6836119ba565b9150602083015163ffffffff811681146119ff57600080fd5b809150509250929050565b600060208284031215611a1c57600080fd5b610dba826119ba565b634e487b7160e01b600052603160045260246000fdfea2646970667358221220581a5720059cd0366eb114003b615057613be85caf8dad7dac76bbbe413a555964736f6c63430008140033",
  "linkReferences": {},
  "deployedLinkReferences": {}
}