{
  "_format": "hh-sol-artifact-1",
  "contractName": "C2CProject",
  "sourceName": "src/contracts/projects/C2CProject.sol",
  "abi": [
    {
      "inputs": [
        {
          "internalType": "string",
          "name": "_name",
          "type": "string"
        },
        {
          "internalType": "address",
          "name": "_community",
          "type": "address"
        }
      ],
      "stateMutability": "nonpayable",
      "type": "constructor"
    },
    {
      "inputs": [
        {
          "internalType": "address",
          "name": "target",
          "type": "address"
        }
      ],
      "name": "AddressEmptyCode",
      "type": "error"
    },
    {
      "inputs": [],
      "name": "FailedInnerCall",
      "type": "error"
    },
    {
      "anonymous": false,
      "inputs": [
        {
          "indexed": true,
          "internalType": "address",
          "name": "",
          "type": "address"
        }
      ],
      "name": "BeneficiaryAdded",
      "type": "event"
    },
    {
      "anonymous": false,
      "inputs": [
        {
          "indexed": true,
          "internalType": "address",
          "name": "",
          "type": "address"
        }
      ],
      "name": "BeneficiaryRemoved",
      "type": "event"
    },
    {
      "anonymous": false,
      "inputs": [],
      "name": "ProjectLocked",
      "type": "event"
    },
    {
      "anonymous": false,
      "inputs": [],
      "name": "ProjectUnlocked",
      "type": "event"
    },
    {
      "anonymous": false,
      "inputs": [
        {
          "indexed": true,
          "internalType": "address",
          "name": "tokenAddress",
          "type": "address"
        },
        {
          "indexed": false,
          "internalType": "uint256",
          "name": "amount",
          "type": "uint256"
        }
      ],
      "name": "TokenBudgetDecrease",
      "type": "event"
    },
    {
      "anonymous": false,
      "inputs": [
        {
          "indexed": true,
          "internalType": "address",
          "name": "tokenAddress",
          "type": "address"
        },
        {
          "indexed": false,
          "internalType": "uint256",
          "name": "amount",
          "type": "uint256"
        }
      ],
      "name": "TokenBudgetIncrease",
      "type": "event"
    },
    {
      "anonymous": false,
      "inputs": [
        {
          "indexed": true,
          "internalType": "address",
          "name": "token",
          "type": "address"
        },
        {
          "indexed": true,
          "internalType": "address",
          "name": "from",
          "type": "address"
        },
        {
          "indexed": false,
          "internalType": "uint256",
          "name": "amount",
          "type": "uint256"
        }
      ],
      "name": "TokenReceived",
      "type": "event"
    },
    {
      "anonymous": false,
      "inputs": [
        {
          "indexed": true,
          "internalType": "address",
          "name": "tokenAddress",
          "type": "address"
        }
      ],
      "name": "TokenRegistered",
      "type": "event"
    },
    {
      "anonymous": false,
      "inputs": [
        {
          "indexed": true,
          "internalType": "address",
          "name": "token",
          "type": "address"
        },
        {
          "indexed": true,
          "internalType": "address",
          "name": "to",
          "type": "address"
        },
        {
          "indexed": false,
          "internalType": "uint256",
          "name": "amount",
          "type": "uint256"
        }
      ],
      "name": "TokenTransfer",
      "type": "event"
    },
    {
      "anonymous": false,
      "inputs": [
        {
          "indexed": true,
          "internalType": "address",
          "name": "_beneficiary",
          "type": "address"
        },
        {
          "indexed": true,
          "internalType": "address",
          "name": "_tokenAddress",
          "type": "address"
        },
        {
          "indexed": false,
          "internalType": "uint256",
          "name": "_amount",
          "type": "uint256"
        }
      ],
      "name": "TransferProcessed",
      "type": "event"
    },
    {
      "inputs": [],
      "name": "IID_RAHAT_PROJECT",
      "outputs": [
        {
          "internalType": "bytes4",
          "name": "",
          "type": "bytes4"
        }
      ],
      "stateMutability": "view",
      "type": "function"
    },
    {
      "inputs": [],
      "name": "RahatCommunity",
      "outputs": [
        {
          "internalType": "contract IRahatCommunity",
          "name": "",
          "type": "address"
        }
      ],
      "stateMutability": "view",
      "type": "function"
    },
    {
      "inputs": [
        {
          "internalType": "address",
          "name": "_from",
          "type": "address"
        },
        {
          "internalType": "address",
          "name": "_tokenAddress",
          "type": "address"
        },
        {
          "internalType": "uint256",
          "name": "_amount",
          "type": "uint256"
        }
      ],
      "name": "acceptToken",
      "outputs": [],
      "stateMutability": "nonpayable",
      "type": "function"
    },
    {
      "inputs": [
        {
          "internalType": "address",
          "name": "_beneficiary",
          "type": "address"
        }
      ],
      "name": "addBeneficiary",
      "outputs": [],
      "stateMutability": "nonpayable",
      "type": "function"
    },
    {
      "inputs": [],
      "name": "beneficiaryCount",
      "outputs": [
        {
          "internalType": "uint256",
          "name": "",
          "type": "uint256"
        }
      ],
      "stateMutability": "view",
      "type": "function"
    },
    {
      "inputs": [],
      "name": "community",
      "outputs": [
        {
          "internalType": "address",
          "name": "",
          "type": "address"
        }
      ],
      "stateMutability": "view",
      "type": "function"
    },
    {
      "inputs": [
        {
          "internalType": "address",
          "name": "_address",
          "type": "address"
        }
      ],
      "name": "isBeneficiary",
      "outputs": [
        {
          "internalType": "bool",
          "name": "",
          "type": "bool"
        }
      ],
      "stateMutability": "view",
      "type": "function"
    },
    {
      "inputs": [
        {
          "internalType": "address",
          "name": "",
          "type": "address"
        }
      ],
      "name": "isDonor",
      "outputs": [
        {
          "internalType": "bool",
          "name": "",
          "type": "bool"
        }
      ],
      "stateMutability": "view",
      "type": "function"
    },
    {
      "inputs": [
        {
          "internalType": "bytes[]",
          "name": "data",
          "type": "bytes[]"
        }
      ],
      "name": "multicall",
      "outputs": [
        {
          "internalType": "bytes[]",
          "name": "results",
          "type": "bytes[]"
        }
      ],
      "stateMutability": "nonpayable",
      "type": "function"
    },
    {
      "inputs": [],
      "name": "name",
      "outputs": [
        {
          "internalType": "string",
          "name": "",
          "type": "string"
        }
      ],
      "stateMutability": "view",
      "type": "function"
    },
    {
      "inputs": [
        {
          "internalType": "address",
          "name": "_beneficiary",
          "type": "address"
        },
        {
          "internalType": "address",
          "name": "_tokenAddress",
          "type": "address"
        },
        {
          "internalType": "uint256",
          "name": "_amount",
          "type": "uint256"
        }
      ],
      "name": "processTransferToBeneficiary",
      "outputs": [],
      "stateMutability": "nonpayable",
      "type": "function"
    },
    {
      "inputs": [
        {
          "internalType": "address",
          "name": "_beneficiary",
          "type": "address"
        }
      ],
      "name": "removeBeneficiary",
      "outputs": [],
      "stateMutability": "nonpayable",
      "type": "function"
    },
    {
      "inputs": [
        {
          "internalType": "bytes4",
          "name": "interfaceId",
          "type": "bytes4"
        }
      ],
      "name": "supportsInterface",
      "outputs": [
        {
          "internalType": "bool",
          "name": "",
          "type": "bool"
        }
      ],
      "stateMutability": "view",
      "type": "function"
    },
    {
      "inputs": [
        {
          "internalType": "address",
          "name": "_tokenAddress",
          "type": "address"
        }
      ],
      "name": "tokenBudget",
      "outputs": [
        {
          "internalType": "uint256",
          "name": "",
          "type": "uint256"
        }
      ],
      "stateMutability": "view",
      "type": "function"
    },
    {
      "inputs": [
        {
          "internalType": "address",
          "name": "_tokenAddress",
          "type": "address"
        }
      ],
      "name": "withdrawToken",
      "outputs": [],
      "stateMutability": "nonpayable",
      "type": "function"
    }
  ],
  "bytecode": "0x60806040523480156200001157600080fd5b5060405162001845380380620018458339810160408190526200003491620000f4565b818160036200004483826200026b565b50600480546001600160a01b0319166001600160a01b0392909216918217815560405163521a58d360e11b8152309181019190915290915063a434b1a690602401600060405180830381600087803b158015620000a057600080fd5b505af1158015620000b5573d6000803e3d6000fd5b50505050505062000337565b634e487b7160e01b600052604160045260246000fd5b80516001600160a01b0381168114620000ef57600080fd5b919050565b600080604083850312156200010857600080fd5b82516001600160401b03808211156200012057600080fd5b818501915085601f8301126200013557600080fd5b8151818111156200014a576200014a620000c1565b604051601f8201601f19908116603f01168101908382118183101715620001755762000175620000c1565b816040528281526020935088848487010111156200019257600080fd5b600091505b82821015620001b6578482018401518183018501529083019062000197565b6000848483010152809650505050620001d1818601620000d7565b925050509250929050565b600181811c90821680620001f157607f821691505b6020821081036200021257634e487b7160e01b600052602260045260246000fd5b50919050565b601f8211156200026657600081815260208120601f850160051c81016020861015620002415750805b601f850160051c820191505b8181101562000262578281556001016200024d565b5050505b505050565b81516001600160401b03811115620002875762000287620000c1565b6200029f81620002988454620001dc565b8462000218565b602080601f831160018114620002d75760008415620002be5750858301515b600019600386901b1c1916600185901b17855562000262565b600085815260208120601f198616915b828110156200030857888601518255948401946001909101908401620002e7565b5085821015620003275787850151600019600388901b60f8161c191681555b5050505050600190811b01905550565b6114fe80620003476000396000f3fe608060405234801561001057600080fd5b50600436106100f55760003560e01c80635aa32927116100975780639d19b226116100665780639d19b22614610234578063ac9650d814610247578063dc1fb5a514610267578063eb681e621461027857600080fd5b80635aa32927146101cd5780636a4277f4146101e0578063734b2a7c1461020b578063894760691461022157600080fd5b80634fe21571116100d35780634fe215711461016b5780635704479d146101925780635926651d146101a757806359633a1c146101ba57600080fd5b806301ffc9a7146100fa57806306fdde03146101335780632bc3d7aa14610148575b600080fd5b61011e610108366004611125565b6001600160e01b03191663df9db29f60e01b1490565b60405190151581526020015b60405180910390f35b61013b6102a1565b60405161012a919061119f565b61011e6101563660046111ce565b60076020526000908152604090205460ff1681565b61017963df9db29f60e01b81565b6040516001600160e01b0319909116815260200161012a565b6101a56101a03660046111e9565b61032f565b005b6101a56101b53660046111ce565b6103f4565b6101a56101c83660046111ce565b610489565b6101a56101db3660046111e9565b61051b565b6004546101f3906001600160a01b031681565b6040516001600160a01b03909116815260200161012a565b61021361079d565b60405190815260200161012a565b6101a561022f3660046111ce565b6107ae565b61011e6102423660046111ce565b6108b2565b61025a610255366004611225565b6108c5565b60405161012a919061129a565b6004546001600160a01b03166101f3565b6102136102863660046111ce565b6001600160a01b031660009081526001602052604090205490565b600380546102ae906112fc565b80601f01602080910402602001604051908101604052809291908181526020018280546102da906112fc565b80156103275780601f106102fc57610100808354040283529160200191610327565b820191906000526020600020905b81548152906001019060200180831161030a57829003601f168201915b505050505081565b60048054604051630935e01b60e21b815233928101929092526001600160a01b0316906324d7806c90602401602060405180830381865afa158015610378573d6000803e3d6000fd5b505050506040513d601f19601f8201168201806040525081019061039c9190611336565b6103c15760405162461bcd60e51b81526004016103b890611358565b60405180910390fd5b6001600160a01b0383166000908152600760205260409020805460ff191660011790556103ef8284836109b8565b505050565b60048054604051630935e01b60e21b815233928101929092526001600160a01b0316906324d7806c90602401602060405180830381865afa15801561043d573d6000803e3d6000fd5b505050506040513d601f19601f820116820180604052508101906104619190611336565b61047d5760405162461bcd60e51b81526004016103b890611358565b61048681610b30565b50565b60048054604051630935e01b60e21b815233928101929092526001600160a01b0316906324d7806c90602401602060405180830381865afa1580156104d2573d6000803e3d6000fd5b505050506040513d601f19601f820116820180604052508101906104f69190611336565b6105125760405162461bcd60e51b81526004016103b890611358565b61048681610c2b565b60048054604051630935e01b60e21b815233928101929092526001600160a01b0316906324d7806c90602401602060405180830381865afa158015610564573d6000803e3d6000fd5b505050506040513d601f19601f820116820180604052508101906105889190611336565b6105a45760405162461bcd60e51b81526004016103b890611358565b6105ad836108b2565b6105ed5760405162461bcd60e51b81526020600482015260116024820152704e6f7420612042656e656669636961727960781b60448201526064016103b8565b6040516370a0823160e01b815230600482015281906001600160a01b038416906370a0823190602401602060405180830381865afa158015610633573d6000803e3d6000fd5b505050506040513d601f19601f820116820180604052508101906106579190611387565b101561069a5760405162461bcd60e51b81526020600482015260126024820152714e6f7420656e6f7567682062616c616e636560701b60448201526064016103b8565b60405163a9059cbb60e01b81526001600160a01b0384811660048301526024820183905283169063a9059cbb906044016020604051808303816000875af11580156106e9573d6000803e3d6000fd5b505050506040513d601f19601f8201168201806040525081019061070d9190611336565b61074b5760405162461bcd60e51b815260206004820152600f60248201526e151c985b9cd9995c8811985a5b1959608a1b60448201526064016103b8565b816001600160a01b0316836001600160a01b03167fd8f9762f05f3af2ac775e4ddd9546363bd1cd32c9434b5b150185a1a28e3625e8360405161079091815260200190565b60405180910390a3505050565b60006107a96005610c7b565b905090565b60048054604051630935e01b60e21b815233928101929092526001600160a01b0316906324d7806c90602401602060405180830381865afa1580156107f7573d6000803e3d6000fd5b505050506040513d601f19601f8201168201806040525081019061081b9190611336565b6108375760405162461bcd60e51b81526004016103b890611358565b6040516370a0823160e01b81523060048201526000906001600160a01b038316906370a0823190602401602060405180830381865afa15801561087e573d6000803e3d6000fd5b505050506040513d601f19601f820116820180604052508101906108a29190611387565b90506108ae8282610c85565b5050565b60006108bf600583610d52565b92915050565b6040805160008152602081019091526060908267ffffffffffffffff8111156108f0576108f06113c9565b60405190808252806020026020018201604052801561092357816020015b606081526020019060019003908161090e5790505b50915060005b838110156109b05761098030868684818110610947576109476113df565b905060200281019061095991906113f5565b8560405160200161096c93929190611443565b604051602081830303815290604052610d77565b838281518110610992576109926113df565b602002602001018190525080806109a89061146a565b915050610929565b505092915050565b6004805460405162b9028160e31b815230928101929092526001600160a01b0316906305c8140890602401602060405180830381865afa158015610a00573d6000803e3d6000fd5b505050506040513d601f19601f82011682018060405250810190610a249190611336565b610a675760405162461bcd60e51b81526020600482015260146024820152731c1c9bda9958dd081b9bdd08185c1c1c9bdd995960621b60448201526064016103b8565b6040516323b872dd60e01b81526001600160a01b038381166004830152306024830152604482018390528416906323b872dd906064016020604051808303816000875af1158015610abc573d6000803e3d6000fd5b505050506040513d601f19601f82011682018060405250810190610ae09190611336565b50610aeb8382610ded565b816001600160a01b0316836001600160a01b03167fa83965f0e7c5e026e57c9ba2dd91e4ebcca352f2d514498c1e9ed23ba65386008360405161079091815260200190565b60048054604051634e8cd91360e11b81526001600160a01b0384811693820193909352911690639d19b22690602401602060405180830381865afa158015610b7c573d6000803e3d6000fd5b505050506040513d601f19601f82011682018060405250810190610ba09190611336565b610bdc5760405162461bcd60e51b815260206004820152600d60248201526c3737ba103b30b634b2103132b760991b60448201526064016103b8565b610be7600582610d52565b610c20576040516001600160a01b038216907fc3e089fc6227e049d0e41c3d7a383d57efe69c1955c5752f7e5a9b5f1f11302090600090a25b6108ae600582610ec5565b610c36600582610d52565b15610c70576040516001600160a01b038216907f72977dad29432f655f11c2f0e72ef5124bb9ade7a512fb7a43a9f504df22342890600090a25b6108ae600582610eda565b60006108bf825490565b6004805460405163a9059cbb60e01b81526001600160a01b03918216928101929092526024820183905283169063a9059cbb906044016020604051808303816000875af1158015610cda573d6000803e3d6000fd5b505050506040513d601f19601f82011682018060405250810190610cfe9190611336565b50610d098282610eef565b6004546040518281526001600160a01b03918216918416907fd0ed88a3f042c6bbb1e3ea406079b5f2b4b198afccaa535d837f4c63abbc4de69060200160405180910390a35050565b6001600160a01b038116600090815260018301602052604081205415155b9392505050565b6060600080846001600160a01b031684604051610d949190611483565b600060405180830381855af49150503d8060008114610dcf576040519150601f19603f3d011682016040523d82523d6000602084013e610dd4565b606091505b5091509150610de4858383610f5e565b95945050505050565b6001600160a01b03821660009081526001602052604081208054839290610e1590849061149f565b90915550506040518181526001600160a01b038316907fe49f42d07d8046279c22af872fe6bc5678c4dfc38ace0f43b8e8d5a03d0e8f109060200160405180910390a26001600160a01b03821660009081526002602052604090205460ff166108ae576001600160a01b038216600081815260026020526040808220805460ff19166001179055517f158412daecdc1456d01568828bcdb18464cc7f1ce0215ddbc3f3cfede9d1e63d9190a25050565b6000610d70836001600160a01b038416610fba565b6000610d70836001600160a01b038416611009565b6001600160a01b03821660009081526001602052604081208054839290610f179084906113b6565b90915550506040518181526001600160a01b038316907f854a0a098d6cafcdbf8cc91b503d29e40e31095273eec189216a6ed881543eb49060200160405180910390a25050565b606082610f7357610f6e826110fc565b610d70565b8151158015610f8a57506001600160a01b0384163b155b15610fb357604051639996b31560e01b81526001600160a01b03851660048201526024016103b8565b5092915050565b6000818152600183016020526040812054611001575081546001818101845560008481526020808220909301849055845484825282860190935260409020919091556108bf565b5060006108bf565b600081815260018301602052604081205480156110f257600061102d6001836113b6565b8554909150600090611041906001906113b6565b90508082146110a6576000866000018281548110611061576110616113df565b9060005260206000200154905080876000018481548110611084576110846113df565b6000918252602080832090910192909255918252600188019052604090208390555b85548690806110b7576110b76114b2565b6001900381819060005260206000200160009055905585600101600086815260200190815260200160002060009055600193505050506108bf565b60009150506108bf565b80511561110c5780518082602001fd5b604051630a12f52160e11b815260040160405180910390fd5b60006020828403121561113757600080fd5b81356001600160e01b031981168114610d7057600080fd5b60005b8381101561116a578181015183820152602001611152565b50506000910152565b6000815180845261118b81602086016020860161114f565b601f01601f19169290920160200192915050565b602081526000610d706020830184611173565b80356001600160a01b03811681146111c957600080fd5b919050565b6000602082840312156111e057600080fd5b610d70826111b2565b6000806000606084860312156111fe57600080fd5b611207846111b2565b9250611215602085016111b2565b9150604084013590509250925092565b6000806020838503121561123857600080fd5b823567ffffffffffffffff8082111561125057600080fd5b818501915085601f83011261126457600080fd5b81358181111561127357600080fd5b8660208260051b850101111561128857600080fd5b60209290920196919550909350505050565b6000602080830181845280855180835260408601915060408160051b870101925083870160005b828110156112ef57603f198886030184526112dd858351611173565b945092850192908501906001016112c1565b5092979650505050505050565b600181811c9082168061131057607f821691505b60208210810361133057634e487b7160e01b600052602260045260246000fd5b50919050565b60006020828403121561134857600080fd5b81518015158114610d7057600080fd5b6020808252601590820152743737ba10309031b7b6b6bab734ba3c9030b236b4b760591b604082015260600190565b60006020828403121561139957600080fd5b5051919050565b634e487b7160e01b600052601160045260246000fd5b818103818111156108bf576108bf6113a0565b634e487b7160e01b600052604160045260246000fd5b634e487b7160e01b600052603260045260246000fd5b6000808335601e1984360301811261140c57600080fd5b83018035915067ffffffffffffffff82111561142757600080fd5b60200191503681900382131561143c57600080fd5b9250929050565b82848237600083820160008152835161146081836020880161114f565b0195945050505050565b60006001820161147c5761147c6113a0565b5060010190565b6000825161149581846020870161114f565b9190910192915050565b808201808211156108bf576108bf6113a0565b634e487b7160e01b600052603160045260246000fdfea2646970667358221220486fb68ef51eff1f61a59848d7491d3aefdfb358ce9198a0336a89b70ea4ce6a64736f6c63430008140033",
  "linkReferences": {},
  "deployedLinkReferences": {}
}