{
  "_format": "hh-sol-artifact-1",
  "contractName": "RahatToken",
  "sourceName": "src/contracts/RahatToken.sol",
  "abi": [
    {
      "inputs": [
        {
          "internalType": "string",
          "name": "_name",
          "type": "string"
        },
        {
          "internalType": "string",
          "name": "_symbol",
          "type": "string"
        },
        {
          "internalType": "address",
          "name": "_admin",
          "type": "address"
        },
        {
          "internalType": "uint8",
          "name": "_decimals",
          "type": "uint8"
        }
      ],
      "stateMutability": "nonpayable",
      "type": "constructor"
    },
    {
      "inputs": [
        {
          "internalType": "address",
          "name": "target",
          "type": "address"
        }
      ],
      "name": "AddressEmptyCode",
      "type": "error"
    },
    {
      "inputs": [
        {
          "internalType": "address",
          "name": "spender",
          "type": "address"
        },
        {
          "internalType": "uint256",
          "name": "allowance",
          "type": "uint256"
        },
        {
          "internalType": "uint256",
          "name": "needed",
          "type": "uint256"
        }
      ],
      "name": "ERC20InsufficientAllowance",
      "type": "error"
    },
    {
      "inputs": [
        {
          "internalType": "address",
          "name": "sender",
          "type": "address"
        },
        {
          "internalType": "uint256",
          "name": "balance",
          "type": "uint256"
        },
        {
          "internalType": "uint256",
          "name": "needed",
          "type": "uint256"
        }
      ],
      "name": "ERC20InsufficientBalance",
      "type": "error"
    },
    {
      "inputs": [
        {
          "internalType": "address",
          "name": "approver",
          "type": "address"
        }
      ],
      "name": "ERC20InvalidApprover",
      "type": "error"
    },
    {
      "inputs": [
        {
          "internalType": "address",
          "name": "receiver",
          "type": "address"
        }
      ],
      "name": "ERC20InvalidReceiver",
      "type": "error"
    },
    {
      "inputs": [
        {
          "internalType": "address",
          "name": "sender",
          "type": "address"
        }
      ],
      "name": "ERC20InvalidSender",
      "type": "error"
    },
    {
      "inputs": [
        {
          "internalType": "address",
          "name": "spender",
          "type": "address"
        }
      ],
      "name": "ERC20InvalidSpender",
      "type": "error"
    },
    {
      "inputs": [],
      "name": "FailedInnerCall",
      "type": "error"
    },
    {
      "anonymous": false,
      "inputs": [
        {
          "indexed": true,
          "internalType": "address",
          "name": "owner",
          "type": "address"
        },
        {
          "indexed": true,
          "internalType": "address",
          "name": "spender",
          "type": "address"
        },
        {
          "indexed": false,
          "internalType": "uint256",
          "name": "value",
          "type": "uint256"
        }
      ],
      "name": "Approval",
      "type": "event"
    },
    {
      "anonymous": false,
      "inputs": [
        {
          "indexed": true,
          "internalType": "address",
          "name": "",
          "type": "address"
        }
      ],
      "name": "OwnerAdded",
      "type": "event"
    },
    {
      "anonymous": false,
      "inputs": [
        {
          "indexed": true,
          "internalType": "address",
          "name": "",
          "type": "address"
        }
      ],
      "name": "OwnerRemoved",
      "type": "event"
    },
    {
      "anonymous": false,
      "inputs": [
        {
          "indexed": true,
          "internalType": "address",
          "name": "from",
          "type": "address"
        },
        {
          "indexed": true,
          "internalType": "address",
          "name": "to",
          "type": "address"
        },
        {
          "indexed": false,
          "internalType": "uint256",
          "name": "value",
          "type": "uint256"
        }
      ],
      "name": "Transfer",
      "type": "event"
    },
    {
      "inputs": [
        {
          "internalType": "address",
          "name": "_address",
          "type": "address"
        }
      ],
      "name": "addOwner",
      "outputs": [
        {
          "internalType": "bool",
          "name": "success",
          "type": "bool"
        }
      ],
      "stateMutability": "nonpayable",
      "type": "function"
    },
    {
      "inputs": [
        {
          "internalType": "address",
          "name": "owner",
          "type": "address"
        },
        {
          "internalType": "address",
          "name": "spender",
          "type": "address"
        }
      ],
      "name": "allowance",
      "outputs": [
        {
          "internalType": "uint256",
          "name": "",
          "type": "uint256"
        }
      ],
      "stateMutability": "view",
      "type": "function"
    },
    {
      "inputs": [
        {
          "internalType": "address",
          "name": "spender",
          "type": "address"
        },
        {
          "internalType": "uint256",
          "name": "value",
          "type": "uint256"
        }
      ],
      "name": "approve",
      "outputs": [
        {
          "internalType": "bool",
          "name": "",
          "type": "bool"
        }
      ],
      "stateMutability": "nonpayable",
      "type": "function"
    },
    {
      "inputs": [
        {
          "internalType": "address",
          "name": "account",
          "type": "address"
        }
      ],
      "name": "balanceOf",
      "outputs": [
        {
          "internalType": "uint256",
          "name": "",
          "type": "uint256"
        }
      ],
      "stateMutability": "view",
      "type": "function"
    },
    {
      "inputs": [
        {
          "internalType": "uint256",
          "name": "value",
          "type": "uint256"
        }
      ],
      "name": "burn",
      "outputs": [],
      "stateMutability": "nonpayable",
      "type": "function"
    },
    {
      "inputs": [
        {
          "internalType": "address",
          "name": "account",
          "type": "address"
        },
        {
          "internalType": "uint256",
          "name": "value",
          "type": "uint256"
        }
      ],
      "name": "burnFrom",
      "outputs": [],
      "stateMutability": "nonpayable",
      "type": "function"
    },
    {
      "inputs": [],
      "name": "decimals",
      "outputs": [
        {
          "internalType": "uint8",
          "name": "",
          "type": "uint8"
        }
      ],
      "stateMutability": "view",
      "type": "function"
    },
    {
      "inputs": [],
      "name": "getSender",
      "outputs": [
        {
          "internalType": "bool",
          "name": "",
          "type": "bool"
        }
      ],
      "stateMutability": "view",
      "type": "function"
    },
    {
      "inputs": [
        {
          "internalType": "address",
          "name": "_address",
          "type": "address"
        }
      ],
      "name": "isOwner",
      "outputs": [
        {
          "internalType": "bool",
          "name": "",
          "type": "bool"
        }
      ],
      "stateMutability": "view",
      "type": "function"
    },
    {
      "inputs": [],
      "name": "listOwners",
      "outputs": [
        {
          "internalType": "address[]",
          "name": "",
          "type": "address[]"
        }
      ],
      "stateMutability": "view",
      "type": "function"
    },
    {
      "inputs": [
        {
          "internalType": "address",
          "name": "_address",
          "type": "address"
        },
        {
          "internalType": "uint256",
          "name": "_amount",
          "type": "uint256"
        }
      ],
      "name": "mint",
      "outputs": [
        {
          "internalType": "uint256",
          "name": "",
          "type": "uint256"
        }
      ],
      "stateMutability": "nonpayable",
      "type": "function"
    },
    {
      "inputs": [
        {
          "internalType": "bytes[]",
          "name": "data",
          "type": "bytes[]"
        }
      ],
      "name": "multicall",
      "outputs": [
        {
          "internalType": "bytes[]",
          "name": "results",
          "type": "bytes[]"
        }
      ],
      "stateMutability": "nonpayable",
      "type": "function"
    },
    {
      "inputs": [],
      "name": "name",
      "outputs": [
        {
          "internalType": "string",
          "name": "",
          "type": "string"
        }
      ],
      "stateMutability": "view",
      "type": "function"
    },
    {
      "inputs": [],
      "name": "ownerCount",
      "outputs": [
        {
          "internalType": "uint256",
          "name": "",
          "type": "uint256"
        }
      ],
      "stateMutability": "view",
      "type": "function"
    },
    {
      "inputs": [
        {
          "internalType": "address",
          "name": "_address",
          "type": "address"
        }
      ],
      "name": "removeOwner",
      "outputs": [
        {
          "internalType": "bool",
          "name": "success",
          "type": "bool"
        }
      ],
      "stateMutability": "nonpayable",
      "type": "function"
    },
    {
      "inputs": [],
      "name": "symbol",
      "outputs": [
        {
          "internalType": "string",
          "name": "",
          "type": "string"
        }
      ],
      "stateMutability": "view",
      "type": "function"
    },
    {
      "inputs": [],
      "name": "totalSupply",
      "outputs": [
        {
          "internalType": "uint256",
          "name": "",
          "type": "uint256"
        }
      ],
      "stateMutability": "view",
      "type": "function"
    },
    {
      "inputs": [
        {
          "internalType": "address",
          "name": "to",
          "type": "address"
        },
        {
          "internalType": "uint256",
          "name": "value",
          "type": "uint256"
        }
      ],
      "name": "transfer",
      "outputs": [
        {
          "internalType": "bool",
          "name": "",
          "type": "bool"
        }
      ],
      "stateMutability": "nonpayable",
      "type": "function"
    },
    {
      "inputs": [
        {
          "internalType": "address",
          "name": "from",
          "type": "address"
        },
        {
          "internalType": "address",
          "name": "to",
          "type": "address"
        },
        {
          "internalType": "uint256",
          "name": "value",
          "type": "uint256"
        }
      ],
      "name": "transferFrom",
      "outputs": [
        {
          "internalType": "bool",
          "name": "",
          "type": "bool"
        }
      ],
      "stateMutability": "nonpayable",
      "type": "function"
    }
  ],
  "bytecode": "0x608060405260326000553480156200001657600080fd5b50604051620015b2380380620015b283398101604081905262000039916200026f565b83836006620000498382620003a4565b506007620000588282620003a4565b5050506200006c826200008b60201b60201c565b506008805460ff191660ff929092169190911790555062000470915050565b600080546200009b600162000129565b1115620000e05760405162461bcd60e51b815260206004820152600f60248201526e1bdddb995c9cc8195e18d959591959608a1b604482015260640160405180910390fd5b620000ed6001836200013a565b6040519091506001600160a01b038316907f994a936646fe87ffe4f1e469d3d6aa417d6b855598397f323de5b449f765f0c390600090a2919050565b600062000134825490565b92915050565b600062000151836001600160a01b03841662000158565b9392505050565b6000818152600183016020526040812054620001a15750815460018181018455600084815260208082209093018490558454848252828601909352604090209190915562000134565b50600062000134565b634e487b7160e01b600052604160045260246000fd5b600082601f830112620001d257600080fd5b81516001600160401b0380821115620001ef57620001ef620001aa565b604051601f8301601f19908116603f011681019082821181831017156200021a576200021a620001aa565b816040528381526020925086838588010111156200023757600080fd5b600091505b838210156200025b57858201830151818301840152908201906200023c565b600093810190920192909252949350505050565b600080600080608085870312156200028657600080fd5b84516001600160401b03808211156200029e57600080fd5b620002ac88838901620001c0565b95506020870151915080821115620002c357600080fd5b50620002d287828801620001c0565b604087015190945090506001600160a01b0381168114620002f257600080fd5b606086015190925060ff811681146200030a57600080fd5b939692955090935050565b600181811c908216806200032a57607f821691505b6020821081036200034b57634e487b7160e01b600052602260045260246000fd5b50919050565b601f8211156200039f57600081815260208120601f850160051c810160208610156200037a5750805b601f850160051c820191505b818110156200039b5782815560010162000386565b5050505b505050565b81516001600160401b03811115620003c057620003c0620001aa565b620003d881620003d1845462000315565b8462000351565b602080601f831160018114620004105760008415620003f75750858301515b600019600386901b1c1916600185901b1785556200039b565b600085815260208120601f198616915b82811015620004415788860151825594840194600190910190840162000420565b5085821015620004605787850151600019600388901b60f8161c191681555b5050505050600190811b01905550565b61113280620004806000396000f3fe608060405234801561001057600080fd5b50600436106101215760003560e01c806342966c68116100ad57806395d89b411161007157806395d89b4114610252578063a9059cbb1461025a578063ac9650d81461026d578063dd62ed3e1461028d578063ed60c0fc146102c657600080fd5b806342966c68146101e65780635e01eb5a146101fb5780637065cb481461020357806370a082311461021657806379cc67901461023f57600080fd5b806318160ddd116100f457806318160ddd1461019057806323b872dd146101985780632f54bf6e146101ab578063313ce567146101be57806340c10f19146101d357600080fd5b806306fdde0314610126578063095ea7b3146101445780630db0262214610167578063173825d91461017d575b600080fd5b61012e6102db565b60405161013b9190610d3e565b60405180910390f35b610157610152366004610d68565b61036d565b604051901515815260200161013b565b61016f610387565b60405190815260200161013b565b61015761018b366004610d92565b610398565b60055461016f565b6101576101a6366004610dad565b610411565b6101576101b9366004610d92565b610437565b60085460405160ff909116815260200161013b565b61016f6101e1366004610d68565b610444565b6101f96101f4366004610de9565b61047d565b005b61015761048a565b610157610211366004610d92565b610497565b61016f610224366004610d92565b6001600160a01b031660009081526003602052604090205490565b6101f961024d366004610d68565b6104ce565b61012e6104e7565b610157610268366004610d68565b6104f6565b61028061027b366004610e02565b610504565b60405161013b9190610e77565b61016f61029b366004610ed9565b6001600160a01b03918216600090815260046020908152604080832093909416825291909152205490565b6102ce6105f7565b60405161013b9190610f0c565b6060600680546102ea90610f59565b80601f016020809104026020016040519081016040528092919081815260200182805461031690610f59565b80156103635780601f1061033857610100808354040283529160200191610363565b820191906000526020600020905b81548152906001019060200180831161034657829003601f168201915b5050505050905090565b60003361037b818585610603565b60019150505b92915050565b60006103936001610615565b905090565b60006103a560013361061f565b6103ca5760405162461bcd60e51b81526004016103c190610f8d565b60405180910390fd5b6103d5600183610641565b6040519091506001600160a01b038316907f58619076adf5bb0943d100ef88d52d7c3fd691b19d3a9071b555b651fbf418da90600090a2919050565b60003361041f858285610656565b61042a8585856106d4565b60019150505b9392505050565b600061038160018361061f565b600061045160013361061f565b61046d5760405162461bcd60e51b81526004016103c190610f8d565b6104778383610733565b50919050565b6104873382610769565b50565b600061039360013361061f565b60006104a460013361061f565b6104c05760405162461bcd60e51b81526004016103c190610f8d565b6103818261079f565b919050565b6104d9823383610656565b6104e38282610769565b5050565b6060600780546102ea90610f59565b60003361037b8185856106d4565b6040805160008152602081019091526060908267ffffffffffffffff81111561052f5761052f610ffd565b60405190808252806020026020018201604052801561056257816020015b606081526020019060019003908161054d5790505b50915060005b838110156105ef576105bf3086868481811061058657610586611013565b90506020028101906105989190611029565b856040516020016105ab93929190611077565b604051602081830303815290604052610834565b8382815181106105d1576105d1611013565b602002602001018190525080806105e79061109e565b915050610568565b505092915050565b606061039360016108aa565b61061083838360016108b7565b505050565b6000610381825490565b6001600160a01b03811660009081526001830160205260408120541515610430565b6000610430836001600160a01b03841661098c565b6001600160a01b0383811660009081526004602090815260408083209386168352929052205460001981146106ce57818110156106bf57604051637dc7a0d960e11b81526001600160a01b038416600482015260248101829052604481018390526064016103c1565b6106ce848484840360006108b7565b50505050565b6001600160a01b0383166106fe57604051634b637e8f60e11b8152600060048201526024016103c1565b6001600160a01b0382166107285760405163ec442f0560e01b8152600060048201526024016103c1565b610610838383610a7f565b6001600160a01b03821661075d5760405163ec442f0560e01b8152600060048201526024016103c1565b6104e360008383610a7f565b6001600160a01b03821661079357604051634b637e8f60e11b8152600060048201526024016103c1565b6104e382600083610a7f565b600080546107ad6001610615565b11156107ed5760405162461bcd60e51b815260206004820152600f60248201526e1bdddb995c9cc8195e18d959591959608a1b60448201526064016103c1565b6107f8600183610ba9565b6040519091506001600160a01b038316907f994a936646fe87ffe4f1e469d3d6aa417d6b855598397f323de5b449f765f0c390600090a2919050565b6060600080846001600160a01b03168460405161085191906110b7565b600060405180830381855af49150503d806000811461088c576040519150601f19603f3d011682016040523d82523d6000602084013e610891565b606091505b50915091506108a1858383610bbe565b95945050505050565b6060600061043083610c1a565b6001600160a01b0384166108e15760405163e602df0560e01b8152600060048201526024016103c1565b6001600160a01b03831661090b57604051634a1406b160e11b8152600060048201526024016103c1565b6001600160a01b03808516600090815260046020908152604080832093871683529290522082905580156106ce57826001600160a01b0316846001600160a01b03167f8c5be1e5ebec7d5bd14f71427d1e84f3dd0314c0f7b2291e5b200ac8c7c3b9258460405161097e91815260200190565b60405180910390a350505050565b60008181526001830160205260408120548015610a755760006109b0600183610fea565b85549091506000906109c490600190610fea565b9050808214610a295760008660000182815481106109e4576109e4611013565b9060005260206000200154905080876000018481548110610a0757610a07611013565b6000918252602080832090910192909255918252600188019052604090208390555b8554869080610a3a57610a3a6110d3565b600190038181906000526020600020016000905590558560010160008681526020019081526020016000206000905560019350505050610381565b6000915050610381565b6001600160a01b038316610aaa578060056000828254610a9f91906110e9565b90915550610b1c9050565b6001600160a01b03831660009081526003602052604090205481811015610afd5760405163391434e360e21b81526001600160a01b038516600482015260248101829052604481018390526064016103c1565b6001600160a01b03841660009081526003602052604090209082900390555b6001600160a01b038216610b3857600580548290039055610b57565b6001600160a01b03821660009081526003602052604090208054820190555b816001600160a01b0316836001600160a01b03167fddf252ad1be2c89b69c2b068fc378daa952ba7f163c4a11628f55a4df523b3ef83604051610b9c91815260200190565b60405180910390a3505050565b6000610430836001600160a01b038416610c76565b606082610bd357610bce82610cc5565b610430565b8151158015610bea57506001600160a01b0384163b155b15610c1357604051639996b31560e01b81526001600160a01b03851660048201526024016103c1565b5080610430565b606081600001805480602002602001604051908101604052809291908181526020018280548015610c6a57602002820191906000526020600020905b815481526020019060010190808311610c56575b50505050509050919050565b6000818152600183016020526040812054610cbd57508154600181810184556000848152602080822090930184905584548482528286019093526040902091909155610381565b506000610381565b805115610cd55780518082602001fd5b604051630a12f52160e11b815260040160405180910390fd5b60005b83811015610d09578181015183820152602001610cf1565b50506000910152565b60008151808452610d2a816020860160208601610cee565b601f01601f19169290920160200192915050565b6020815260006104306020830184610d12565b80356001600160a01b03811681146104c957600080fd5b60008060408385031215610d7b57600080fd5b610d8483610d51565b946020939093013593505050565b600060208284031215610da457600080fd5b61043082610d51565b600080600060608486031215610dc257600080fd5b610dcb84610d51565b9250610dd960208501610d51565b9150604084013590509250925092565b600060208284031215610dfb57600080fd5b5035919050565b60008060208385031215610e1557600080fd5b823567ffffffffffffffff80821115610e2d57600080fd5b818501915085601f830112610e4157600080fd5b813581811115610e5057600080fd5b8660208260051b8501011115610e6557600080fd5b60209290920196919550909350505050565b6000602080830181845280855180835260408601915060408160051b870101925083870160005b82811015610ecc57603f19888603018452610eba858351610d12565b94509285019290850190600101610e9e565b5092979650505050505050565b60008060408385031215610eec57600080fd5b610ef583610d51565b9150610f0360208401610d51565b90509250929050565b6020808252825182820181905260009190848201906040850190845b81811015610f4d5783516001600160a01b031683529284019291840191600101610f28565b50909695505050505050565b600181811c90821680610f6d57607f821691505b60208210810361047757634e487b7160e01b600052602260045260246000fd5b60208082526027908201527f4f6e6c79206f776e65722063616e20657865637574652074686973207472616e60408201526639b0b1ba34b7b760c91b606082015260800190565b634e487b7160e01b600052601160045260246000fd5b8181038181111561038157610381610fd4565b634e487b7160e01b600052604160045260246000fd5b634e487b7160e01b600052603260045260246000fd5b6000808335601e1984360301811261104057600080fd5b83018035915067ffffffffffffffff82111561105b57600080fd5b60200191503681900382131561107057600080fd5b9250929050565b828482376000838201600081528351611094818360208801610cee565b0195945050505050565b6000600182016110b0576110b0610fd4565b5060010190565b600082516110c9818460208701610cee565b9190910192915050565b634e487b7160e01b600052603160045260246000fd5b8082018082111561038157610381610fd456fea26469706673582212204e1c95685e2605d6dc1bf44273e3c1580efaca9ae27b7fd5344c0db97fe03b9564736f6c63430008140033",
  "linkReferences": {},
  "deployedLinkReferences": {}
}