{
  "_format": "hh-sol-artifact-1",
  "contractName": "RahatDonor",
  "sourceName": "src/contracts/RahatDonor.sol",
  "abi": [
    {
      "inputs": [
        {
          "internalType": "address",
          "name": "_admin",
          "type": "address"
        }
      ],
      "stateMutability": "nonpayable",
      "type": "constructor"
    },
    {
      "inputs": [
        {
          "internalType": "address",
          "name": "target",
          "type": "address"
        }
      ],
      "name": "AddressEmptyCode",
      "type": "error"
    },
    {
      "inputs": [],
      "name": "FailedInnerCall",
      "type": "error"
    },
    {
      "anonymous": false,
      "inputs": [
        {
          "indexed": true,
          "internalType": "address",
          "name": "",
          "type": "address"
        }
      ],
      "name": "OwnerAdded",
      "type": "event"
    },
    {
      "anonymous": false,
      "inputs": [
        {
          "indexed": true,
          "internalType": "address",
          "name": "",
          "type": "address"
        }
      ],
      "name": "OwnerRemoved",
      "type": "event"
    },
    {
      "anonymous": false,
      "inputs": [
        {
          "indexed": true,
          "internalType": "address",
          "name": "tokenAddress",
          "type": "address"
        }
      ],
      "name": "TokenCreated",
      "type": "event"
    },
    {
      "anonymous": false,
      "inputs": [
        {
          "indexed": true,
          "internalType": "address",
          "name": "tokenAddress",
          "type": "address"
        },
        {
          "indexed": true,
          "internalType": "address",
          "name": "approveAddress",
          "type": "address"
        },
        {
          "indexed": false,
          "internalType": "uint256",
          "name": "amount",
          "type": "uint256"
        }
      ],
      "name": "TokenMintedAndApproved",
      "type": "event"
    },
    {
      "inputs": [],
      "name": "IID_RAHAT_DONOR",
      "outputs": [
        {
          "internalType": "bytes4",
          "name": "",
          "type": "bytes4"
        }
      ],
      "stateMutability": "view",
      "type": "function"
    },
    {
      "inputs": [
        {
          "internalType": "address",
          "name": "",
          "type": "address"
        }
      ],
      "name": "_registeredProject",
      "outputs": [
        {
          "internalType": "bool",
          "name": "",
          "type": "bool"
        }
      ],
      "stateMutability": "view",
      "type": "function"
    },
    {
      "inputs": [
        {
          "internalType": "address",
          "name": "_address",
          "type": "address"
        }
      ],
      "name": "addOwner",
      "outputs": [
        {
          "internalType": "bool",
          "name": "success",
          "type": "bool"
        }
      ],
      "stateMutability": "nonpayable",
      "type": "function"
    },
    {
      "inputs": [
        {
          "internalType": "address",
          "name": "_token",
          "type": "address"
        },
        {
          "internalType": "address",
          "name": "_ownerAddress",
          "type": "address"
        }
      ],
      "name": "addTokenOwner",
      "outputs": [],
      "stateMutability": "nonpayable",
      "type": "function"
    },
    {
      "inputs": [
        {
          "internalType": "address",
          "name": "_token",
          "type": "address"
        },
        {
          "internalType": "address",
          "name": "_spender",
          "type": "address"
        },
        {
          "internalType": "uint256",
          "name": "_amount",
          "type": "uint256"
        }
      ],
      "name": "approveToken",
      "outputs": [],
      "stateMutability": "nonpayable",
      "type": "function"
    },
    {
      "inputs": [
        {
          "internalType": "address",
          "name": "_token",
          "type": "address"
        },
        {
          "internalType": "address",
          "name": "_from",
          "type": "address"
        },
        {
          "internalType": "uint256",
          "name": "_amount",
          "type": "uint256"
        }
      ],
      "name": "claimToken",
      "outputs": [],
      "stateMutability": "nonpayable",
      "type": "function"
    },
    {
      "inputs": [
        {
          "internalType": "string",
          "name": "_name",
          "type": "string"
        },
        {
          "internalType": "string",
          "name": "_symbol",
          "type": "string"
        },
        {
          "internalType": "uint8",
          "name": "decimals",
          "type": "uint8"
        }
      ],
      "name": "createToken",
      "outputs": [
        {
          "internalType": "address",
          "name": "",
          "type": "address"
        }
      ],
      "stateMutability": "nonpayable",
      "type": "function"
    },
    {
      "inputs": [
        {
          "internalType": "address",
          "name": "_token",
          "type": "address"
        },
        {
          "internalType": "address",
          "name": "_from",
          "type": "address"
        }
      ],
      "name": "getAllowanceAndBalance",
      "outputs": [
        {
          "internalType": "uint256",
          "name": "allowance",
          "type": "uint256"
        },
        {
          "internalType": "uint256",
          "name": "balance",
          "type": "uint256"
        }
      ],
      "stateMutability": "view",
      "type": "function"
    },
    {
      "inputs": [
        {
          "internalType": "address",
          "name": "_token",
          "type": "address"
        },
        {
          "internalType": "address",
          "name": "_of",
          "type": "address"
        }
      ],
      "name": "getBalance",
      "outputs": [
        {
          "internalType": "uint256",
          "name": "balance",
          "type": "uint256"
        }
      ],
      "stateMutability": "view",
      "type": "function"
    },
    {
      "inputs": [],
      "name": "getSender",
      "outputs": [
        {
          "internalType": "bool",
          "name": "",
          "type": "bool"
        }
      ],
      "stateMutability": "view",
      "type": "function"
    },
    {
      "inputs": [
        {
          "internalType": "address",
          "name": "_address",
          "type": "address"
        }
      ],
      "name": "isOwner",
      "outputs": [
        {
          "internalType": "bool",
          "name": "",
          "type": "bool"
        }
      ],
      "stateMutability": "view",
      "type": "function"
    },
    {
      "inputs": [],
      "name": "listOwners",
      "outputs": [
        {
          "internalType": "address[]",
          "name": "",
          "type": "address[]"
        }
      ],
      "stateMutability": "view",
      "type": "function"
    },
    {
      "inputs": [
        {
          "internalType": "address",
          "name": "_token",
          "type": "address"
        },
        {
          "internalType": "uint256",
          "name": "_amount",
          "type": "uint256"
        }
      ],
      "name": "mintToken",
      "outputs": [],
      "stateMutability": "nonpayable",
      "type": "function"
    },
    {
      "inputs": [
        {
          "internalType": "address",
          "name": "_token",
          "type": "address"
        },
        {
          "internalType": "address",
          "name": "_approveAddress",
          "type": "address"
        },
        {
          "internalType": "uint256",
          "name": "_amount",
          "type": "uint256"
        },
        {
          "internalType": "address",
          "name": "_projectAddress",
          "type": "address"
        }
      ],
      "name": "mintTokenAndApprove",
      "outputs": [],
      "stateMutability": "nonpayable",
      "type": "function"
    },
    {
      "inputs": [
        {
          "internalType": "bytes[]",
          "name": "data",
          "type": "bytes[]"
        }
      ],
      "name": "multicall",
      "outputs": [
        {
          "internalType": "bytes[]",
          "name": "results",
          "type": "bytes[]"
        }
      ],
      "stateMutability": "nonpayable",
      "type": "function"
    },
    {
      "inputs": [],
      "name": "ownerCount",
      "outputs": [
        {
          "internalType": "uint256",
          "name": "",
          "type": "uint256"
        }
      ],
      "stateMutability": "view",
      "type": "function"
    },
    {
      "inputs": [
        {
          "internalType": "address",
          "name": "_projectAddress",
          "type": "address"
        },
        {
          "internalType": "bool",
          "name": "status",
          "type": "bool"
        }
      ],
      "name": "registerProject",
      "outputs": [],
      "stateMutability": "nonpayable",
      "type": "function"
    },
    {
      "inputs": [
        {
          "internalType": "address",
          "name": "_address",
          "type": "address"
        }
      ],
      "name": "removeOwner",
      "outputs": [
        {
          "internalType": "bool",
          "name": "success",
          "type": "bool"
        }
      ],
      "stateMutability": "nonpayable",
      "type": "function"
    },
    {
      "inputs": [
        {
          "internalType": "bytes4",
          "name": "interfaceId",
          "type": "bytes4"
        }
      ],
      "name": "supportsInterface",
      "outputs": [
        {
          "internalType": "bool",
          "name": "",
          "type": "bool"
        }
      ],
      "stateMutability": "view",
      "type": "function"
    },
    {
      "inputs": [
        {
          "internalType": "address",
          "name": "_token",
          "type": "address"
        },
        {
          "internalType": "address",
          "name": "_from",
          "type": "address"
        },
        {
          "internalType": "address",
          "name": "_to",
          "type": "address"
        },
        {
          "internalType": "uint256",
          "name": "_amount",
          "type": "uint256"
        }
      ],
      "name": "transferFromToken",
      "outputs": [],
      "stateMutability": "nonpayable",
      "type": "function"
    },
    {
      "inputs": [
        {
          "internalType": "address",
          "name": "_token",
          "type": "address"
        },
        {
          "internalType": "address",
          "name": "_from",
          "type": "address"
        },
        {
          "internalType": "address",
          "name": "_to",
          "type": "address"
        },
        {
          "internalType": "uint256",
          "name": "_amount",
          "type": "uint256"
        }
      ],
      "name": "transferFromTokenTo",
      "outputs": [],
      "stateMutability": "nonpayable",
      "type": "function"
    },
    {
      "inputs": [
        {
          "internalType": "address",
          "name": "_token",
          "type": "address"
        },
        {
          "internalType": "address",
          "name": "_to",
          "type": "address"
        },
        {
          "internalType": "uint256",
          "name": "_amount",
          "type": "uint256"
        }
      ],
      "name": "transferToken",
      "outputs": [],
      "stateMutability": "nonpayable",
      "type": "function"
    }
  ],
  "bytecode": "0x608060405260326000553480156200001657600080fd5b50604051620030ad380380620030ad83398101604081905262000039916200016b565b62000044816200004c565b505062000196565b600080546200005c6001620000ea565b1115620000a15760405162461bcd60e51b815260206004820152600f60248201526e1bdddb995c9cc8195e18d959591959608a1b604482015260640160405180910390fd5b620000ae600183620000fb565b6040519091506001600160a01b038316907f994a936646fe87ffe4f1e469d3d6aa417d6b855598397f323de5b449f765f0c390600090a2919050565b6000620000f5825490565b92915050565b600062000112836001600160a01b03841662000119565b9392505050565b60008181526001830160205260408120546200016257508154600181810184556000848152602080822090930184905584548482528286019093526040902091909155620000f5565b506000620000f5565b6000602082840312156200017e57600080fd5b81516001600160a01b03811681146200011257600080fd5b612f0780620001a66000396000f3fe60806040523480156200001157600080fd5b50600436106200015d5760003560e01c80639a7b612a11620000c7578063da3e33971162000086578063da3e33971462000349578063e8a0aed31462000360578063ed60c0fc1462000390578063f036413a14620003a9578063f5537ede14620003c0578063fb3c0d7014620003d757600080fd5b80639a7b612a1462000281578063a80f561214620002aa578063ac9650d814620002d0578063d293cf2514620002f6578063d4fac45d146200033257600080fd5b80632cb5568e11620001205780632cb5568e14620001ee5780632f54bf6e14620002055780634937b174146200021c5780635e01eb5a14620002495780637065cb48146200025357806379c65068146200026a57600080fd5b806301ffc9a714620001625780630db02622146200018e578063125bfb6614620001a7578063173825d914620001c05780632a92967a14620001d7575b600080fd5b6200017962000173366004620012a0565b620003ee565b60405190151581526020015b60405180910390f35b6200019862000426565b60405190815260200162000185565b620001be620001b8366004620012e4565b62000439565b005b62000179620001d136600462001325565b620004f1565b620001be620001e836600462001343565b62000568565b620001be620001ff36600462001397565b6200088c565b620001796200021636600462001325565b6200092c565b620002336200022d36600462001397565b6200093b565b6040805192835260208301919091520162000185565b6200017962000a2a565b620001796200026436600462001325565b62000a39565b620001be6200027b366004620013c6565b62000a77565b62000290630ae9aa6960e31b81565b6040516001600160e01b0319909116815260200162000185565b62000179620002bb36600462001325565b60036020526000908152604090205460ff1681565b620002e7620002e1366004620013f3565b62000b17565b604051620001859190620014c1565b620001be6200030736600462001536565b6001600160a01b03919091166000908152600360205260409020805460ff1916911515919091179055565b620001986200034336600462001397565b62000c1f565b620001be6200035a366004620012e4565b62000c97565b62000377620003713660046200161d565b62000cf9565b6040516001600160a01b03909116815260200162000185565b6200039a62000daa565b604051620001859190620016a3565b620001be620003ba366004620016f2565b62000db8565b620001be620003d1366004620012e4565b62000e3d565b620001be620003e8366004620016f2565b62000e9f565b60006001600160e01b03198216630ae9aa6960e31b14806200042057506301ffc9a760e01b6001600160e01b03198316145b92915050565b600062000434600162000ecb565b905090565b6200044660013362000ed6565b6200046e5760405162461bcd60e51b8152600401620004659062001744565b60405180910390fd5b6040516323b872dd60e01b81526001600160a01b038381166004830152306024830152604482018390528416906323b872dd906064015b6020604051808303816000875af1158015620004c5573d6000803e3d6000fd5b505050506040513d601f19601f82011682018060405250810190620004eb91906200178b565b50505050565b60006200050060013362000ed6565b6200051f5760405162461bcd60e51b8152600401620004659062001744565b6200052c60018362000ef9565b6040519091506001600160a01b038316907f58619076adf5bb0943d100ef88d52d7c3fd691b19d3a9071b555b651fbf418da90600090a2919050565b6200057560013362000ed6565b620005945760405162461bcd60e51b8152600401620004659062001744565b6001600160a01b038416620005ec5760405162461bcd60e51b815260206004820152601c60248201527f746f6b656e20616464726573732063616e6e6f74206265207a65726f00000000604482015260640162000465565b6001600160a01b038316620006445760405162461bcd60e51b815260206004820152601e60248201527f617070726f766520616464726573732063616e6e6f74206265207a65726f0000604482015260640162000465565b6001600160a01b0381166200069c5760405162461bcd60e51b815260206004820152601e60248201527f617070726f766520616464726573732063616e6e6f74206265207a65726f0000604482015260640162000465565b6001600160a01b03811660009081526003602052604090205460ff16620006ff5760405162461bcd60e51b81526020600482015260166024820152751c1c9bda9958dd081b9bdd081c9959da5cdd195c995960521b604482015260640162000465565b60008211620007495760405162461bcd60e51b8152602060048201526015602482015274616d6f756e742063616e6e6f74206265207a65726f60581b604482015260640162000465565b6040516340c10f1960e01b81523060048201526024810183905284906001600160a01b038216906340c10f19906044016020604051808303816000875af115801562000799573d6000803e3d6000fd5b505050506040513d601f19601f82011682018060405250810190620007bf9190620017ab565b5060405163095ea7b360e01b81526001600160a01b0385811660048301526024820185905282169063095ea7b3906044016020604051808303816000875af115801562000810573d6000803e3d6000fd5b505050506040513d601f19601f820116820180604052508101906200083691906200178b565b50836001600160a01b0316856001600160a01b03167fdc6904c4e8e3746f835eb600662c644c895c758995784a4b39c68f75355b2d27856040516200087d91815260200190565b60405180910390a35050505050565b6200089960013362000ed6565b620008b85760405162461bcd60e51b8152600401620004659062001744565b604051630e0cb96960e31b81526001600160a01b038281166004830152831690637065cb48906024016020604051808303816000875af115801562000901573d6000803e3d6000fd5b505050506040513d601f19601f820116820180604052508101906200092791906200178b565b505050565b60006200042060018362000ed6565b604051636eb1769f60e11b81526001600160a01b038281166004830152306024830152600091829185169063dd62ed3e90604401602060405180830381865afa1580156200098d573d6000803e3d6000fd5b505050506040513d601f19601f82011682018060405250810190620009b39190620017ab565b6040516370a0823160e01b81523060048201529092506001600160a01b038516906370a0823190602401602060405180830381865afa158015620009fb573d6000803e3d6000fd5b505050506040513d601f19601f8201168201806040525081019062000a219190620017ab565b90509250929050565b60006200043460013362000ed6565b600062000a4860013362000ed6565b62000a675760405162461bcd60e51b8152600401620004659062001744565b620004208262000f10565b919050565b62000a8460013362000ed6565b62000aa35760405162461bcd60e51b8152600401620004659062001744565b6040516340c10f1960e01b8152306004820152602481018290526001600160a01b038316906340c10f19906044016020604051808303816000875af115801562000af1573d6000803e3d6000fd5b505050506040513d601f19601f82011682018060405250810190620009279190620017ab565b6040805160008152602081019091526060908267ffffffffffffffff81111562000b455762000b4562001572565b60405190808252806020026020018201604052801562000b7a57816020015b606081526020019060019003908162000b645790505b50915060005b8381101562000c175762000be13086868481811062000ba35762000ba3620017f1565b905060200281019062000bb7919062001807565b8560405160200162000bcc9392919062001858565b60405160208183030381529060405262000fab565b83828151811062000bf65762000bf6620017f1565b6020026020010181905250808062000c0e9062001881565b91505062000b80565b505092915050565b6040516370a0823160e01b81526001600160a01b038281166004830152600091908416906370a0823190602401602060405180830381865afa15801562000c6a573d6000803e3d6000fd5b505050506040513d601f19601f8201168201806040525081019062000c909190620017ab565b9392505050565b62000ca460013362000ed6565b62000cc35760405162461bcd60e51b8152600401620004659062001744565b60405163095ea7b360e01b81526001600160a01b0383811660048301526024820183905284169063095ea7b390604401620004a5565b600062000d0860013362000ed6565b62000d275760405162461bcd60e51b8152600401620004659062001744565b60008484308560405162000d3b9062001292565b62000d4a94939291906200189d565b604051809103906000f08015801562000d67573d6000803e3d6000fd5b5060405190915081906001600160a01b038216907f2e2b3f61b70d2d131b2a807371103cc98d51adcaa5e9a8f9c32658ad8426e74e90600090a295945050505050565b606062000434600162001027565b6040516323b872dd60e01b81526001600160a01b0384811660048301528381166024830152604482018390528516906323b872dd906064016020604051808303816000875af115801562000e10573d6000803e3d6000fd5b505050506040513d601f19601f8201168201806040525081019062000e3691906200178b565b5050505050565b62000e4a60013362000ed6565b62000e695760405162461bcd60e51b8152600401620004659062001744565b60405163a9059cbb60e01b81526001600160a01b0383811660048301526024820183905284169063a9059cbb90604401620004a5565b62000eac60013362000ed6565b62000db85760405162461bcd60e51b8152600401620004659062001744565b600062000420825490565b6001600160a01b0381166000908152600183016020526040812054151562000c90565b600062000c90836001600160a01b03841662001036565b6000805462000f20600162000ecb565b111562000f625760405162461bcd60e51b815260206004820152600f60248201526e1bdddb995c9cc8195e18d959591959608a1b604482015260640162000465565b62000f6f6001836200113a565b6040519091506001600160a01b038316907f994a936646fe87ffe4f1e469d3d6aa417d6b855598397f323de5b449f765f0c390600090a2919050565b6060600080846001600160a01b03168460405162000fca9190620018eb565b600060405180830381855af49150503d806000811462001007576040519150601f19603f3d011682016040523d82523d6000602084013e6200100c565b606091505b50915091506200101e85838362001151565b95945050505050565b6060600062000c9083620011b5565b600081815260018301602052604081205480156200112f5760006200105d600183620017db565b85549091506000906200107390600190620017db565b9050808214620010df576000866000018281548110620010975762001097620017f1565b9060005260206000200154905080876000018481548110620010bd57620010bd620017f1565b6000918252602080832090910192909255918252600188019052604090208390555b8554869080620010f357620010f362001909565b60019003818190600052602060002001600090559055856001016000868152602001908152602001600020600090556001935050505062000420565b600091505062000420565b600062000c90836001600160a01b03841662001213565b6060826200116a57620011648262001265565b62000c90565b81511580156200118257506001600160a01b0384163b155b15620011ad57604051639996b31560e01b81526001600160a01b038516600482015260240162000465565b508062000c90565b6060816000018054806020026020016040519081016040528092919081815260200182805480156200120757602002820191906000526020600020905b815481526020019060010190808311620011f2575b50505050509050919050565b60008181526001830160205260408120546200125c5750815460018181018455600084815260208082209093018490558454848252828601909352604090209190915562000420565b50600062000420565b805115620012765780518082602001fd5b604051630a12f52160e11b815260040160405180910390fd5b50565b6115b2806200192083390190565b600060208284031215620012b357600080fd5b81356001600160e01b03198116811462000c9057600080fd5b80356001600160a01b038116811462000a7257600080fd5b600080600060608486031215620012fa57600080fd5b6200130584620012cc565b92506200131560208501620012cc565b9150604084013590509250925092565b6000602082840312156200133857600080fd5b62000c9082620012cc565b600080600080608085870312156200135a57600080fd5b6200136585620012cc565b93506200137560208601620012cc565b9250604085013591506200138c60608601620012cc565b905092959194509250565b60008060408385031215620013ab57600080fd5b620013b683620012cc565b915062000a2160208401620012cc565b60008060408385031215620013da57600080fd5b620013e583620012cc565b946020939093013593505050565b600080602083850312156200140757600080fd5b823567ffffffffffffffff808211156200142057600080fd5b818501915085601f8301126200143557600080fd5b8135818111156200144557600080fd5b8660208260051b85010111156200145b57600080fd5b60209290920196919550909350505050565b60005b838110156200148a57818101518382015260200162001470565b50506000910152565b60008151808452620014ad8160208601602086016200146d565b601f01601f19169290920160200192915050565b6000602080830181845280855180835260408601915060408160051b870101925083870160005b828110156200151a57603f198886030184526200150785835162001493565b94509285019290850190600101620014e8565b5092979650505050505050565b80151581146200128f57600080fd5b600080604083850312156200154a57600080fd5b6200155583620012cc565b91506020830135620015678162001527565b809150509250929050565b634e487b7160e01b600052604160045260246000fd5b600082601f8301126200159a57600080fd5b813567ffffffffffffffff80821115620015b857620015b862001572565b604051601f8301601f19908116603f01168101908282118183101715620015e357620015e362001572565b81604052838152866020858801011115620015fd57600080fd5b836020870160208301376000602085830101528094505050505092915050565b6000806000606084860312156200163357600080fd5b833567ffffffffffffffff808211156200164c57600080fd5b6200165a8783880162001588565b945060208601359150808211156200167157600080fd5b50620016808682870162001588565b925050604084013560ff811681146200169857600080fd5b809150509250925092565b6020808252825182820181905260009190848201906040850190845b81811015620016e65783516001600160a01b031683529284019291840191600101620016bf565b50909695505050505050565b600080600080608085870312156200170957600080fd5b6200171485620012cc565b93506200172460208601620012cc565b92506200173460408601620012cc565b9396929550929360600135925050565b60208082526027908201527f4f6e6c79206f776e65722063616e20657865637574652074686973207472616e60408201526639b0b1ba34b7b760c91b606082015260800190565b6000602082840312156200179e57600080fd5b815162000c908162001527565b600060208284031215620017be57600080fd5b5051919050565b634e487b7160e01b600052601160045260246000fd5b81810381811115620004205762000420620017c5565b634e487b7160e01b600052603260045260246000fd5b6000808335601e198436030181126200181f57600080fd5b83018035915067ffffffffffffffff8211156200183b57600080fd5b6020019150368190038213156200185157600080fd5b9250929050565b828482376000838201600081528351620018778183602088016200146d565b0195945050505050565b600060018201620018965762001896620017c5565b5060010190565b608081526000620018b2608083018762001493565b8281036020840152620018c6818762001493565b6001600160a01b03959095166040840152505060ff9190911660609091015292915050565b60008251620018ff8184602087016200146d565b9190910192915050565b634e487b7160e01b600052603160045260246000fdfe608060405260326000553480156200001657600080fd5b50604051620015b2380380620015b283398101604081905262000039916200026f565b83836006620000498382620003a4565b506007620000588282620003a4565b5050506200006c826200008b60201b60201c565b506008805460ff191660ff929092169190911790555062000470915050565b600080546200009b600162000129565b1115620000e05760405162461bcd60e51b815260206004820152600f60248201526e1bdddb995c9cc8195e18d959591959608a1b604482015260640160405180910390fd5b620000ed6001836200013a565b6040519091506001600160a01b038316907f994a936646fe87ffe4f1e469d3d6aa417d6b855598397f323de5b449f765f0c390600090a2919050565b600062000134825490565b92915050565b600062000151836001600160a01b03841662000158565b9392505050565b6000818152600183016020526040812054620001a15750815460018181018455600084815260208082209093018490558454848252828601909352604090209190915562000134565b50600062000134565b634e487b7160e01b600052604160045260246000fd5b600082601f830112620001d257600080fd5b81516001600160401b0380821115620001ef57620001ef620001aa565b604051601f8301601f19908116603f011681019082821181831017156200021a576200021a620001aa565b816040528381526020925086838588010111156200023757600080fd5b600091505b838210156200025b57858201830151818301840152908201906200023c565b600093810190920192909252949350505050565b600080600080608085870312156200028657600080fd5b84516001600160401b03808211156200029e57600080fd5b620002ac88838901620001c0565b95506020870151915080821115620002c357600080fd5b50620002d287828801620001c0565b604087015190945090506001600160a01b0381168114620002f257600080fd5b606086015190925060ff811681146200030a57600080fd5b939692955090935050565b600181811c908216806200032a57607f821691505b6020821081036200034b57634e487b7160e01b600052602260045260246000fd5b50919050565b601f8211156200039f57600081815260208120601f850160051c810160208610156200037a5750805b601f850160051c820191505b818110156200039b5782815560010162000386565b5050505b505050565b81516001600160401b03811115620003c057620003c0620001aa565b620003d881620003d1845462000315565b8462000351565b602080601f831160018114620004105760008415620003f75750858301515b600019600386901b1c1916600185901b1785556200039b565b600085815260208120601f198616915b82811015620004415788860151825594840194600190910190840162000420565b5085821015620004605787850151600019600388901b60f8161c191681555b5050505050600190811b01905550565b61113280620004806000396000f3fe608060405234801561001057600080fd5b50600436106101215760003560e01c806342966c68116100ad57806395d89b411161007157806395d89b4114610252578063a9059cbb1461025a578063ac9650d81461026d578063dd62ed3e1461028d578063ed60c0fc146102c657600080fd5b806342966c68146101e65780635e01eb5a146101fb5780637065cb481461020357806370a082311461021657806379cc67901461023f57600080fd5b806318160ddd116100f457806318160ddd1461019057806323b872dd146101985780632f54bf6e146101ab578063313ce567146101be57806340c10f19146101d357600080fd5b806306fdde0314610126578063095ea7b3146101445780630db0262214610167578063173825d91461017d575b600080fd5b61012e6102db565b60405161013b9190610d3e565b60405180910390f35b610157610152366004610d68565b61036d565b604051901515815260200161013b565b61016f610387565b60405190815260200161013b565b61015761018b366004610d92565b610398565b60055461016f565b6101576101a6366004610dad565b610411565b6101576101b9366004610d92565b610437565b60085460405160ff909116815260200161013b565b61016f6101e1366004610d68565b610444565b6101f96101f4366004610de9565b61047d565b005b61015761048a565b610157610211366004610d92565b610497565b61016f610224366004610d92565b6001600160a01b031660009081526003602052604090205490565b6101f961024d366004610d68565b6104ce565b61012e6104e7565b610157610268366004610d68565b6104f6565b61028061027b366004610e02565b610504565b60405161013b9190610e77565b61016f61029b366004610ed9565b6001600160a01b03918216600090815260046020908152604080832093909416825291909152205490565b6102ce6105f7565b60405161013b9190610f0c565b6060600680546102ea90610f59565b80601f016020809104026020016040519081016040528092919081815260200182805461031690610f59565b80156103635780601f1061033857610100808354040283529160200191610363565b820191906000526020600020905b81548152906001019060200180831161034657829003601f168201915b5050505050905090565b60003361037b818585610603565b60019150505b92915050565b60006103936001610615565b905090565b60006103a560013361061f565b6103ca5760405162461bcd60e51b81526004016103c190610f8d565b60405180910390fd5b6103d5600183610641565b6040519091506001600160a01b038316907f58619076adf5bb0943d100ef88d52d7c3fd691b19d3a9071b555b651fbf418da90600090a2919050565b60003361041f858285610656565b61042a8585856106d4565b60019150505b9392505050565b600061038160018361061f565b600061045160013361061f565b61046d5760405162461bcd60e51b81526004016103c190610f8d565b6104778383610733565b50919050565b6104873382610769565b50565b600061039360013361061f565b60006104a460013361061f565b6104c05760405162461bcd60e51b81526004016103c190610f8d565b6103818261079f565b919050565b6104d9823383610656565b6104e38282610769565b5050565b6060600780546102ea90610f59565b60003361037b8185856106d4565b6040805160008152602081019091526060908267ffffffffffffffff81111561052f5761052f610ffd565b60405190808252806020026020018201604052801561056257816020015b606081526020019060019003908161054d5790505b50915060005b838110156105ef576105bf3086868481811061058657610586611013565b90506020028101906105989190611029565b856040516020016105ab93929190611077565b604051602081830303815290604052610834565b8382815181106105d1576105d1611013565b602002602001018190525080806105e79061109e565b915050610568565b505092915050565b606061039360016108aa565b61061083838360016108b7565b505050565b6000610381825490565b6001600160a01b03811660009081526001830160205260408120541515610430565b6000610430836001600160a01b03841661098c565b6001600160a01b0383811660009081526004602090815260408083209386168352929052205460001981146106ce57818110156106bf57604051637dc7a0d960e11b81526001600160a01b038416600482015260248101829052604481018390526064016103c1565b6106ce848484840360006108b7565b50505050565b6001600160a01b0383166106fe57604051634b637e8f60e11b8152600060048201526024016103c1565b6001600160a01b0382166107285760405163ec442f0560e01b8152600060048201526024016103c1565b610610838383610a7f565b6001600160a01b03821661075d5760405163ec442f0560e01b8152600060048201526024016103c1565b6104e360008383610a7f565b6001600160a01b03821661079357604051634b637e8f60e11b8152600060048201526024016103c1565b6104e382600083610a7f565b600080546107ad6001610615565b11156107ed5760405162461bcd60e51b815260206004820152600f60248201526e1bdddb995c9cc8195e18d959591959608a1b60448201526064016103c1565b6107f8600183610ba9565b6040519091506001600160a01b038316907f994a936646fe87ffe4f1e469d3d6aa417d6b855598397f323de5b449f765f0c390600090a2919050565b6060600080846001600160a01b03168460405161085191906110b7565b600060405180830381855af49150503d806000811461088c576040519150601f19603f3d011682016040523d82523d6000602084013e610891565b606091505b50915091506108a1858383610bbe565b95945050505050565b6060600061043083610c1a565b6001600160a01b0384166108e15760405163e602df0560e01b8152600060048201526024016103c1565b6001600160a01b03831661090b57604051634a1406b160e11b8152600060048201526024016103c1565b6001600160a01b03808516600090815260046020908152604080832093871683529290522082905580156106ce57826001600160a01b0316846001600160a01b03167f8c5be1e5ebec7d5bd14f71427d1e84f3dd0314c0f7b2291e5b200ac8c7c3b9258460405161097e91815260200190565b60405180910390a350505050565b60008181526001830160205260408120548015610a755760006109b0600183610fea565b85549091506000906109c490600190610fea565b9050808214610a295760008660000182815481106109e4576109e4611013565b9060005260206000200154905080876000018481548110610a0757610a07611013565b6000918252602080832090910192909255918252600188019052604090208390555b8554869080610a3a57610a3a6110d3565b600190038181906000526020600020016000905590558560010160008681526020019081526020016000206000905560019350505050610381565b6000915050610381565b6001600160a01b038316610aaa578060056000828254610a9f91906110e9565b90915550610b1c9050565b6001600160a01b03831660009081526003602052604090205481811015610afd5760405163391434e360e21b81526001600160a01b038516600482015260248101829052604481018390526064016103c1565b6001600160a01b03841660009081526003602052604090209082900390555b6001600160a01b038216610b3857600580548290039055610b57565b6001600160a01b03821660009081526003602052604090208054820190555b816001600160a01b0316836001600160a01b03167fddf252ad1be2c89b69c2b068fc378daa952ba7f163c4a11628f55a4df523b3ef83604051610b9c91815260200190565b60405180910390a3505050565b6000610430836001600160a01b038416610c76565b606082610bd357610bce82610cc5565b610430565b8151158015610bea57506001600160a01b0384163b155b15610c1357604051639996b31560e01b81526001600160a01b03851660048201526024016103c1565b5080610430565b606081600001805480602002602001604051908101604052809291908181526020018280548015610c6a57602002820191906000526020600020905b815481526020019060010190808311610c56575b50505050509050919050565b6000818152600183016020526040812054610cbd57508154600181810184556000848152602080822090930184905584548482528286019093526040902091909155610381565b506000610381565b805115610cd55780518082602001fd5b604051630a12f52160e11b815260040160405180910390fd5b60005b83811015610d09578181015183820152602001610cf1565b50506000910152565b60008151808452610d2a816020860160208601610cee565b601f01601f19169290920160200192915050565b6020815260006104306020830184610d12565b80356001600160a01b03811681146104c957600080fd5b60008060408385031215610d7b57600080fd5b610d8483610d51565b946020939093013593505050565b600060208284031215610da457600080fd5b61043082610d51565b600080600060608486031215610dc257600080fd5b610dcb84610d51565b9250610dd960208501610d51565b9150604084013590509250925092565b600060208284031215610dfb57600080fd5b5035919050565b60008060208385031215610e1557600080fd5b823567ffffffffffffffff80821115610e2d57600080fd5b818501915085601f830112610e4157600080fd5b813581811115610e5057600080fd5b8660208260051b8501011115610e6557600080fd5b60209290920196919550909350505050565b6000602080830181845280855180835260408601915060408160051b870101925083870160005b82811015610ecc57603f19888603018452610eba858351610d12565b94509285019290850190600101610e9e565b5092979650505050505050565b60008060408385031215610eec57600080fd5b610ef583610d51565b9150610f0360208401610d51565b90509250929050565b6020808252825182820181905260009190848201906040850190845b81811015610f4d5783516001600160a01b031683529284019291840191600101610f28565b50909695505050505050565b600181811c90821680610f6d57607f821691505b60208210810361047757634e487b7160e01b600052602260045260246000fd5b60208082526027908201527f4f6e6c79206f776e65722063616e20657865637574652074686973207472616e60408201526639b0b1ba34b7b760c91b606082015260800190565b634e487b7160e01b600052601160045260246000fd5b8181038181111561038157610381610fd4565b634e487b7160e01b600052604160045260246000fd5b634e487b7160e01b600052603260045260246000fd5b6000808335601e1984360301811261104057600080fd5b83018035915067ffffffffffffffff82111561105b57600080fd5b60200191503681900382131561107057600080fd5b9250929050565b828482376000838201600081528351611094818360208801610cee565b0195945050505050565b6000600182016110b0576110b0610fd4565b5060010190565b600082516110c9818460208701610cee565b9190910192915050565b634e487b7160e01b600052603160045260246000fd5b8082018082111561038157610381610fd456fea26469706673582212204e1c95685e2605d6dc1bf44273e3c1580efaca9ae27b7fd5344c0db97fe03b9564736f6c63430008140033a2646970667358221220f8a71dcc7c174b2f0ea39ba6c5b975e355bc75d1d8a011dd1dc8b55d5e313e9564736f6c63430008140033",
  "linkReferences": {},
  "deployedLinkReferences": {}
}