{
  "_format": "hh-sol-artifact-1",
  "contractName": "RahatCommunity",
  "sourceName": "src/contracts/RahatCommunity.sol",
  "abi": [
    {
      "inputs": [
        {
          "internalType": "string",
          "name": "_name",
          "type": "string"
        },
        {
          "internalType": "address",
          "name": "_admin",
          "type": "address"
        }
      ],
      "stateMutability": "nonpayable",
      "type": "constructor"
    },
    {
      "inputs": [],
      "name": "AccessControlBadConfirmation",
      "type": "error"
    },
    {
      "inputs": [
        {
          "internalType": "address",
          "name": "account",
          "type": "address"
        },
        {
          "internalType": "bytes32",
          "name": "neededRole",
          "type": "bytes32"
        }
      ],
      "name": "AccessControlUnauthorizedAccount",
      "type": "error"
    },
    {
      "inputs": [
        {
          "internalType": "address",
          "name": "target",
          "type": "address"
        }
      ],
      "name": "AddressEmptyCode",
      "type": "error"
    },
    {
      "inputs": [],
      "name": "FailedInnerCall",
      "type": "error"
    },
    {
      "anonymous": false,
      "inputs": [
        {
          "indexed": true,
          "internalType": "address",
          "name": "",
          "type": "address"
        }
      ],
      "name": "BeneficiaryAdded",
      "type": "event"
    },
    {
      "anonymous": false,
      "inputs": [
        {
          "indexed": true,
          "internalType": "address",
          "name": "",
          "type": "address"
        }
      ],
      "name": "BeneficiaryRemoved",
      "type": "event"
    },
    {
      "anonymous": false,
      "inputs": [
        {
          "indexed": true,
          "internalType": "address",
          "name": "requestor",
          "type": "address"
        },
        {
          "indexed": true,
          "internalType": "address",
          "name": "project",
          "type": "address"
        }
      ],
      "name": "ProjectApprovalRequest",
      "type": "event"
    },
    {
      "anonymous": false,
      "inputs": [
        {
          "indexed": true,
          "internalType": "address",
          "name": "",
          "type": "address"
        }
      ],
      "name": "ProjectApproved",
      "type": "event"
    },
    {
      "anonymous": false,
      "inputs": [
        {
          "indexed": true,
          "internalType": "address",
          "name": "",
          "type": "address"
        }
      ],
      "name": "ProjectRevoked",
      "type": "event"
    },
    {
      "anonymous": false,
      "inputs": [
        {
          "indexed": false,
          "internalType": "address",
          "name": "",
          "type": "address"
        },
        {
          "indexed": false,
          "internalType": "uint256",
          "name": "",
          "type": "uint256"
        }
      ],
      "name": "Received",
      "type": "event"
    },
    {
      "anonymous": false,
      "inputs": [
        {
          "indexed": true,
          "internalType": "bytes32",
          "name": "role",
          "type": "bytes32"
        },
        {
          "indexed": true,
          "internalType": "bytes32",
          "name": "previousAdminRole",
          "type": "bytes32"
        },
        {
          "indexed": true,
          "internalType": "bytes32",
          "name": "newAdminRole",
          "type": "bytes32"
        }
      ],
      "name": "RoleAdminChanged",
      "type": "event"
    },
    {
      "anonymous": false,
      "inputs": [
        {
          "indexed": true,
          "internalType": "bytes32",
          "name": "role",
          "type": "bytes32"
        },
        {
          "indexed": true,
          "internalType": "address",
          "name": "account",
          "type": "address"
        },
        {
          "indexed": true,
          "internalType": "address",
          "name": "sender",
          "type": "address"
        }
      ],
      "name": "RoleGranted",
      "type": "event"
    },
    {
      "anonymous": false,
      "inputs": [
        {
          "indexed": true,
          "internalType": "bytes32",
          "name": "role",
          "type": "bytes32"
        },
        {
          "indexed": true,
          "internalType": "address",
          "name": "account",
          "type": "address"
        },
        {
          "indexed": true,
          "internalType": "address",
          "name": "sender",
          "type": "address"
        }
      ],
      "name": "RoleRevoked",
      "type": "event"
    },
    {
      "inputs": [],
      "name": "DEFAULT_ADMIN_ROLE",
      "outputs": [
        {
          "internalType": "bytes32",
          "name": "",
          "type": "bytes32"
        }
      ],
      "stateMutability": "view",
      "type": "function"
    },
    {
      "inputs": [],
      "name": "IID_RAHAT_PROJECT",
      "outputs": [
        {
          "internalType": "bytes4",
          "name": "",
          "type": "bytes4"
        }
      ],
      "stateMutability": "view",
      "type": "function"
    },
    {
      "inputs": [],
      "name": "VENDOR_ROLE",
      "outputs": [
        {
          "internalType": "bytes32",
          "name": "",
          "type": "bytes32"
        }
      ],
      "stateMutability": "view",
      "type": "function"
    },
    {
      "inputs": [
        {
          "internalType": "address",
          "name": "_address",
          "type": "address"
        }
      ],
      "name": "addBeneficiary",
      "outputs": [],
      "stateMutability": "nonpayable",
      "type": "function"
    },
    {
      "inputs": [
        {
          "internalType": "address",
          "name": "_projectAddress",
          "type": "address"
        }
      ],
      "name": "approveProject",
      "outputs": [],
      "stateMutability": "nonpayable",
      "type": "function"
    },
    {
      "inputs": [
        {
          "internalType": "bytes32",
          "name": "role",
          "type": "bytes32"
        }
      ],
      "name": "getRoleAdmin",
      "outputs": [
        {
          "internalType": "bytes32",
          "name": "",
          "type": "bytes32"
        }
      ],
      "stateMutability": "view",
      "type": "function"
    },
    {
      "inputs": [
        {
          "internalType": "bytes32",
          "name": "role",
          "type": "bytes32"
        },
        {
          "internalType": "address",
          "name": "account",
          "type": "address"
        }
      ],
      "name": "grantRole",
      "outputs": [],
      "stateMutability": "nonpayable",
      "type": "function"
    },
    {
      "inputs": [
        {
          "internalType": "bytes32",
          "name": "_role",
          "type": "bytes32"
        },
        {
          "internalType": "address",
          "name": "_account",
          "type": "address"
        }
      ],
      "name": "grantRoleWithEth",
      "outputs": [],
      "stateMutability": "nonpayable",
      "type": "function"
    },
    {
      "inputs": [
        {
          "internalType": "bytes32",
          "name": "role",
          "type": "bytes32"
        },
        {
          "internalType": "address",
          "name": "account",
          "type": "address"
        }
      ],
      "name": "hasRole",
      "outputs": [
        {
          "internalType": "bool",
          "name": "",
          "type": "bool"
        }
      ],
      "stateMutability": "view",
      "type": "function"
    },
    {
      "inputs": [
        {
          "internalType": "address",
          "name": "_address",
          "type": "address"
        }
      ],
      "name": "isAdmin",
      "outputs": [
        {
          "internalType": "bool",
          "name": "",
          "type": "bool"
        }
      ],
      "stateMutability": "view",
      "type": "function"
    },
    {
      "inputs": [
        {
          "internalType": "address",
          "name": "",
          "type": "address"
        }
      ],
      "name": "isBeneficiary",
      "outputs": [
        {
          "internalType": "bool",
          "name": "",
          "type": "bool"
        }
      ],
      "stateMutability": "view",
      "type": "function"
    },
    {
      "inputs": [
        {
          "internalType": "address",
          "name": "",
          "type": "address"
        }
      ],
      "name": "isProject",
      "outputs": [
        {
          "internalType": "bool",
          "name": "",
          "type": "bool"
        }
      ],
      "stateMutability": "view",
      "type": "function"
    },
    {
      "inputs": [
        {
          "internalType": "bytes[]",
          "name": "data",
          "type": "bytes[]"
        }
      ],
      "name": "multicall",
      "outputs": [
        {
          "internalType": "bytes[]",
          "name": "results",
          "type": "bytes[]"
        }
      ],
      "stateMutability": "nonpayable",
      "type": "function"
    },
    {
      "inputs": [],
      "name": "name",
      "outputs": [
        {
          "internalType": "string",
          "name": "",
          "type": "string"
        }
      ],
      "stateMutability": "view",
      "type": "function"
    },
    {
      "inputs": [
        {
          "internalType": "address",
          "name": "_address",
          "type": "address"
        }
      ],
      "name": "removeBeneficiary",
      "outputs": [],
      "stateMutability": "nonpayable",
      "type": "function"
    },
    {
      "inputs": [
        {
          "internalType": "bytes32",
          "name": "role",
          "type": "bytes32"
        },
        {
          "internalType": "address",
          "name": "callerConfirmation",
          "type": "address"
        }
      ],
      "name": "renounceRole",
      "outputs": [],
      "stateMutability": "nonpayable",
      "type": "function"
    },
    {
      "inputs": [
        {
          "internalType": "address",
          "name": "_projectAddress",
          "type": "address"
        }
      ],
      "name": "requestProjectApproval",
      "outputs": [],
      "stateMutability": "nonpayable",
      "type": "function"
    },
    {
      "inputs": [
        {
          "internalType": "address",
          "name": "_projectAddress",
          "type": "address"
        }
      ],
      "name": "revokeProject",
      "outputs": [],
      "stateMutability": "nonpayable",
      "type": "function"
    },
    {
      "inputs": [
        {
          "internalType": "bytes32",
          "name": "role",
          "type": "bytes32"
        },
        {
          "internalType": "address",
          "name": "account",
          "type": "address"
        }
      ],
      "name": "revokeRole",
      "outputs": [],
      "stateMutability": "nonpayable",
      "type": "function"
    },
    {
      "inputs": [
        {
          "internalType": "bytes4",
          "name": "interfaceId",
          "type": "bytes4"
        }
      ],
      "name": "supportsInterface",
      "outputs": [
        {
          "internalType": "bool",
          "name": "",
          "type": "bool"
        }
      ],
      "stateMutability": "view",
      "type": "function"
    },
    {
      "inputs": [
        {
          "internalType": "address payable",
          "name": "_to",
          "type": "address"
        }
      ],
      "name": "withdraw",
      "outputs": [],
      "stateMutability": "payable",
      "type": "function"
    },
    {
      "stateMutability": "payable",
      "type": "receive"
    }
  ],
  "bytecode": "0x60806040523480156200001157600080fd5b506040516200159b3803806200159b8339810160408190526200003491620001b3565b6200004160008262000086565b506200006f7f0aaf57387812c7f832412470a57567b5648a930069be49aa9c98d04f88520d34600062000135565b60016200007d83826200032a565b505050620003f6565b6000828152602081815260408083206001600160a01b038516845290915281205460ff166200012b576000838152602081815260408083206001600160a01b03861684529091529020805460ff19166001179055620000e23390565b6001600160a01b0316826001600160a01b0316847f2f8788117e7eff1d82e926ec794901d17c78024a50270940304540a733656f0d60405160405180910390a45060016200012f565b5060005b92915050565b600082815260208190526040808220600101805490849055905190918391839186917fbd79b86ffe0ab8e8776151514217cd7cacd52c909f66475c3af44e129f0b00ff9190a4505050565b634e487b7160e01b600052604160045260246000fd5b80516001600160a01b0381168114620001ae57600080fd5b919050565b60008060408385031215620001c757600080fd5b82516001600160401b0380821115620001df57600080fd5b818501915085601f830112620001f457600080fd5b81518181111562000209576200020962000180565b604051601f8201601f19908116603f0116810190838211818310171562000234576200023462000180565b816040528281526020935088848487010111156200025157600080fd5b600091505b8282101562000275578482018401518183018501529083019062000256565b60008484830101528096505050506200029081860162000196565b925050509250929050565b600181811c90821680620002b057607f821691505b602082108103620002d157634e487b7160e01b600052602260045260246000fd5b50919050565b601f8211156200032557600081815260208120601f850160051c81016020861015620003005750805b601f850160051c820191505b8181101562000321578281556001016200030c565b5050505b505050565b81516001600160401b0381111562000346576200034662000180565b6200035e816200035784546200029b565b84620002d7565b602080601f8311600181146200039657600084156200037d5750858301515b600019600386901b1c1916600185901b17855562000321565b600085815260208120601f198616915b82811015620003c757888601518255948401946001909101908401620003a6565b5085821015620003e65787850151600019600388901b60f8161c191681555b5050505050600190811b01905550565b61119580620004066000396000f3fe60806040526004361061012e5760003560e01c806359633a1c116100ab5780639d19b2261161006f5780639d19b226146103b4578063a217fddf146103e4578063a434b1a6146103f9578063ac9650d814610419578063be26175214610446578063d547741f1461046657600080fd5b806359633a1c1461030057806359844474146103205780638494b3281461034057806391d1485414610360578063926a694d1461038057600080fd5b80632f2ff15d116100f25780632f2ff15d1461025757806336568abe146102795780634fe215711461029957806351cff8d9146102cd5780635926651d146102e057600080fd5b806301ffc9a71461017257806305c81408146101a757806306fdde03146101d7578063248a9ca3146101f957806324d7806c1461023757600080fd5b3661016d57604080513381523460208201527f88a5966d370b9919b20f3e2c13ff65706f196a4e32cc2c12bf57088f88525874910160405180910390a1005b600080fd5b34801561017e57600080fd5b5061019261018d366004610e12565b610486565b60405190151581526020015b60405180910390f35b3480156101b357600080fd5b506101926101c2366004610e51565b60036020526000908152604090205460ff1681565b3480156101e357600080fd5b506101ec6104bd565b60405161019e9190610ebe565b34801561020557600080fd5b50610229610214366004610ed1565b60009081526020819052604090206001015490565b60405190815260200161019e565b34801561024357600080fd5b50610192610252366004610e51565b61054b565b34801561026357600080fd5b50610277610272366004610eea565b610557565b005b34801561028557600080fd5b50610277610294366004610eea565b610582565b3480156102a557600080fd5b506102b463df9db29f60e01b81565b6040516001600160e01b0319909116815260200161019e565b6102776102db366004610e51565b6105ba565b3480156102ec57600080fd5b506102776102fb366004610e51565b610688565b34801561030c57600080fd5b5061027761031b366004610e51565b6106fb565b34801561032c57600080fd5b5061027761033b366004610eea565b61076b565b34801561034c57600080fd5b5061027761035b366004610e51565b61085e565b34801561036c57600080fd5b5061019261037b366004610eea565b6108fc565b34801561038c57600080fd5b506102297f0aaf57387812c7f832412470a57567b5648a930069be49aa9c98d04f88520d3481565b3480156103c057600080fd5b506101926103cf366004610e51565b60026020526000908152604090205460ff1681565b3480156103f057600080fd5b50610229600081565b34801561040557600080fd5b50610277610414366004610e51565b610925565b34801561042557600080fd5b50610439610434366004610f1a565b61095e565b60405161019e9190610f8f565b34801561045257600080fd5b50610277610461366004610e51565b610a51565b34801561047257600080fd5b50610277610481366004610eea565b610bac565b60006001600160e01b03198216637965db0b60e01b14806104b757506301ffc9a760e01b6001600160e01b03198316145b92915050565b600180546104ca90610ff1565b80601f01602080910402602001604051908101604052809291908181526020018280546104f690610ff1565b80156105435780601f1061051857610100808354040283529160200191610543565b820191906000526020600020905b81548152906001019060200180831161052657829003601f168201915b505050505081565b60006104b781836108fc565b60008281526020819052604090206001015461057281610bd1565b61057c8383610bde565b50505050565b6001600160a01b03811633146105ab5760405163334bd91960e11b815260040160405180910390fd5b6105b58282610c70565b505050565b6105c56000336108fc565b6105ea5760405162461bcd60e51b81526004016105e19061102b565b60405180910390fd5b6000816001600160a01b03164760405160006040518083038185875af1925050503d8060008114610637576040519150601f19603f3d011682016040523d82523d6000602084013e61063c565b606091505b50509050806106845760405162461bcd60e51b81526020600482015260146024820152732330b4b632b2103a379039b2b7321022ba3432b960611b60448201526064016105e1565b5050565b6106936000336108fc565b6106af5760405162461bcd60e51b81526004016105e19061102b565b6001600160a01b038116600081815260026020526040808220805460ff19166001179055517fc3e089fc6227e049d0e41c3d7a383d57efe69c1955c5752f7e5a9b5f1f1130209190a250565b6107066000336108fc565b6107225760405162461bcd60e51b81526004016105e19061102b565b6001600160a01b038116600081815260026020526040808220805460ff19169055517f72977dad29432f655f11c2f0e72ef5124bb9ade7a512fb7a43a9f504df2234289190a250565b6107766000336108fc565b6107925760405162461bcd60e51b81526004016105e19061102b565b61079c8282610557565b660110d9316ec000816001600160a01b0316311015610684576000816001600160a01b0316655af3107a400060405160006040518083038185875af1925050503d8060008114610808576040519150601f19603f3d011682016040523d82523d6000602084013e61080d565b606091505b50509050806105b55760405162461bcd60e51b815260206004820152601c60248201527f436f6d6d756e6e697479206e65656473206d6f72652065746865722e0000000060448201526064016105e1565b6108696000336108fc565b6108855760405162461bcd60e51b81526004016105e19061102b565b6001600160a01b03811660009081526003602052604090205460ff16156108db576040516001600160a01b038216907f5a8e20baa8796ab20fa077fa27ed310aacb99e0f45a4fe14a7bd5af8f3fd6eaf90600090a25b6001600160a01b03166000908152600360205260409020805460ff19169055565b6000918252602082815260408084206001600160a01b0393909316845291905290205460ff1690565b6040516001600160a01b0382169032907fd5c80a2c58ac61253d52bedf9c2ab71759cbeff8bb3dfd1c20beba441f19dc7690600090a350565b6040805160008152602081019091526060908267ffffffffffffffff81111561098957610989611067565b6040519080825280602002602001820160405280156109bc57816020015b60608152602001906001900390816109a75790505b50915060005b83811015610a4957610a19308686848181106109e0576109e061107d565b90506020028101906109f29190611093565b85604051602001610a05939291906110e1565b604051602081830303815290604052610cdb565b838281518110610a2b57610a2b61107d565b60200260200101819052508080610a4190611108565b9150506109c2565b505092915050565b610a5c6000336108fc565b610a785760405162461bcd60e51b81526004016105e19061102b565b6040516301ffc9a760e01b815263df9db29f60e01b60048201526001600160a01b038216906301ffc9a790602401602060405180830381865afa158015610ac3573d6000803e3d6000fd5b505050506040513d601f19601f82011682018060405250810190610ae79190611121565b610b335760405162461bcd60e51b815260206004820152601f60248201527f70726f6a65637420696e74657266616365206e6f7420737570706f727465640060448201526064016105e1565b6001600160a01b03811660009081526003602052604090205460ff16610b88576040516001600160a01b038216907f8b16df08b6a45161a2accfac7e351325ff3df2aed213dd821e0be370c010831c90600090a25b6001600160a01b03166000908152600360205260409020805460ff19166001179055565b600082815260208190526040902060010154610bc781610bd1565b61057c8383610c70565b610bdb8133610d51565b50565b6000610bea83836108fc565b610c68576000838152602081815260408083206001600160a01b03861684529091529020805460ff19166001179055610c203390565b6001600160a01b0316826001600160a01b0316847f2f8788117e7eff1d82e926ec794901d17c78024a50270940304540a733656f0d60405160405180910390a45060016104b7565b5060006104b7565b6000610c7c83836108fc565b15610c68576000838152602081815260408083206001600160a01b0386168085529252808320805460ff1916905551339286917ff6391f5c32d9c69d2a47ea670b442974b53935d1edc7fd64eb21e047a839171b9190a45060016104b7565b6060600080846001600160a01b031684604051610cf89190611143565b600060405180830381855af49150503d8060008114610d33576040519150601f19603f3d011682016040523d82523d6000602084013e610d38565b606091505b5091509150610d48858383610d8a565b95945050505050565b610d5b82826108fc565b6106845760405163e2517d3f60e01b81526001600160a01b0382166004820152602481018390526044016105e1565b606082610d9f57610d9a82610de9565b610de2565b8151158015610db657506001600160a01b0384163b155b15610ddf57604051639996b31560e01b81526001600160a01b03851660048201526024016105e1565b50805b9392505050565b805115610df95780518082602001fd5b604051630a12f52160e11b815260040160405180910390fd5b600060208284031215610e2457600080fd5b81356001600160e01b031981168114610de257600080fd5b6001600160a01b0381168114610bdb57600080fd5b600060208284031215610e6357600080fd5b8135610de281610e3c565b60005b83811015610e89578181015183820152602001610e71565b50506000910152565b60008151808452610eaa816020860160208601610e6e565b601f01601f19169290920160200192915050565b602081526000610de26020830184610e92565b600060208284031215610ee357600080fd5b5035919050565b60008060408385031215610efd57600080fd5b823591506020830135610f0f81610e3c565b809150509250929050565b60008060208385031215610f2d57600080fd5b823567ffffffffffffffff80821115610f4557600080fd5b818501915085601f830112610f5957600080fd5b813581811115610f6857600080fd5b8660208260051b8501011115610f7d57600080fd5b60209290920196919550909350505050565b6000602080830181845280855180835260408601915060408160051b870101925083870160005b82811015610fe457603f19888603018452610fd2858351610e92565b94509285019290850190600101610fb6565b5092979650505050505050565b600181811c9082168061100557607f821691505b60208210810361102557634e487b7160e01b600052602260045260246000fd5b50919050565b6020808252600c908201526b2737ba1030b71030b236b4b760a11b604082015260600190565b634e487b7160e01b600052601160045260246000fd5b634e487b7160e01b600052604160045260246000fd5b634e487b7160e01b600052603260045260246000fd5b6000808335601e198436030181126110aa57600080fd5b83018035915067ffffffffffffffff8211156110c557600080fd5b6020019150368190038213156110da57600080fd5b9250929050565b8284823760008382016000815283516110fe818360208801610e6e565b0195945050505050565b60006001820161111a5761111a611051565b5060010190565b60006020828403121561113357600080fd5b81518015158114610de257600080fd5b60008251611155818460208701610e6e565b919091019291505056fea26469706673582212202d0da14514f557f0d598855abb199ee96601f2d9f685ec3305e7cc8b34dd26c064736f6c63430008140033",
  "linkReferences": {},
  "deployedLinkReferences": {}
}