{
  "src/contracts/projects/C2CProject.sol": {
    "C2CProject": {
      "abi": [
        {
          "inputs": [
            {
              "internalType": "string",
              "name": "_name",
              "type": "string"
            }
          ],
          "stateMutability": "nonpayable",
          "type": "constructor"
        },
        {
          "inputs": [
            {
              "internalType": "address",
              "name": "target",
              "type": "address"
            }
          ],
          "name": "AddressEmptyCode",
          "type": "error"
        },
        {
          "inputs": [],
          "name": "FailedInnerCall",
          "type": "error"
        },
        {
          "anonymous": false,
          "inputs": [
            {
              "indexed": true,
              "internalType": "address",
              "name": "",
              "type": "address"
            }
          ],
          "name": "BeneficiaryAdded",
          "type": "event"
        },
        {
          "anonymous": false,
          "inputs": [
            {
              "indexed": true,
              "internalType": "address",
              "name": "",
              "type": "address"
            }
          ],
          "name": "BeneficiaryRemoved",
          "type": "event"
        },
        {
          "anonymous": false,
          "inputs": [
            {
              "indexed": true,
              "internalType": "address",
              "name": "tokenAddress",
              "type": "address"
            },
            {
              "indexed": false,
              "internalType": "uint256",
              "name": "amount",
              "type": "uint256"
            }
          ],
          "name": "TokenBudgetDecrease",
          "type": "event"
        },
        {
          "anonymous": false,
          "inputs": [
            {
              "indexed": true,
              "internalType": "address",
              "name": "tokenAddress",
              "type": "address"
            },
            {
              "indexed": false,
              "internalType": "uint256",
              "name": "amount",
              "type": "uint256"
            }
          ],
          "name": "TokenBudgetIncrease",
          "type": "event"
        },
        {
          "anonymous": false,
          "inputs": [
            {
              "indexed": true,
              "internalType": "address",
              "name": "token",
              "type": "address"
            },
            {
              "indexed": true,
              "internalType": "address",
              "name": "from",
              "type": "address"
            },
            {
              "indexed": false,
              "internalType": "uint256",
              "name": "amount",
              "type": "uint256"
            }
          ],
          "name": "TokenReceived",
          "type": "event"
        },
        {
          "anonymous": false,
          "inputs": [
            {
              "indexed": true,
              "internalType": "address",
              "name": "tokenAddress",
              "type": "address"
            }
          ],
          "name": "TokenRegistered",
          "type": "event"
        },
        {
          "anonymous": false,
          "inputs": [
            {
              "indexed": true,
              "internalType": "address",
              "name": "token",
              "type": "address"
            },
            {
              "indexed": true,
              "internalType": "address",
              "name": "to",
              "type": "address"
            },
            {
              "indexed": false,
              "internalType": "uint256",
              "name": "amount",
              "type": "uint256"
            }
          ],
          "name": "TokenTransfer",
          "type": "event"
        },
        {
          "anonymous": false,
          "inputs": [
            {
              "indexed": true,
              "internalType": "address",
              "name": "_beneficiary",
              "type": "address"
            },
            {
              "indexed": true,
              "internalType": "address",
              "name": "_tokenAddress",
              "type": "address"
            },
            {
              "indexed": false,
              "internalType": "uint256",
              "name": "_amount",
              "type": "uint256"
            }
          ],
          "name": "TransferProcessed",
          "type": "event"
        },
        {
          "inputs": [],
          "name": "IID_RAHAT_PROJECT",
          "outputs": [
            {
              "internalType": "bytes4",
              "name": "",
              "type": "bytes4"
            }
          ],
          "stateMutability": "view",
          "type": "function"
        },
        {
          "inputs": [
            {
              "internalType": "address",
              "name": "_from",
              "type": "address"
            },
            {
              "internalType": "address",
              "name": "_tokenAddress",
              "type": "address"
            },
            {
              "internalType": "uint256",
              "name": "_amount",
              "type": "uint256"
            }
          ],
          "name": "acceptToken",
          "outputs": [],
          "stateMutability": "nonpayable",
          "type": "function"
        },
        {
          "inputs": [
            {
              "internalType": "address",
              "name": "_beneficiary",
              "type": "address"
            }
          ],
          "name": "addBeneficiary",
          "outputs": [],
          "stateMutability": "nonpayable",
          "type": "function"
        },
        {
          "inputs": [],
          "name": "beneficiaryCount",
          "outputs": [
            {
              "internalType": "uint256",
              "name": "",
              "type": "uint256"
            }
          ],
          "stateMutability": "view",
          "type": "function"
        },
        {
          "inputs": [
            {
              "internalType": "address",
              "name": "_beneficiary",
              "type": "address"
            },
            {
              "internalType": "address",
              "name": "_tokenAddress",
              "type": "address"
            },
            {
              "internalType": "uint256",
              "name": "_amount",
              "type": "uint256"
            }
          ],
          "name": "disburseExternalToken",
          "outputs": [],
          "stateMutability": "nonpayable",
          "type": "function"
        },
        {
          "inputs": [
            {
              "internalType": "address",
              "name": "_beneficiary",
              "type": "address"
            },
            {
              "internalType": "address",
              "name": "_tokenAddress",
              "type": "address"
            },
            {
              "internalType": "uint256",
              "name": "_amount",
              "type": "uint256"
            }
          ],
          "name": "disburseProjectToken",
          "outputs": [],
          "stateMutability": "nonpayable",
          "type": "function"
        },
        {
          "inputs": [
            {
              "internalType": "address",
              "name": "_address",
              "type": "address"
            }
          ],
          "name": "isBeneficiary",
          "outputs": [
            {
              "internalType": "bool",
              "name": "",
              "type": "bool"
            }
          ],
          "stateMutability": "view",
          "type": "function"
        },
        {
          "inputs": [
            {
              "internalType": "address",
              "name": "",
              "type": "address"
            }
          ],
          "name": "isDonor",
          "outputs": [
            {
              "internalType": "bool",
              "name": "",
              "type": "bool"
            }
          ],
          "stateMutability": "view",
          "type": "function"
        },
        {
          "inputs": [
            {
              "internalType": "bytes[]",
              "name": "data",
              "type": "bytes[]"
            }
          ],
          "name": "multicall",
          "outputs": [
            {
              "internalType": "bytes[]",
              "name": "results",
              "type": "bytes[]"
            }
          ],
          "stateMutability": "nonpayable",
          "type": "function"
        },
        {
          "inputs": [],
          "name": "name",
          "outputs": [
            {
              "internalType": "string",
              "name": "",
              "type": "string"
            }
          ],
          "stateMutability": "view",
          "type": "function"
        },
        {
          "inputs": [
            {
              "internalType": "address",
              "name": "_beneficiary",
              "type": "address"
            }
          ],
          "name": "removeBeneficiary",
          "outputs": [],
          "stateMutability": "nonpayable",
          "type": "function"
        },
        {
          "inputs": [
            {
              "internalType": "bytes4",
              "name": "interfaceId",
              "type": "bytes4"
            }
          ],
          "name": "supportsInterface",
          "outputs": [
            {
              "internalType": "bool",
              "name": "",
              "type": "bool"
            }
          ],
          "stateMutability": "view",
          "type": "function"
        },
        {
          "inputs": [
            {
              "internalType": "address",
              "name": "_tokenAddress",
              "type": "address"
            }
          ],
          "name": "tokenBudget",
          "outputs": [
            {
              "internalType": "uint256",
              "name": "",
              "type": "uint256"
            }
          ],
          "stateMutability": "view",
          "type": "function"
        },
        {
          "inputs": [
            {
              "internalType": "address",
              "name": "_tokenAddress",
              "type": "address"
            },
            {
              "internalType": "address",
              "name": "_withdrawAddress",
              "type": "address"
            }
          ],
          "name": "withdrawToken",
          "outputs": [],
          "stateMutability": "nonpayable",
          "type": "function"
        }
      ],
      "evm": {
        "bytecode": {
          "linkReferences": {},
          "object": "60806040523480156200001157600080fd5b50604051620012ef380380620012ef833981016040819052620000349162000062565b806002620000438282620001c6565b50505062000292565b634e487b7160e01b600052604160045260246000fd5b600060208083850312156200007657600080fd5b82516001600160401b03808211156200008e57600080fd5b818501915085601f830112620000a357600080fd5b815181811115620000b857620000b86200004c565b604051601f8201601f19908116603f01168101908382118183101715620000e357620000e36200004c565b816040528281528886848701011115620000fc57600080fd5b600093505b8284101562000120578484018601518185018701529285019262000101565b600086848301015280965050505050505092915050565b600181811c908216806200014c57607f821691505b6020821081036200016d57634e487b7160e01b600052602260045260246000fd5b50919050565b601f821115620001c157600081815260208120601f850160051c810160208610156200019c5750805b601f850160051c820191505b81811015620001bd57828155600101620001a8565b5050505b505050565b81516001600160401b03811115620001e257620001e26200004c565b620001fa81620001f3845462000137565b8462000173565b602080601f831160018114620002325760008415620002195750858301515b600019600386901b1c1916600185901b178555620001bd565b600085815260208120601f198616915b82811015620002635788860151825594840194600190910190840162000242565b5085821015620002825787850151600019600388901b60f8161c191681555b5050505050600190811b01905550565b61104d80620002a26000396000f3fe608060405234801561001057600080fd5b50600436106100ea5760003560e01c806359633a1c1161008c578063a6d0edfd11610066578063a6d0edfd146101fe578063ac9650d814610211578063e055fd7c14610231578063eb681e621461024457600080fd5b806359633a1c146101c2578063734b2a7c146101d55780639d19b226146101eb57600080fd5b80633aeac4e1116100c85780633aeac4e1146101605780634fe21571146101755780635704479d1461019c5780635926651d146101af57600080fd5b806301ffc9a7146100ef57806306fdde03146101285780632bc3d7aa1461013d575b600080fd5b6101136100fd366004610c70565b6001600160e01b0319166301c1039d60e11b1490565b60405190151581526020015b60405180910390f35b61013061026d565b60405161011f9190610cea565b61011361014b366004610d19565b60056020526000908152604090205460ff1681565b61017361016e366004610d34565b6102fb565b005b6101836301c1039d60e11b81565b6040516001600160e01b0319909116815260200161011f565b6101736101aa366004610d67565b610378565b6101736101bd366004610d19565b6103a6565b6101736101d0366004610d19565b6103b2565b6101dd6103bb565b60405190815260200161011f565b6101136101f9366004610d19565b6103cc565b61017361020c366004610d67565b6103df565b61022461021f366004610da3565b6104f7565b60405161011f9190610e18565b61017361023f366004610d67565b6105ea565b6101dd610252366004610d19565b6001600160a01b031660009081526020819052604090205490565b6002805461027a90610e7a565b80601f01602080910402602001604051908101604052809291908181526020018280546102a690610e7a565b80156102f35780601f106102c8576101008083540402835291602001916102f3565b820191906000526020600020905b8154815290600101906020018083116102d657829003601f168201915b505050505081565b6040516370a0823160e01b81523060048201526000906001600160a01b038416906370a0823190602401602060405180830381865afa158015610342573d6000803e3d6000fd5b505050506040513d601f19601f820116820180604052508101906103669190610eb4565b90506103738382846106d5565b505050565b6001600160a01b0383166000908152600560205260409020805460ff19166001179055610373828483610724565b6103af816107ed565b50565b6103af81610840565b60006103c76003610890565b905090565b60006103d960038361089a565b92915050565b6103e8836103a6565b6040516323b872dd60e01b81523360048201526001600160a01b038481166024830152604482018390528316906323b872dd906064015b6020604051808303816000875af115801561043e573d6000803e3d6000fd5b505050506040513d601f19601f820116820180604052508101906104629190610ecd565b6104a55760405162461bcd60e51b815260206004820152600f60248201526e151c985b9cd9995c8811985a5b1959608a1b60448201526064015b60405180910390fd5b816001600160a01b0316836001600160a01b03167fd8f9762f05f3af2ac775e4ddd9546363bd1cd32c9434b5b150185a1a28e3625e836040516104ea91815260200190565b60405180910390a3505050565b6040805160008152602081019091526060908267ffffffffffffffff81111561052257610522610f18565b60405190808252806020026020018201604052801561055557816020015b60608152602001906001900390816105405790505b50915060005b838110156105e2576105b23086868481811061057957610579610f2e565b905060200281019061058b9190610f44565b8560405160200161059e93929190610f92565b6040516020818303038152906040526108bf565b8382815181106105c4576105c4610f2e565b602002602001018190525080806105da90610fb9565b91505061055b565b505092915050565b6105f3836103a6565b6040516370a0823160e01b815230600482015281906001600160a01b038416906370a0823190602401602060405180830381865afa158015610639573d6000803e3d6000fd5b505050506040513d601f19601f8201168201806040525081019061065d9190610eb4565b10156106a05760405162461bcd60e51b81526020600482015260126024820152714e6f7420656e6f7567682062616c616e636560701b604482015260640161049c565b60405163a9059cbb60e01b81526001600160a01b0384811660048301526024820183905283169063a9059cbb9060440161041f565b6106df8383610935565b806001600160a01b0316836001600160a01b03167fd0ed88a3f042c6bbb1e3ea406079b5f2b4b198afccaa535d837f4c63abbc4de6846040516104ea91815260200190565b6040516323b872dd60e01b81526001600160a01b038381166004830152306024830152604482018390528416906323b872dd906064016020604051808303816000875af1158015610779573d6000803e3d6000fd5b505050506040513d601f19601f8201168201806040525081019061079d9190610ecd565b506107a883826109a4565b816001600160a01b0316836001600160a01b03167fa83965f0e7c5e026e57c9ba2dd91e4ebcca352f2d514498c1e9ed23ba6538600836040516104ea91815260200190565b6107f860038261089a565b610831576040516001600160a01b038216907fc3e089fc6227e049d0e41c3d7a383d57efe69c1955c5752f7e5a9b5f1f11302090600090a25b61083c600382610a7f565b5050565b61084b60038261089a565b15610885576040516001600160a01b038216907f72977dad29432f655f11c2f0e72ef5124bb9ade7a512fb7a43a9f504df22342890600090a25b61083c600382610a94565b60006103d9825490565b6001600160a01b038116600090815260018301602052604081205415155b9392505050565b6060600080846001600160a01b0316846040516108dc9190610fd2565b600060405180830381855af49150503d8060008114610917576040519150601f19603f3d011682016040523d82523d6000602084013e61091c565b606091505b509150915061092c858383610aa9565b95945050505050565b6001600160a01b0382166000908152602081905260408120805483929061095d908490610f05565b90915550506040518181526001600160a01b038316907f854a0a098d6cafcdbf8cc91b503d29e40e31095273eec189216a6ed881543eb49060200160405180910390a25050565b6001600160a01b038216600090815260208190526040812080548392906109cc908490610fee565b90915550506040518181526001600160a01b038316907fe49f42d07d8046279c22af872fe6bc5678c4dfc38ace0f43b8e8d5a03d0e8f109060200160405180910390a26001600160a01b03821660009081526001602052604090205460ff1661083c576001600160a01b0382166000818152600160208190526040808320805460ff1916909217909155517f158412daecdc1456d01568828bcdb18464cc7f1ce0215ddbc3f3cfede9d1e63d9190a25050565b60006108b8836001600160a01b038416610b05565b60006108b8836001600160a01b038416610b54565b606082610abe57610ab982610c47565b6108b8565b8151158015610ad557506001600160a01b0384163b155b15610afe57604051639996b31560e01b81526001600160a01b038516600482015260240161049c565b5092915050565b6000818152600183016020526040812054610b4c575081546001818101845560008481526020808220909301849055845484825282860190935260409020919091556103d9565b5060006103d9565b60008181526001830160205260408120548015610c3d576000610b78600183610f05565b8554909150600090610b8c90600190610f05565b9050808214610bf1576000866000018281548110610bac57610bac610f2e565b9060005260206000200154905080876000018481548110610bcf57610bcf610f2e565b6000918252602080832090910192909255918252600188019052604090208390555b8554869080610c0257610c02611001565b6001900381819060005260206000200160009055905585600101600086815260200190815260200160002060009055600193505050506103d9565b60009150506103d9565b805115610c575780518082602001fd5b604051630a12f52160e11b815260040160405180910390fd5b600060208284031215610c8257600080fd5b81356001600160e01b0319811681146108b857600080fd5b60005b83811015610cb5578181015183820152602001610c9d565b50506000910152565b60008151808452610cd6816020860160208601610c9a565b601f01601f19169290920160200192915050565b6020815260006108b86020830184610cbe565b80356001600160a01b0381168114610d1457600080fd5b919050565b600060208284031215610d2b57600080fd5b6108b882610cfd565b60008060408385031215610d4757600080fd5b610d5083610cfd565b9150610d5e60208401610cfd565b90509250929050565b600080600060608486031215610d7c57600080fd5b610d8584610cfd565b9250610d9360208501610cfd565b9150604084013590509250925092565b60008060208385031215610db657600080fd5b823567ffffffffffffffff80821115610dce57600080fd5b818501915085601f830112610de257600080fd5b813581811115610df157600080fd5b8660208260051b8501011115610e0657600080fd5b60209290920196919550909350505050565b6000602080830181845280855180835260408601915060408160051b870101925083870160005b82811015610e6d57603f19888603018452610e5b858351610cbe565b94509285019290850190600101610e3f565b5092979650505050505050565b600181811c90821680610e8e57607f821691505b602082108103610eae57634e487b7160e01b600052602260045260246000fd5b50919050565b600060208284031215610ec657600080fd5b5051919050565b600060208284031215610edf57600080fd5b815180151581146108b857600080fd5b634e487b7160e01b600052601160045260246000fd5b818103818111156103d9576103d9610eef565b634e487b7160e01b600052604160045260246000fd5b634e487b7160e01b600052603260045260246000fd5b6000808335601e19843603018112610f5b57600080fd5b83018035915067ffffffffffffffff821115610f7657600080fd5b602001915036819003821315610f8b57600080fd5b9250929050565b828482376000838201600081528351610faf818360208801610c9a565b0195945050505050565b600060018201610fcb57610fcb610eef565b5060010190565b60008251610fe4818460208701610c9a565b9190910192915050565b808201808211156103d9576103d9610eef565b634e487b7160e01b600052603160045260246000fdfea26469706673582212205c37fe0ecfa95054ede21fedf1b21c92b75fc5cea5f0bf5e10af79482770cebd64736f6c63430008140033",
          "opcodes": "PUSH1 0x80 PUSH1 0x40 MSTORE CALLVALUE DUP1 ISZERO PUSH3 0x11 JUMPI PUSH1 0x0 DUP1 REVERT JUMPDEST POP PUSH1 0x40 MLOAD PUSH3 0x12EF CODESIZE SUB DUP1 PUSH3 0x12EF DUP4 CODECOPY DUP2 ADD PUSH1 0x40 DUP2 SWAP1 MSTORE PUSH3 0x34 SWAP2 PUSH3 0x62 JUMP JUMPDEST DUP1 PUSH1 0x2 PUSH3 0x43 DUP3 DUP3 PUSH3 0x1C6 JUMP JUMPDEST POP POP POP PUSH3 0x292 JUMP JUMPDEST PUSH4 0x4E487B71 PUSH1 0xE0 SHL PUSH1 0x0 MSTORE PUSH1 0x41 PUSH1 0x4 MSTORE PUSH1 0x24 PUSH1 0x0 REVERT JUMPDEST PUSH1 0x0 PUSH1 0x20 DUP1 DUP4 DUP6 SUB SLT ISZERO PUSH3 0x76 JUMPI PUSH1 0x0 DUP1 REVERT JUMPDEST DUP3 MLOAD PUSH1 0x1 PUSH1 0x1 PUSH1 0x40 SHL SUB DUP1 DUP3 GT ISZERO PUSH3 0x8E JUMPI PUSH1 0x0 DUP1 REVERT JUMPDEST DUP2 DUP6 ADD SWAP2 POP DUP6 PUSH1 0x1F DUP4 ADD SLT PUSH3 0xA3 JUMPI PUSH1 0x0 DUP1 REVERT JUMPDEST DUP2 MLOAD DUP2 DUP2 GT ISZERO PUSH3 0xB8 JUMPI PUSH3 0xB8 PUSH3 0x4C JUMP JUMPDEST PUSH1 0x40 MLOAD PUSH1 0x1F DUP3 ADD PUSH1 0x1F NOT SWAP1 DUP2 AND PUSH1 0x3F ADD AND DUP2 ADD SWAP1 DUP4 DUP3 GT DUP2 DUP4 LT OR ISZERO PUSH3 0xE3 JUMPI PUSH3 0xE3 PUSH3 0x4C JUMP JUMPDEST DUP2 PUSH1 0x40 MSTORE DUP3 DUP2 MSTORE DUP9 DUP7 DUP5 DUP8 ADD ADD GT ISZERO PUSH3 0xFC JUMPI PUSH1 0x0 DUP1 REVERT JUMPDEST PUSH1 0x0 SWAP4 POP JUMPDEST DUP3 DUP5 LT ISZERO PUSH3 0x120 JUMPI DUP5 DUP5 ADD DUP7 ADD MLOAD DUP2 DUP6 ADD DUP8 ADD MSTORE SWAP3 DUP6 ADD SWAP3 PUSH3 0x101 JUMP JUMPDEST PUSH1 0x0 DUP7 DUP5 DUP4 ADD ADD MSTORE DUP1 SWAP7 POP POP POP POP POP POP POP SWAP3 SWAP2 POP POP JUMP JUMPDEST PUSH1 0x1 DUP2 DUP2 SHR SWAP1 DUP3 AND DUP1 PUSH3 0x14C JUMPI PUSH1 0x7F DUP3 AND SWAP2 POP JUMPDEST PUSH1 0x20 DUP3 LT DUP2 SUB PUSH3 0x16D JUMPI PUSH4 0x4E487B71 PUSH1 0xE0 SHL PUSH1 0x0 MSTORE PUSH1 0x22 PUSH1 0x4 MSTORE PUSH1 0x24 PUSH1 0x0 REVERT JUMPDEST POP SWAP2 SWAP1 POP JUMP JUMPDEST PUSH1 0x1F DUP3 GT ISZERO PUSH3 0x1C1 JUMPI PUSH1 0x0 DUP2 DUP2 MSTORE PUSH1 0x20 DUP2 KECCAK256 PUSH1 0x1F DUP6 ADD PUSH1 0x5 SHR DUP2 ADD PUSH1 0x20 DUP7 LT ISZERO PUSH3 0x19C JUMPI POP DUP1 JUMPDEST PUSH1 0x1F DUP6 ADD PUSH1 0x5 SHR DUP3 ADD SWAP2 POP JUMPDEST DUP2 DUP2 LT ISZERO PUSH3 0x1BD JUMPI DUP3 DUP2 SSTORE PUSH1 0x1 ADD PUSH3 0x1A8 JUMP JUMPDEST POP POP POP JUMPDEST POP POP POP JUMP JUMPDEST DUP2 MLOAD PUSH1 0x1 PUSH1 0x1 PUSH1 0x40 SHL SUB DUP2 GT ISZERO PUSH3 0x1E2 JUMPI PUSH3 0x1E2 PUSH3 0x4C JUMP JUMPDEST PUSH3 0x1FA DUP2 PUSH3 0x1F3 DUP5 SLOAD PUSH3 0x137 JUMP JUMPDEST DUP5 PUSH3 0x173 JUMP JUMPDEST PUSH1 0x20 DUP1 PUSH1 0x1F DUP4 GT PUSH1 0x1 DUP2 EQ PUSH3 0x232 JUMPI PUSH1 0x0 DUP5 ISZERO PUSH3 0x219 JUMPI POP DUP6 DUP4 ADD MLOAD JUMPDEST PUSH1 0x0 NOT PUSH1 0x3 DUP7 SWAP1 SHL SHR NOT AND PUSH1 0x1 DUP6 SWAP1 SHL OR DUP6 SSTORE PUSH3 0x1BD JUMP JUMPDEST PUSH1 0x0 DUP6 DUP2 MSTORE PUSH1 0x20 DUP2 KECCAK256 PUSH1 0x1F NOT DUP7 AND SWAP2 JUMPDEST DUP3 DUP2 LT ISZERO PUSH3 0x263 JUMPI DUP9 DUP7 ADD MLOAD DUP3 SSTORE SWAP5 DUP5 ADD SWAP5 PUSH1 0x1 SWAP1 SWAP2 ADD SWAP1 DUP5 ADD PUSH3 0x242 JUMP JUMPDEST POP DUP6 DUP3 LT ISZERO PUSH3 0x282 JUMPI DUP8 DUP6 ADD MLOAD PUSH1 0x0 NOT PUSH1 0x3 DUP9 SWAP1 SHL PUSH1 0xF8 AND SHR NOT AND DUP2 SSTORE JUMPDEST POP POP POP POP POP PUSH1 0x1 SWAP1 DUP2 SHL ADD SWAP1 SSTORE POP JUMP JUMPDEST PUSH2 0x104D DUP1 PUSH3 0x2A2 PUSH1 0x0 CODECOPY PUSH1 0x0 RETURN INVALID PUSH1 0x80 PUSH1 0x40 MSTORE CALLVALUE DUP1 ISZERO PUSH2 0x10 JUMPI PUSH1 0x0 DUP1 REVERT JUMPDEST POP PUSH1 0x4 CALLDATASIZE LT PUSH2 0xEA JUMPI PUSH1 0x0 CALLDATALOAD PUSH1 0xE0 SHR DUP1 PUSH4 0x59633A1C GT PUSH2 0x8C JUMPI DUP1 PUSH4 0xA6D0EDFD GT PUSH2 0x66 JUMPI DUP1 PUSH4 0xA6D0EDFD EQ PUSH2 0x1FE JUMPI DUP1 PUSH4 0xAC9650D8 EQ PUSH2 0x211 JUMPI DUP1 PUSH4 0xE055FD7C EQ PUSH2 0x231 JUMPI DUP1 PUSH4 0xEB681E62 EQ PUSH2 0x244 JUMPI PUSH1 0x0 DUP1 REVERT JUMPDEST DUP1 PUSH4 0x59633A1C EQ PUSH2 0x1C2 JUMPI DUP1 PUSH4 0x734B2A7C EQ PUSH2 0x1D5 JUMPI DUP1 PUSH4 0x9D19B226 EQ PUSH2 0x1EB JUMPI PUSH1 0x0 DUP1 REVERT JUMPDEST DUP1 PUSH4 0x3AEAC4E1 GT PUSH2 0xC8 JUMPI DUP1 PUSH4 0x3AEAC4E1 EQ PUSH2 0x160 JUMPI DUP1 PUSH4 0x4FE21571 EQ PUSH2 0x175 JUMPI DUP1 PUSH4 0x5704479D EQ PUSH2 0x19C JUMPI DUP1 PUSH4 0x5926651D EQ PUSH2 0x1AF JUMPI PUSH1 0x0 DUP1 REVERT JUMPDEST DUP1 PUSH4 0x1FFC9A7 EQ PUSH2 0xEF JUMPI DUP1 PUSH4 0x6FDDE03 EQ PUSH2 0x128 JUMPI DUP1 PUSH4 0x2BC3D7AA EQ PUSH2 0x13D JUMPI JUMPDEST PUSH1 0x0 DUP1 REVERT JUMPDEST PUSH2 0x113 PUSH2 0xFD CALLDATASIZE PUSH1 0x4 PUSH2 0xC70 JUMP JUMPDEST PUSH1 0x1 PUSH1 0x1 PUSH1 0xE0 SHL SUB NOT AND PUSH4 0x1C1039D PUSH1 0xE1 SHL EQ SWAP1 JUMP JUMPDEST PUSH1 0x40 MLOAD SWAP1 ISZERO ISZERO DUP2 MSTORE PUSH1 0x20 ADD JUMPDEST PUSH1 0x40 MLOAD DUP1 SWAP2 SUB SWAP1 RETURN JUMPDEST PUSH2 0x130 PUSH2 0x26D JUMP JUMPDEST PUSH1 0x40 MLOAD PUSH2 0x11F SWAP2 SWAP1 PUSH2 0xCEA JUMP JUMPDEST PUSH2 0x113 PUSH2 0x14B CALLDATASIZE PUSH1 0x4 PUSH2 0xD19 JUMP JUMPDEST PUSH1 0x5 PUSH1 0x20 MSTORE PUSH1 0x0 SWAP1 DUP2 MSTORE PUSH1 0x40 SWAP1 KECCAK256 SLOAD PUSH1 0xFF AND DUP2 JUMP JUMPDEST PUSH2 0x173 PUSH2 0x16E CALLDATASIZE PUSH1 0x4 PUSH2 0xD34 JUMP JUMPDEST PUSH2 0x2FB JUMP JUMPDEST STOP JUMPDEST PUSH2 0x183 PUSH4 0x1C1039D PUSH1 0xE1 SHL DUP2 JUMP JUMPDEST PUSH1 0x40 MLOAD PUSH1 0x1 PUSH1 0x1 PUSH1 0xE0 SHL SUB NOT SWAP1 SWAP2 AND DUP2 MSTORE PUSH1 0x20 ADD PUSH2 0x11F JUMP JUMPDEST PUSH2 0x173 PUSH2 0x1AA CALLDATASIZE PUSH1 0x4 PUSH2 0xD67 JUMP JUMPDEST PUSH2 0x378 JUMP JUMPDEST PUSH2 0x173 PUSH2 0x1BD CALLDATASIZE PUSH1 0x4 PUSH2 0xD19 JUMP JUMPDEST PUSH2 0x3A6 JUMP JUMPDEST PUSH2 0x173 PUSH2 0x1D0 CALLDATASIZE PUSH1 0x4 PUSH2 0xD19 JUMP JUMPDEST PUSH2 0x3B2 JUMP JUMPDEST PUSH2 0x1DD PUSH2 0x3BB JUMP JUMPDEST PUSH1 0x40 MLOAD SWAP1 DUP2 MSTORE PUSH1 0x20 ADD PUSH2 0x11F JUMP JUMPDEST PUSH2 0x113 PUSH2 0x1F9 CALLDATASIZE PUSH1 0x4 PUSH2 0xD19 JUMP JUMPDEST PUSH2 0x3CC JUMP JUMPDEST PUSH2 0x173 PUSH2 0x20C CALLDATASIZE PUSH1 0x4 PUSH2 0xD67 JUMP JUMPDEST PUSH2 0x3DF JUMP JUMPDEST PUSH2 0x224 PUSH2 0x21F CALLDATASIZE PUSH1 0x4 PUSH2 0xDA3 JUMP JUMPDEST PUSH2 0x4F7 JUMP JUMPDEST PUSH1 0x40 MLOAD PUSH2 0x11F SWAP2 SWAP1 PUSH2 0xE18 JUMP JUMPDEST PUSH2 0x173 PUSH2 0x23F CALLDATASIZE PUSH1 0x4 PUSH2 0xD67 JUMP JUMPDEST PUSH2 0x5EA JUMP JUMPDEST PUSH2 0x1DD PUSH2 0x252 CALLDATASIZE PUSH1 0x4 PUSH2 0xD19 JUMP JUMPDEST PUSH1 0x1 PUSH1 0x1 PUSH1 0xA0 SHL SUB AND PUSH1 0x0 SWAP1 DUP2 MSTORE PUSH1 0x20 DUP2 SWAP1 MSTORE PUSH1 0x40 SWAP1 KECCAK256 SLOAD SWAP1 JUMP JUMPDEST PUSH1 0x2 DUP1 SLOAD PUSH2 0x27A SWAP1 PUSH2 0xE7A JUMP JUMPDEST DUP1 PUSH1 0x1F ADD PUSH1 0x20 DUP1 SWAP2 DIV MUL PUSH1 0x20 ADD PUSH1 0x40 MLOAD SWAP1 DUP2 ADD PUSH1 0x40 MSTORE DUP1 SWAP3 SWAP2 SWAP1 DUP2 DUP2 MSTORE PUSH1 0x20 ADD DUP3 DUP1 SLOAD PUSH2 0x2A6 SWAP1 PUSH2 0xE7A JUMP JUMPDEST DUP1 ISZERO PUSH2 0x2F3 JUMPI DUP1 PUSH1 0x1F LT PUSH2 0x2C8 JUMPI PUSH2 0x100 DUP1 DUP4 SLOAD DIV MUL DUP4 MSTORE SWAP2 PUSH1 0x20 ADD SWAP2 PUSH2 0x2F3 JUMP JUMPDEST DUP3 ADD SWAP2 SWAP1 PUSH1 0x0 MSTORE PUSH1 0x20 PUSH1 0x0 KECCAK256 SWAP1 JUMPDEST DUP2 SLOAD DUP2 MSTORE SWAP1 PUSH1 0x1 ADD SWAP1 PUSH1 0x20 ADD DUP1 DUP4 GT PUSH2 0x2D6 JUMPI DUP3 SWAP1 SUB PUSH1 0x1F AND DUP3 ADD SWAP2 JUMPDEST POP POP POP POP POP DUP2 JUMP JUMPDEST PUSH1 0x40 MLOAD PUSH4 0x70A08231 PUSH1 0xE0 SHL DUP2 MSTORE ADDRESS PUSH1 0x4 DUP3 ADD MSTORE PUSH1 0x0 SWAP1 PUSH1 0x1 PUSH1 0x1 PUSH1 0xA0 SHL SUB DUP5 AND SWAP1 PUSH4 0x70A08231 SWAP1 PUSH1 0x24 ADD PUSH1 0x20 PUSH1 0x40 MLOAD DUP1 DUP4 SUB DUP2 DUP7 GAS STATICCALL ISZERO DUP1 ISZERO PUSH2 0x342 JUMPI RETURNDATASIZE PUSH1 0x0 DUP1 RETURNDATACOPY RETURNDATASIZE PUSH1 0x0 REVERT JUMPDEST POP POP POP POP PUSH1 0x40 MLOAD RETURNDATASIZE PUSH1 0x1F NOT PUSH1 0x1F DUP3 ADD AND DUP3 ADD DUP1 PUSH1 0x40 MSTORE POP DUP2 ADD SWAP1 PUSH2 0x366 SWAP2 SWAP1 PUSH2 0xEB4 JUMP JUMPDEST SWAP1 POP PUSH2 0x373 DUP4 DUP3 DUP5 PUSH2 0x6D5 JUMP JUMPDEST POP POP POP JUMP JUMPDEST PUSH1 0x1 PUSH1 0x1 PUSH1 0xA0 SHL SUB DUP4 AND PUSH1 0x0 SWAP1 DUP2 MSTORE PUSH1 0x5 PUSH1 0x20 MSTORE PUSH1 0x40 SWAP1 KECCAK256 DUP1 SLOAD PUSH1 0xFF NOT AND PUSH1 0x1 OR SWAP1 SSTORE PUSH2 0x373 DUP3 DUP5 DUP4 PUSH2 0x724 JUMP JUMPDEST PUSH2 0x3AF DUP2 PUSH2 0x7ED JUMP JUMPDEST POP JUMP JUMPDEST PUSH2 0x3AF DUP2 PUSH2 0x840 JUMP JUMPDEST PUSH1 0x0 PUSH2 0x3C7 PUSH1 0x3 PUSH2 0x890 JUMP JUMPDEST SWAP1 POP SWAP1 JUMP JUMPDEST PUSH1 0x0 PUSH2 0x3D9 PUSH1 0x3 DUP4 PUSH2 0x89A JUMP JUMPDEST SWAP3 SWAP2 POP POP JUMP JUMPDEST PUSH2 0x3E8 DUP4 PUSH2 0x3A6 JUMP JUMPDEST PUSH1 0x40 MLOAD PUSH4 0x23B872DD PUSH1 0xE0 SHL DUP2 MSTORE CALLER PUSH1 0x4 DUP3 ADD MSTORE PUSH1 0x1 PUSH1 0x1 PUSH1 0xA0 SHL SUB DUP5 DUP2 AND PUSH1 0x24 DUP4 ADD MSTORE PUSH1 0x44 DUP3 ADD DUP4 SWAP1 MSTORE DUP4 AND SWAP1 PUSH4 0x23B872DD SWAP1 PUSH1 0x64 ADD JUMPDEST PUSH1 0x20 PUSH1 0x40 MLOAD DUP1 DUP4 SUB DUP2 PUSH1 0x0 DUP8 GAS CALL ISZERO DUP1 ISZERO PUSH2 0x43E JUMPI RETURNDATASIZE PUSH1 0x0 DUP1 RETURNDATACOPY RETURNDATASIZE PUSH1 0x0 REVERT JUMPDEST POP POP POP POP PUSH1 0x40 MLOAD RETURNDATASIZE PUSH1 0x1F NOT PUSH1 0x1F DUP3 ADD AND DUP3 ADD DUP1 PUSH1 0x40 MSTORE POP DUP2 ADD SWAP1 PUSH2 0x462 SWAP2 SWAP1 PUSH2 0xECD JUMP JUMPDEST PUSH2 0x4A5 JUMPI PUSH1 0x40 MLOAD PUSH3 0x461BCD PUSH1 0xE5 SHL DUP2 MSTORE PUSH1 0x20 PUSH1 0x4 DUP3 ADD MSTORE PUSH1 0xF PUSH1 0x24 DUP3 ADD MSTORE PUSH15 0x151C985B9CD9995C8811985A5B1959 PUSH1 0x8A SHL PUSH1 0x44 DUP3 ADD MSTORE PUSH1 0x64 ADD JUMPDEST PUSH1 0x40 MLOAD DUP1 SWAP2 SUB SWAP1 REVERT JUMPDEST DUP2 PUSH1 0x1 PUSH1 0x1 PUSH1 0xA0 SHL SUB AND DUP4 PUSH1 0x1 PUSH1 0x1 PUSH1 0xA0 SHL SUB AND PUSH32 0xD8F9762F05F3AF2AC775E4DDD9546363BD1CD32C9434B5B150185A1A28E3625E DUP4 PUSH1 0x40 MLOAD PUSH2 0x4EA SWAP2 DUP2 MSTORE PUSH1 0x20 ADD SWAP1 JUMP JUMPDEST PUSH1 0x40 MLOAD DUP1 SWAP2 SUB SWAP1 LOG3 POP POP POP JUMP JUMPDEST PUSH1 0x40 DUP1 MLOAD PUSH1 0x0 DUP2 MSTORE PUSH1 0x20 DUP2 ADD SWAP1 SWAP2 MSTORE PUSH1 0x60 SWAP1 DUP3 PUSH8 0xFFFFFFFFFFFFFFFF DUP2 GT ISZERO PUSH2 0x522 JUMPI PUSH2 0x522 PUSH2 0xF18 JUMP JUMPDEST PUSH1 0x40 MLOAD SWAP1 DUP1 DUP3 MSTORE DUP1 PUSH1 0x20 MUL PUSH1 0x20 ADD DUP3 ADD PUSH1 0x40 MSTORE DUP1 ISZERO PUSH2 0x555 JUMPI DUP2 PUSH1 0x20 ADD JUMPDEST PUSH1 0x60 DUP2 MSTORE PUSH1 0x20 ADD SWAP1 PUSH1 0x1 SWAP1 SUB SWAP1 DUP2 PUSH2 0x540 JUMPI SWAP1 POP JUMPDEST POP SWAP2 POP PUSH1 0x0 JUMPDEST DUP4 DUP2 LT ISZERO PUSH2 0x5E2 JUMPI PUSH2 0x5B2 ADDRESS DUP7 DUP7 DUP5 DUP2 DUP2 LT PUSH2 0x579 JUMPI PUSH2 0x579 PUSH2 0xF2E JUMP JUMPDEST SWAP1 POP PUSH1 0x20 MUL DUP2 ADD SWAP1 PUSH2 0x58B SWAP2 SWAP1 PUSH2 0xF44 JUMP JUMPDEST DUP6 PUSH1 0x40 MLOAD PUSH1 0x20 ADD PUSH2 0x59E SWAP4 SWAP3 SWAP2 SWAP1 PUSH2 0xF92 JUMP JUMPDEST PUSH1 0x40 MLOAD PUSH1 0x20 DUP2 DUP4 SUB SUB DUP2 MSTORE SWAP1 PUSH1 0x40 MSTORE PUSH2 0x8BF JUMP JUMPDEST DUP4 DUP3 DUP2 MLOAD DUP2 LT PUSH2 0x5C4 JUMPI PUSH2 0x5C4 PUSH2 0xF2E JUMP JUMPDEST PUSH1 0x20 MUL PUSH1 0x20 ADD ADD DUP2 SWAP1 MSTORE POP DUP1 DUP1 PUSH2 0x5DA SWAP1 PUSH2 0xFB9 JUMP JUMPDEST SWAP2 POP POP PUSH2 0x55B JUMP JUMPDEST POP POP SWAP3 SWAP2 POP POP JUMP JUMPDEST PUSH2 0x5F3 DUP4 PUSH2 0x3A6 JUMP JUMPDEST PUSH1 0x40 MLOAD PUSH4 0x70A08231 PUSH1 0xE0 SHL DUP2 MSTORE ADDRESS PUSH1 0x4 DUP3 ADD MSTORE DUP2 SWAP1 PUSH1 0x1 PUSH1 0x1 PUSH1 0xA0 SHL SUB DUP5 AND SWAP1 PUSH4 0x70A08231 SWAP1 PUSH1 0x24 ADD PUSH1 0x20 PUSH1 0x40 MLOAD DUP1 DUP4 SUB DUP2 DUP7 GAS STATICCALL ISZERO DUP1 ISZERO PUSH2 0x639 JUMPI RETURNDATASIZE PUSH1 0x0 DUP1 RETURNDATACOPY RETURNDATASIZE PUSH1 0x0 REVERT JUMPDEST POP POP POP POP PUSH1 0x40 MLOAD RETURNDATASIZE PUSH1 0x1F NOT PUSH1 0x1F DUP3 ADD AND DUP3 ADD DUP1 PUSH1 0x40 MSTORE POP DUP2 ADD SWAP1 PUSH2 0x65D SWAP2 SWAP1 PUSH2 0xEB4 JUMP JUMPDEST LT ISZERO PUSH2 0x6A0 JUMPI PUSH1 0x40 MLOAD PUSH3 0x461BCD PUSH1 0xE5 SHL DUP2 MSTORE PUSH1 0x20 PUSH1 0x4 DUP3 ADD MSTORE PUSH1 0x12 PUSH1 0x24 DUP3 ADD MSTORE PUSH18 0x4E6F7420656E6F7567682062616C616E6365 PUSH1 0x70 SHL PUSH1 0x44 DUP3 ADD MSTORE PUSH1 0x64 ADD PUSH2 0x49C JUMP JUMPDEST PUSH1 0x40 MLOAD PUSH4 0xA9059CBB PUSH1 0xE0 SHL DUP2 MSTORE PUSH1 0x1 PUSH1 0x1 PUSH1 0xA0 SHL SUB DUP5 DUP2 AND PUSH1 0x4 DUP4 ADD MSTORE PUSH1 0x24 DUP3 ADD DUP4 SWAP1 MSTORE DUP4 AND SWAP1 PUSH4 0xA9059CBB SWAP1 PUSH1 0x44 ADD PUSH2 0x41F JUMP JUMPDEST PUSH2 0x6DF DUP4 DUP4 PUSH2 0x935 JUMP JUMPDEST DUP1 PUSH1 0x1 PUSH1 0x1 PUSH1 0xA0 SHL SUB AND DUP4 PUSH1 0x1 PUSH1 0x1 PUSH1 0xA0 SHL SUB AND PUSH32 0xD0ED88A3F042C6BBB1E3EA406079B5F2B4B198AFCCAA535D837F4C63ABBC4DE6 DUP5 PUSH1 0x40 MLOAD PUSH2 0x4EA SWAP2 DUP2 MSTORE PUSH1 0x20 ADD SWAP1 JUMP JUMPDEST PUSH1 0x40 MLOAD PUSH4 0x23B872DD PUSH1 0xE0 SHL DUP2 MSTORE PUSH1 0x1 PUSH1 0x1 PUSH1 0xA0 SHL SUB DUP4 DUP2 AND PUSH1 0x4 DUP4 ADD MSTORE ADDRESS PUSH1 0x24 DUP4 ADD MSTORE PUSH1 0x44 DUP3 ADD DUP4 SWAP1 MSTORE DUP5 AND SWAP1 PUSH4 0x23B872DD SWAP1 PUSH1 0x64 ADD PUSH1 0x20 PUSH1 0x40 MLOAD DUP1 DUP4 SUB DUP2 PUSH1 0x0 DUP8 GAS CALL ISZERO DUP1 ISZERO PUSH2 0x779 JUMPI RETURNDATASIZE PUSH1 0x0 DUP1 RETURNDATACOPY RETURNDATASIZE PUSH1 0x0 REVERT JUMPDEST POP POP POP POP PUSH1 0x40 MLOAD RETURNDATASIZE PUSH1 0x1F NOT PUSH1 0x1F DUP3 ADD AND DUP3 ADD DUP1 PUSH1 0x40 MSTORE POP DUP2 ADD SWAP1 PUSH2 0x79D SWAP2 SWAP1 PUSH2 0xECD JUMP JUMPDEST POP PUSH2 0x7A8 DUP4 DUP3 PUSH2 0x9A4 JUMP JUMPDEST DUP2 PUSH1 0x1 PUSH1 0x1 PUSH1 0xA0 SHL SUB AND DUP4 PUSH1 0x1 PUSH1 0x1 PUSH1 0xA0 SHL SUB AND PUSH32 0xA83965F0E7C5E026E57C9BA2DD91E4EBCCA352F2D514498C1E9ED23BA6538600 DUP4 PUSH1 0x40 MLOAD PUSH2 0x4EA SWAP2 DUP2 MSTORE PUSH1 0x20 ADD SWAP1 JUMP JUMPDEST PUSH2 0x7F8 PUSH1 0x3 DUP3 PUSH2 0x89A JUMP JUMPDEST PUSH2 0x831 JUMPI PUSH1 0x40 MLOAD PUSH1 0x1 PUSH1 0x1 PUSH1 0xA0 SHL SUB DUP3 AND SWAP1 PUSH32 0xC3E089FC6227E049D0E41C3D7A383D57EFE69C1955C5752F7E5A9B5F1F113020 SWAP1 PUSH1 0x0 SWAP1 LOG2 JUMPDEST PUSH2 0x83C PUSH1 0x3 DUP3 PUSH2 0xA7F JUMP JUMPDEST POP POP JUMP JUMPDEST PUSH2 0x84B PUSH1 0x3 DUP3 PUSH2 0x89A JUMP JUMPDEST ISZERO PUSH2 0x885 JUMPI PUSH1 0x40 MLOAD PUSH1 0x1 PUSH1 0x1 PUSH1 0xA0 SHL SUB DUP3 AND SWAP1 PUSH32 0x72977DAD29432F655F11C2F0E72EF5124BB9ADE7A512FB7A43A9F504DF223428 SWAP1 PUSH1 0x0 SWAP1 LOG2 JUMPDEST PUSH2 0x83C PUSH1 0x3 DUP3 PUSH2 0xA94 JUMP JUMPDEST PUSH1 0x0 PUSH2 0x3D9 DUP3 SLOAD SWAP1 JUMP JUMPDEST PUSH1 0x1 PUSH1 0x1 PUSH1 0xA0 SHL SUB DUP2 AND PUSH1 0x0 SWAP1 DUP2 MSTORE PUSH1 0x1 DUP4 ADD PUSH1 0x20 MSTORE PUSH1 0x40 DUP2 KECCAK256 SLOAD ISZERO ISZERO JUMPDEST SWAP4 SWAP3 POP POP POP JUMP JUMPDEST PUSH1 0x60 PUSH1 0x0 DUP1 DUP5 PUSH1 0x1 PUSH1 0x1 PUSH1 0xA0 SHL SUB AND DUP5 PUSH1 0x40 MLOAD PUSH2 0x8DC SWAP2 SWAP1 PUSH2 0xFD2 JUMP JUMPDEST PUSH1 0x0 PUSH1 0x40 MLOAD DUP1 DUP4 SUB DUP2 DUP6 GAS DELEGATECALL SWAP2 POP POP RETURNDATASIZE DUP1 PUSH1 0x0 DUP2 EQ PUSH2 0x917 JUMPI PUSH1 0x40 MLOAD SWAP2 POP PUSH1 0x1F NOT PUSH1 0x3F RETURNDATASIZE ADD AND DUP3 ADD PUSH1 0x40 MSTORE RETURNDATASIZE DUP3 MSTORE RETURNDATASIZE PUSH1 0x0 PUSH1 0x20 DUP5 ADD RETURNDATACOPY PUSH2 0x91C JUMP JUMPDEST PUSH1 0x60 SWAP2 POP JUMPDEST POP SWAP2 POP SWAP2 POP PUSH2 0x92C DUP6 DUP4 DUP4 PUSH2 0xAA9 JUMP JUMPDEST SWAP6 SWAP5 POP POP POP POP POP JUMP JUMPDEST PUSH1 0x1 PUSH1 0x1 PUSH1 0xA0 SHL SUB DUP3 AND PUSH1 0x0 SWAP1 DUP2 MSTORE PUSH1 0x20 DUP2 SWAP1 MSTORE PUSH1 0x40 DUP2 KECCAK256 DUP1 SLOAD DUP4 SWAP3 SWAP1 PUSH2 0x95D SWAP1 DUP5 SWAP1 PUSH2 0xF05 JUMP JUMPDEST SWAP1 SWAP2 SSTORE POP POP PUSH1 0x40 MLOAD DUP2 DUP2 MSTORE PUSH1 0x1 PUSH1 0x1 PUSH1 0xA0 SHL SUB DUP4 AND SWAP1 PUSH32 0x854A0A098D6CAFCDBF8CC91B503D29E40E31095273EEC189216A6ED881543EB4 SWAP1 PUSH1 0x20 ADD PUSH1 0x40 MLOAD DUP1 SWAP2 SUB SWAP1 LOG2 POP POP JUMP JUMPDEST PUSH1 0x1 PUSH1 0x1 PUSH1 0xA0 SHL SUB DUP3 AND PUSH1 0x0 SWAP1 DUP2 MSTORE PUSH1 0x20 DUP2 SWAP1 MSTORE PUSH1 0x40 DUP2 KECCAK256 DUP1 SLOAD DUP4 SWAP3 SWAP1 PUSH2 0x9CC SWAP1 DUP5 SWAP1 PUSH2 0xFEE JUMP JUMPDEST SWAP1 SWAP2 SSTORE POP POP PUSH1 0x40 MLOAD DUP2 DUP2 MSTORE PUSH1 0x1 PUSH1 0x1 PUSH1 0xA0 SHL SUB DUP4 AND SWAP1 PUSH32 0xE49F42D07D8046279C22AF872FE6BC5678C4DFC38ACE0F43B8E8D5A03D0E8F10 SWAP1 PUSH1 0x20 ADD PUSH1 0x40 MLOAD DUP1 SWAP2 SUB SWAP1 LOG2 PUSH1 0x1 PUSH1 0x1 PUSH1 0xA0 SHL SUB DUP3 AND PUSH1 0x0 SWAP1 DUP2 MSTORE PUSH1 0x1 PUSH1 0x20 MSTORE PUSH1 0x40 SWAP1 KECCAK256 SLOAD PUSH1 0xFF AND PUSH2 0x83C JUMPI PUSH1 0x1 PUSH1 0x1 PUSH1 0xA0 SHL SUB DUP3 AND PUSH1 0x0 DUP2 DUP2 MSTORE PUSH1 0x1 PUSH1 0x20 DUP2 SWAP1 MSTORE PUSH1 0x40 DUP1 DUP4 KECCAK256 DUP1 SLOAD PUSH1 0xFF NOT AND SWAP1 SWAP3 OR SWAP1 SWAP2 SSTORE MLOAD PUSH32 0x158412DAECDC1456D01568828BCDB18464CC7F1CE0215DDBC3F3CFEDE9D1E63D SWAP2 SWAP1 LOG2 POP POP JUMP JUMPDEST PUSH1 0x0 PUSH2 0x8B8 DUP4 PUSH1 0x1 PUSH1 0x1 PUSH1 0xA0 SHL SUB DUP5 AND PUSH2 0xB05 JUMP JUMPDEST PUSH1 0x0 PUSH2 0x8B8 DUP4 PUSH1 0x1 PUSH1 0x1 PUSH1 0xA0 SHL SUB DUP5 AND PUSH2 0xB54 JUMP JUMPDEST PUSH1 0x60 DUP3 PUSH2 0xABE JUMPI PUSH2 0xAB9 DUP3 PUSH2 0xC47 JUMP JUMPDEST PUSH2 0x8B8 JUMP JUMPDEST DUP2 MLOAD ISZERO DUP1 ISZERO PUSH2 0xAD5 JUMPI POP PUSH1 0x1 PUSH1 0x1 PUSH1 0xA0 SHL SUB DUP5 AND EXTCODESIZE ISZERO JUMPDEST ISZERO PUSH2 0xAFE JUMPI PUSH1 0x40 MLOAD PUSH4 0x9996B315 PUSH1 0xE0 SHL DUP2 MSTORE PUSH1 0x1 PUSH1 0x1 PUSH1 0xA0 SHL SUB DUP6 AND PUSH1 0x4 DUP3 ADD MSTORE PUSH1 0x24 ADD PUSH2 0x49C JUMP JUMPDEST POP SWAP3 SWAP2 POP POP JUMP JUMPDEST PUSH1 0x0 DUP2 DUP2 MSTORE PUSH1 0x1 DUP4 ADD PUSH1 0x20 MSTORE PUSH1 0x40 DUP2 KECCAK256 SLOAD PUSH2 0xB4C JUMPI POP DUP2 SLOAD PUSH1 0x1 DUP2 DUP2 ADD DUP5 SSTORE PUSH1 0x0 DUP5 DUP2 MSTORE PUSH1 0x20 DUP1 DUP3 KECCAK256 SWAP1 SWAP4 ADD DUP5 SWAP1 SSTORE DUP5 SLOAD DUP5 DUP3 MSTORE DUP3 DUP7 ADD SWAP1 SWAP4 MSTORE PUSH1 0x40 SWAP1 KECCAK256 SWAP2 SWAP1 SWAP2 SSTORE PUSH2 0x3D9 JUMP JUMPDEST POP PUSH1 0x0 PUSH2 0x3D9 JUMP JUMPDEST PUSH1 0x0 DUP2 DUP2 MSTORE PUSH1 0x1 DUP4 ADD PUSH1 0x20 MSTORE PUSH1 0x40 DUP2 KECCAK256 SLOAD DUP1 ISZERO PUSH2 0xC3D JUMPI PUSH1 0x0 PUSH2 0xB78 PUSH1 0x1 DUP4 PUSH2 0xF05 JUMP JUMPDEST DUP6 SLOAD SWAP1 SWAP2 POP PUSH1 0x0 SWAP1 PUSH2 0xB8C SWAP1 PUSH1 0x1 SWAP1 PUSH2 0xF05 JUMP JUMPDEST SWAP1 POP DUP1 DUP3 EQ PUSH2 0xBF1 JUMPI PUSH1 0x0 DUP7 PUSH1 0x0 ADD DUP3 DUP2 SLOAD DUP2 LT PUSH2 0xBAC JUMPI PUSH2 0xBAC PUSH2 0xF2E JUMP JUMPDEST SWAP1 PUSH1 0x0 MSTORE PUSH1 0x20 PUSH1 0x0 KECCAK256 ADD SLOAD SWAP1 POP DUP1 DUP8 PUSH1 0x0 ADD DUP5 DUP2 SLOAD DUP2 LT PUSH2 0xBCF JUMPI PUSH2 0xBCF PUSH2 0xF2E JUMP JUMPDEST PUSH1 0x0 SWAP2 DUP3 MSTORE PUSH1 0x20 DUP1 DUP4 KECCAK256 SWAP1 SWAP2 ADD SWAP3 SWAP1 SWAP3 SSTORE SWAP2 DUP3 MSTORE PUSH1 0x1 DUP9 ADD SWAP1 MSTORE PUSH1 0x40 SWAP1 KECCAK256 DUP4 SWAP1 SSTORE JUMPDEST DUP6 SLOAD DUP7 SWAP1 DUP1 PUSH2 0xC02 JUMPI PUSH2 0xC02 PUSH2 0x1001 JUMP JUMPDEST PUSH1 0x1 SWAP1 SUB DUP2 DUP2 SWAP1 PUSH1 0x0 MSTORE PUSH1 0x20 PUSH1 0x0 KECCAK256 ADD PUSH1 0x0 SWAP1 SSTORE SWAP1 SSTORE DUP6 PUSH1 0x1 ADD PUSH1 0x0 DUP7 DUP2 MSTORE PUSH1 0x20 ADD SWAP1 DUP2 MSTORE PUSH1 0x20 ADD PUSH1 0x0 KECCAK256 PUSH1 0x0 SWAP1 SSTORE PUSH1 0x1 SWAP4 POP POP POP POP PUSH2 0x3D9 JUMP JUMPDEST PUSH1 0x0 SWAP2 POP POP PUSH2 0x3D9 JUMP JUMPDEST DUP1 MLOAD ISZERO PUSH2 0xC57 JUMPI DUP1 MLOAD DUP1 DUP3 PUSH1 0x20 ADD REVERT JUMPDEST PUSH1 0x40 MLOAD PUSH4 0xA12F521 PUSH1 0xE1 SHL DUP2 MSTORE PUSH1 0x4 ADD PUSH1 0x40 MLOAD DUP1 SWAP2 SUB SWAP1 REVERT JUMPDEST PUSH1 0x0 PUSH1 0x20 DUP3 DUP5 SUB SLT ISZERO PUSH2 0xC82 JUMPI PUSH1 0x0 DUP1 REVERT JUMPDEST DUP2 CALLDATALOAD PUSH1 0x1 PUSH1 0x1 PUSH1 0xE0 SHL SUB NOT DUP2 AND DUP2 EQ PUSH2 0x8B8 JUMPI PUSH1 0x0 DUP1 REVERT JUMPDEST PUSH1 0x0 JUMPDEST DUP4 DUP2 LT ISZERO PUSH2 0xCB5 JUMPI DUP2 DUP2 ADD MLOAD DUP4 DUP3 ADD MSTORE PUSH1 0x20 ADD PUSH2 0xC9D JUMP JUMPDEST POP POP PUSH1 0x0 SWAP2 ADD MSTORE JUMP JUMPDEST PUSH1 0x0 DUP2 MLOAD DUP1 DUP5 MSTORE PUSH2 0xCD6 DUP2 PUSH1 0x20 DUP7 ADD PUSH1 0x20 DUP7 ADD PUSH2 0xC9A JUMP JUMPDEST PUSH1 0x1F ADD PUSH1 0x1F NOT AND SWAP3 SWAP1 SWAP3 ADD PUSH1 0x20 ADD SWAP3 SWAP2 POP POP JUMP JUMPDEST PUSH1 0x20 DUP2 MSTORE PUSH1 0x0 PUSH2 0x8B8 PUSH1 0x20 DUP4 ADD DUP5 PUSH2 0xCBE JUMP JUMPDEST DUP1 CALLDATALOAD PUSH1 0x1 PUSH1 0x1 PUSH1 0xA0 SHL SUB DUP2 AND DUP2 EQ PUSH2 0xD14 JUMPI PUSH1 0x0 DUP1 REVERT JUMPDEST SWAP2 SWAP1 POP JUMP JUMPDEST PUSH1 0x0 PUSH1 0x20 DUP3 DUP5 SUB SLT ISZERO PUSH2 0xD2B JUMPI PUSH1 0x0 DUP1 REVERT JUMPDEST PUSH2 0x8B8 DUP3 PUSH2 0xCFD JUMP JUMPDEST PUSH1 0x0 DUP1 PUSH1 0x40 DUP4 DUP6 SUB SLT ISZERO PUSH2 0xD47 JUMPI PUSH1 0x0 DUP1 REVERT JUMPDEST PUSH2 0xD50 DUP4 PUSH2 0xCFD JUMP JUMPDEST SWAP2 POP PUSH2 0xD5E PUSH1 0x20 DUP5 ADD PUSH2 0xCFD JUMP JUMPDEST SWAP1 POP SWAP3 POP SWAP3 SWAP1 POP JUMP JUMPDEST PUSH1 0x0 DUP1 PUSH1 0x0 PUSH1 0x60 DUP5 DUP7 SUB SLT ISZERO PUSH2 0xD7C JUMPI PUSH1 0x0 DUP1 REVERT JUMPDEST PUSH2 0xD85 DUP5 PUSH2 0xCFD JUMP JUMPDEST SWAP3 POP PUSH2 0xD93 PUSH1 0x20 DUP6 ADD PUSH2 0xCFD JUMP JUMPDEST SWAP2 POP PUSH1 0x40 DUP5 ADD CALLDATALOAD SWAP1 POP SWAP3 POP SWAP3 POP SWAP3 JUMP JUMPDEST PUSH1 0x0 DUP1 PUSH1 0x20 DUP4 DUP6 SUB SLT ISZERO PUSH2 0xDB6 JUMPI PUSH1 0x0 DUP1 REVERT JUMPDEST DUP3 CALLDATALOAD PUSH8 0xFFFFFFFFFFFFFFFF DUP1 DUP3 GT ISZERO PUSH2 0xDCE JUMPI PUSH1 0x0 DUP1 REVERT JUMPDEST DUP2 DUP6 ADD SWAP2 POP DUP6 PUSH1 0x1F DUP4 ADD SLT PUSH2 0xDE2 JUMPI PUSH1 0x0 DUP1 REVERT JUMPDEST DUP2 CALLDATALOAD DUP2 DUP2 GT ISZERO PUSH2 0xDF1 JUMPI PUSH1 0x0 DUP1 REVERT JUMPDEST DUP7 PUSH1 0x20 DUP3 PUSH1 0x5 SHL DUP6 ADD ADD GT ISZERO PUSH2 0xE06 JUMPI PUSH1 0x0 DUP1 REVERT JUMPDEST PUSH1 0x20 SWAP3 SWAP1 SWAP3 ADD SWAP7 SWAP2 SWAP6 POP SWAP1 SWAP4 POP POP POP POP JUMP JUMPDEST PUSH1 0x0 PUSH1 0x20 DUP1 DUP4 ADD DUP2 DUP5 MSTORE DUP1 DUP6 MLOAD DUP1 DUP4 MSTORE PUSH1 0x40 DUP7 ADD SWAP2 POP PUSH1 0x40 DUP2 PUSH1 0x5 SHL DUP8 ADD ADD SWAP3 POP DUP4 DUP8 ADD PUSH1 0x0 JUMPDEST DUP3 DUP2 LT ISZERO PUSH2 0xE6D JUMPI PUSH1 0x3F NOT DUP9 DUP7 SUB ADD DUP5 MSTORE PUSH2 0xE5B DUP6 DUP4 MLOAD PUSH2 0xCBE JUMP JUMPDEST SWAP5 POP SWAP3 DUP6 ADD SWAP3 SWAP1 DUP6 ADD SWAP1 PUSH1 0x1 ADD PUSH2 0xE3F JUMP JUMPDEST POP SWAP3 SWAP8 SWAP7 POP POP POP POP POP POP POP JUMP JUMPDEST PUSH1 0x1 DUP2 DUP2 SHR SWAP1 DUP3 AND DUP1 PUSH2 0xE8E JUMPI PUSH1 0x7F DUP3 AND SWAP2 POP JUMPDEST PUSH1 0x20 DUP3 LT DUP2 SUB PUSH2 0xEAE JUMPI PUSH4 0x4E487B71 PUSH1 0xE0 SHL PUSH1 0x0 MSTORE PUSH1 0x22 PUSH1 0x4 MSTORE PUSH1 0x24 PUSH1 0x0 REVERT JUMPDEST POP SWAP2 SWAP1 POP JUMP JUMPDEST PUSH1 0x0 PUSH1 0x20 DUP3 DUP5 SUB SLT ISZERO PUSH2 0xEC6 JUMPI PUSH1 0x0 DUP1 REVERT JUMPDEST POP MLOAD SWAP2 SWAP1 POP JUMP JUMPDEST PUSH1 0x0 PUSH1 0x20 DUP3 DUP5 SUB SLT ISZERO PUSH2 0xEDF JUMPI PUSH1 0x0 DUP1 REVERT JUMPDEST DUP2 MLOAD DUP1 ISZERO ISZERO DUP2 EQ PUSH2 0x8B8 JUMPI PUSH1 0x0 DUP1 REVERT JUMPDEST PUSH4 0x4E487B71 PUSH1 0xE0 SHL PUSH1 0x0 MSTORE PUSH1 0x11 PUSH1 0x4 MSTORE PUSH1 0x24 PUSH1 0x0 REVERT JUMPDEST DUP2 DUP2 SUB DUP2 DUP2 GT ISZERO PUSH2 0x3D9 JUMPI PUSH2 0x3D9 PUSH2 0xEEF JUMP JUMPDEST PUSH4 0x4E487B71 PUSH1 0xE0 SHL PUSH1 0x0 MSTORE PUSH1 0x41 PUSH1 0x4 MSTORE PUSH1 0x24 PUSH1 0x0 REVERT JUMPDEST PUSH4 0x4E487B71 PUSH1 0xE0 SHL PUSH1 0x0 MSTORE PUSH1 0x32 PUSH1 0x4 MSTORE PUSH1 0x24 PUSH1 0x0 REVERT JUMPDEST PUSH1 0x0 DUP1 DUP4 CALLDATALOAD PUSH1 0x1E NOT DUP5 CALLDATASIZE SUB ADD DUP2 SLT PUSH2 0xF5B JUMPI PUSH1 0x0 DUP1 REVERT JUMPDEST DUP4 ADD DUP1 CALLDATALOAD SWAP2 POP PUSH8 0xFFFFFFFFFFFFFFFF DUP3 GT ISZERO PUSH2 0xF76 JUMPI PUSH1 0x0 DUP1 REVERT JUMPDEST PUSH1 0x20 ADD SWAP2 POP CALLDATASIZE DUP2 SWAP1 SUB DUP3 SGT ISZERO PUSH2 0xF8B JUMPI PUSH1 0x0 DUP1 REVERT JUMPDEST SWAP3 POP SWAP3 SWAP1 POP JUMP JUMPDEST DUP3 DUP5 DUP3 CALLDATACOPY PUSH1 0x0 DUP4 DUP3 ADD PUSH1 0x0 DUP2 MSTORE DUP4 MLOAD PUSH2 0xFAF DUP2 DUP4 PUSH1 0x20 DUP9 ADD PUSH2 0xC9A JUMP JUMPDEST ADD SWAP6 SWAP5 POP POP POP POP POP JUMP JUMPDEST PUSH1 0x0 PUSH1 0x1 DUP3 ADD PUSH2 0xFCB JUMPI PUSH2 0xFCB PUSH2 0xEEF JUMP JUMPDEST POP PUSH1 0x1 ADD SWAP1 JUMP JUMPDEST PUSH1 0x0 DUP3 MLOAD PUSH2 0xFE4 DUP2 DUP5 PUSH1 0x20 DUP8 ADD PUSH2 0xC9A JUMP JUMPDEST SWAP2 SWAP1 SWAP2 ADD SWAP3 SWAP2 POP POP JUMP JUMPDEST DUP1 DUP3 ADD DUP1 DUP3 GT ISZERO PUSH2 0x3D9 JUMPI PUSH2 0x3D9 PUSH2 0xEEF JUMP JUMPDEST PUSH4 0x4E487B71 PUSH1 0xE0 SHL PUSH1 0x0 MSTORE PUSH1 0x31 PUSH1 0x4 MSTORE PUSH1 0x24 PUSH1 0x0 REVERT INVALID LOG2 PUSH5 0x6970667358 0x22 SLT KECCAK256 0x5C CALLDATACOPY INVALID 0xE 0xCF 0xA9 POP SLOAD 0xED 0xE2 0x1F 0xED CALL 0xB2 SHR SWAP3 0xB7 PUSH0 0xC5 0xCE 0xA5 CREATE 0xBF 0x5E LT 0xAF PUSH26 0x482770CEBD64736F6C6343000814003300000000000000000000 "
        },
        "methodIdentifiers": {
          "IID_RAHAT_PROJECT()": "4fe21571",
          "acceptToken(address,address,uint256)": "5704479d",
          "addBeneficiary(address)": "5926651d",
          "beneficiaryCount()": "734b2a7c",
          "disburseExternalToken(address,address,uint256)": "a6d0edfd",
          "disburseProjectToken(address,address,uint256)": "e055fd7c",
          "isBeneficiary(address)": "9d19b226",
          "isDonor(address)": "2bc3d7aa",
          "multicall(bytes[])": "ac9650d8",
          "name()": "06fdde03",
          "removeBeneficiary(address)": "59633a1c",
          "supportsInterface(bytes4)": "01ffc9a7",
          "tokenBudget(address)": "eb681e62",
          "withdrawToken(address,address)": "3aeac4e1"
        }
      }
    }
  }
}