{
  "src/contracts/RahatDonor.sol": {
    "RahatDonor": {
      "abi": [
        {
          "inputs": [
            {
              "internalType": "address",
              "name": "_admin",
              "type": "address"
            }
          ],
          "stateMutability": "nonpayable",
          "type": "constructor"
        },
        {
          "inputs": [
            {
              "internalType": "address",
              "name": "target",
              "type": "address"
            }
          ],
          "name": "AddressEmptyCode",
          "type": "error"
        },
        {
          "inputs": [],
          "name": "FailedInnerCall",
          "type": "error"
        },
        {
          "anonymous": false,
          "inputs": [
            {
              "indexed": true,
              "internalType": "address",
              "name": "",
              "type": "address"
            }
          ],
          "name": "OwnerAdded",
          "type": "event"
        },
        {
          "anonymous": false,
          "inputs": [
            {
              "indexed": true,
              "internalType": "address",
              "name": "",
              "type": "address"
            }
          ],
          "name": "OwnerRemoved",
          "type": "event"
        },
        {
          "anonymous": false,
          "inputs": [
            {
              "indexed": true,
              "internalType": "address",
              "name": "tokenAddress",
              "type": "address"
            }
          ],
          "name": "TokenCreated",
          "type": "event"
        },
        {
          "anonymous": false,
          "inputs": [
            {
              "indexed": true,
              "internalType": "address",
              "name": "tokenAddress",
              "type": "address"
            },
            {
              "indexed": true,
              "internalType": "address",
              "name": "approveAddress",
              "type": "address"
            },
            {
              "indexed": false,
              "internalType": "uint256",
              "name": "amount",
              "type": "uint256"
            }
          ],
          "name": "TokenMintedAndApproved",
          "type": "event"
        },
        {
          "inputs": [],
          "name": "IID_RAHAT_DONOR",
          "outputs": [
            {
              "internalType": "bytes4",
              "name": "",
              "type": "bytes4"
            }
          ],
          "stateMutability": "view",
          "type": "function"
        },
        {
          "inputs": [
            {
              "internalType": "address",
              "name": "",
              "type": "address"
            }
          ],
          "name": "_registeredProject",
          "outputs": [
            {
              "internalType": "bool",
              "name": "",
              "type": "bool"
            }
          ],
          "stateMutability": "view",
          "type": "function"
        },
        {
          "inputs": [
            {
              "internalType": "address",
              "name": "_address",
              "type": "address"
            }
          ],
          "name": "addOwner",
          "outputs": [
            {
              "internalType": "bool",
              "name": "success",
              "type": "bool"
            }
          ],
          "stateMutability": "nonpayable",
          "type": "function"
        },
        {
          "inputs": [
            {
              "internalType": "address",
              "name": "_token",
              "type": "address"
            },
            {
              "internalType": "address",
              "name": "_ownerAddress",
              "type": "address"
            }
          ],
          "name": "addTokenOwner",
          "outputs": [],
          "stateMutability": "nonpayable",
          "type": "function"
        },
        {
          "inputs": [
            {
              "internalType": "address",
              "name": "_token",
              "type": "address"
            },
            {
              "internalType": "address",
              "name": "_spender",
              "type": "address"
            },
            {
              "internalType": "uint256",
              "name": "_amount",
              "type": "uint256"
            }
          ],
          "name": "approveToken",
          "outputs": [],
          "stateMutability": "nonpayable",
          "type": "function"
        },
        {
          "inputs": [
            {
              "internalType": "address",
              "name": "_token",
              "type": "address"
            },
            {
              "internalType": "address",
              "name": "_from",
              "type": "address"
            },
            {
              "internalType": "uint256",
              "name": "_amount",
              "type": "uint256"
            }
          ],
          "name": "claimToken",
          "outputs": [],
          "stateMutability": "nonpayable",
          "type": "function"
        },
        {
          "inputs": [
            {
              "internalType": "string",
              "name": "_name",
              "type": "string"
            },
            {
              "internalType": "string",
              "name": "_symbol",
              "type": "string"
            },
            {
              "internalType": "uint8",
              "name": "decimals",
              "type": "uint8"
            }
          ],
          "name": "createToken",
          "outputs": [
            {
              "internalType": "address",
              "name": "",
              "type": "address"
            }
          ],
          "stateMutability": "nonpayable",
          "type": "function"
        },
        {
          "inputs": [
            {
              "internalType": "address",
              "name": "_token",
              "type": "address"
            },
            {
              "internalType": "address",
              "name": "_from",
              "type": "address"
            }
          ],
          "name": "getAllowanceAndBalance",
          "outputs": [
            {
              "internalType": "uint256",
              "name": "allowance",
              "type": "uint256"
            },
            {
              "internalType": "uint256",
              "name": "balance",
              "type": "uint256"
            }
          ],
          "stateMutability": "view",
          "type": "function"
        },
        {
          "inputs": [
            {
              "internalType": "address",
              "name": "_address",
              "type": "address"
            }
          ],
          "name": "isOwner",
          "outputs": [
            {
              "internalType": "bool",
              "name": "",
              "type": "bool"
            }
          ],
          "stateMutability": "view",
          "type": "function"
        },
        {
          "inputs": [],
          "name": "listOwners",
          "outputs": [
            {
              "internalType": "address[]",
              "name": "",
              "type": "address[]"
            }
          ],
          "stateMutability": "view",
          "type": "function"
        },
        {
          "inputs": [
            {
              "internalType": "address",
              "name": "_token",
              "type": "address"
            },
            {
              "internalType": "uint256",
              "name": "_amount",
              "type": "uint256"
            }
          ],
          "name": "mintToken",
          "outputs": [],
          "stateMutability": "nonpayable",
          "type": "function"
        },
        {
          "inputs": [
            {
              "internalType": "address",
              "name": "_token",
              "type": "address"
            },
            {
              "internalType": "address",
              "name": "_approveAddress",
              "type": "address"
            },
            {
              "internalType": "uint256",
              "name": "_amount",
              "type": "uint256"
            },
            {
              "internalType": "address",
              "name": "_projectAddress",
              "type": "address"
            }
          ],
          "name": "mintTokenAndApprove",
          "outputs": [],
          "stateMutability": "nonpayable",
          "type": "function"
        },
        {
          "inputs": [
            {
              "internalType": "bytes[]",
              "name": "data",
              "type": "bytes[]"
            }
          ],
          "name": "multicall",
          "outputs": [
            {
              "internalType": "bytes[]",
              "name": "results",
              "type": "bytes[]"
            }
          ],
          "stateMutability": "nonpayable",
          "type": "function"
        },
        {
          "inputs": [],
          "name": "ownerCount",
          "outputs": [
            {
              "internalType": "uint256",
              "name": "",
              "type": "uint256"
            }
          ],
          "stateMutability": "view",
          "type": "function"
        },
        {
          "inputs": [
            {
              "internalType": "address",
              "name": "_projectAddress",
              "type": "address"
            },
            {
              "internalType": "bool",
              "name": "status",
              "type": "bool"
            }
          ],
          "name": "registerProject",
          "outputs": [],
          "stateMutability": "nonpayable",
          "type": "function"
        },
        {
          "inputs": [
            {
              "internalType": "address",
              "name": "_address",
              "type": "address"
            }
          ],
          "name": "removeOwner",
          "outputs": [
            {
              "internalType": "bool",
              "name": "success",
              "type": "bool"
            }
          ],
          "stateMutability": "nonpayable",
          "type": "function"
        },
        {
          "inputs": [
            {
              "internalType": "bytes4",
              "name": "interfaceId",
              "type": "bytes4"
            }
          ],
          "name": "supportsInterface",
          "outputs": [
            {
              "internalType": "bool",
              "name": "",
              "type": "bool"
            }
          ],
          "stateMutability": "view",
          "type": "function"
        },
        {
          "inputs": [
            {
              "internalType": "address",
              "name": "_token",
              "type": "address"
            },
            {
              "internalType": "address",
              "name": "_from",
              "type": "address"
            },
            {
              "internalType": "address",
              "name": "_to",
              "type": "address"
            },
            {
              "internalType": "uint256",
              "name": "_amount",
              "type": "uint256"
            }
          ],
          "name": "transferFromToken",
          "outputs": [],
          "stateMutability": "nonpayable",
          "type": "function"
        },
        {
          "inputs": [
            {
              "internalType": "address",
              "name": "_token",
              "type": "address"
            },
            {
              "internalType": "address",
              "name": "_to",
              "type": "address"
            },
            {
              "internalType": "uint256",
              "name": "_amount",
              "type": "uint256"
            }
          ],
          "name": "transferToken",
          "outputs": [],
          "stateMutability": "nonpayable",
          "type": "function"
        }
      ],
      "evm": {
        "bytecode": {
          "linkReferences": {},
          "object": "608060405260326000553480156200001657600080fd5b5060405162002fac38038062002fac83398101604081905262000039916200016b565b62000044816200004c565b505062000196565b600080546200005c6001620000ea565b1115620000a15760405162461bcd60e51b815260206004820152600f60248201526e1bdddb995c9cc8195e18d959591959608a1b604482015260640160405180910390fd5b620000ae600183620000fb565b6040519091506001600160a01b038316907f994a936646fe87ffe4f1e469d3d6aa417d6b855598397f323de5b449f765f0c390600090a2919050565b6000620000f5825490565b92915050565b600062000112836001600160a01b03841662000119565b9392505050565b60008181526001830160205260408120546200016257508154600181810184556000848152602080822090930184905584548482528286019093526040902091909155620000f5565b506000620000f5565b6000602082840312156200017e57600080fd5b81516001600160a01b03811681146200011257600080fd5b612e0680620001a66000396000f3fe60806040523480156200001157600080fd5b5060043610620001395760003560e01c806379c6506811620000bb578063da3e3397116200007a578063da3e33971462000304578063e8a0aed3146200031b578063ed60c0fc146200034b578063f5537ede1462000364578063fb3c0d70146200037b57600080fd5b806379c65068146200023c5780639a7b612a1462000253578063a80f5612146200027c578063ac9650d814620002a2578063d293cf2514620002c857600080fd5b80632a92967a11620001085780632a92967a14620001b35780632cb5568e14620001ca5780632f54bf6e14620001e15780634937b17414620001f85780637065cb48146200022557600080fd5b806301ffc9a7146200013e5780630db02622146200016a578063125bfb661462000183578063173825d9146200019c575b600080fd5b620001556200014f366004620011bf565b62000392565b60405190151581526020015b60405180910390f35b62000174620003ca565b60405190815260200162000161565b6200019a6200019436600462001203565b620003dd565b005b62000155620001ad36600462001244565b62000495565b6200019a620001c436600462001262565b6200050c565b6200019a620001db366004620012b6565b62000830565b62000155620001f236600462001244565b620008d0565b6200020f62000209366004620012b6565b620008df565b6040805192835260208301919091520162000161565b620001556200023636600462001244565b620009ce565b6200019a6200024d366004620012e5565b62000a0c565b6200026263612d4d5d60e11b81565b6040516001600160e01b0319909116815260200162000161565b620001556200028d36600462001244565b60036020526000908152604090205460ff1681565b620002b9620002b336600462001312565b62000aac565b604051620001619190620013e0565b6200019a620002d936600462001455565b6001600160a01b03919091166000908152600360205260409020805460ff1916911515919091179055565b6200019a6200031536600462001203565b62000bb4565b620003326200032c3660046200153c565b62000c16565b6040516001600160a01b03909116815260200162000161565b6200035562000cc9565b604051620001619190620015c2565b6200019a6200037536600462001203565b62000cd7565b6200019a6200038c36600462001611565b62000d39565b60006001600160e01b0319821663612d4d5d60e11b1480620003c457506301ffc9a760e01b6001600160e01b03198316145b92915050565b6000620003d8600162000dea565b905090565b620003ea60013362000df5565b620004125760405162461bcd60e51b8152600401620004099062001663565b60405180910390fd5b6040516323b872dd60e01b81526001600160a01b038381166004830152306024830152604482018390528416906323b872dd906064015b6020604051808303816000875af115801562000469573d6000803e3d6000fd5b505050506040513d601f19601f820116820180604052508101906200048f9190620016aa565b50505050565b6000620004a460013362000df5565b620004c35760405162461bcd60e51b8152600401620004099062001663565b620004d060018362000e18565b6040519091506001600160a01b038316907f58619076adf5bb0943d100ef88d52d7c3fd691b19d3a9071b555b651fbf418da90600090a2919050565b6200051960013362000df5565b620005385760405162461bcd60e51b8152600401620004099062001663565b6001600160a01b038416620005905760405162461bcd60e51b815260206004820152601c60248201527f746f6b656e20616464726573732063616e6e6f74206265207a65726f00000000604482015260640162000409565b6001600160a01b038316620005e85760405162461bcd60e51b815260206004820152601e60248201527f617070726f766520616464726573732063616e6e6f74206265207a65726f0000604482015260640162000409565b6001600160a01b038116620006405760405162461bcd60e51b815260206004820152601e60248201527f617070726f766520616464726573732063616e6e6f74206265207a65726f0000604482015260640162000409565b6001600160a01b03811660009081526003602052604090205460ff16620006a35760405162461bcd60e51b81526020600482015260166024820152751c1c9bda9958dd081b9bdd081c9959da5cdd195c995960521b604482015260640162000409565b60008211620006ed5760405162461bcd60e51b8152602060048201526015602482015274616d6f756e742063616e6e6f74206265207a65726f60581b604482015260640162000409565b6040516340c10f1960e01b81523060048201526024810183905284906001600160a01b038216906340c10f19906044016020604051808303816000875af11580156200073d573d6000803e3d6000fd5b505050506040513d601f19601f82011682018060405250810190620007639190620016ca565b5060405163095ea7b360e01b81526001600160a01b0385811660048301526024820185905282169063095ea7b3906044016020604051808303816000875af1158015620007b4573d6000803e3d6000fd5b505050506040513d601f19601f82011682018060405250810190620007da9190620016aa565b50836001600160a01b0316856001600160a01b03167fdc6904c4e8e3746f835eb600662c644c895c758995784a4b39c68f75355b2d27856040516200082191815260200190565b60405180910390a35050505050565b6200083d60013362000df5565b6200085c5760405162461bcd60e51b8152600401620004099062001663565b604051630e0cb96960e31b81526001600160a01b038281166004830152831690637065cb48906024016020604051808303816000875af1158015620008a5573d6000803e3d6000fd5b505050506040513d601f19601f82011682018060405250810190620008cb9190620016aa565b505050565b6000620003c460018362000df5565b604051636eb1769f60e11b81526001600160a01b038281166004830152306024830152600091829185169063dd62ed3e90604401602060405180830381865afa15801562000931573d6000803e3d6000fd5b505050506040513d601f19601f82011682018060405250810190620009579190620016ca565b6040516370a0823160e01b81523060048201529092506001600160a01b038516906370a0823190602401602060405180830381865afa1580156200099f573d6000803e3d6000fd5b505050506040513d601f19601f82011682018060405250810190620009c59190620016ca565b90509250929050565b6000620009dd60013362000df5565b620009fc5760405162461bcd60e51b8152600401620004099062001663565b620003c48262000e2f565b919050565b62000a1960013362000df5565b62000a385760405162461bcd60e51b8152600401620004099062001663565b6040516340c10f1960e01b8152306004820152602481018290526001600160a01b038316906340c10f19906044016020604051808303816000875af115801562000a86573d6000803e3d6000fd5b505050506040513d601f19601f82011682018060405250810190620008cb9190620016ca565b6040805160008152602081019091526060908267ffffffffffffffff81111562000ada5762000ada62001491565b60405190808252806020026020018201604052801562000b0f57816020015b606081526020019060019003908162000af95790505b50915060005b8381101562000bac5762000b763086868481811062000b385762000b3862001710565b905060200281019062000b4c919062001726565b8560405160200162000b619392919062001777565b60405160208183030381529060405262000eca565b83828151811062000b8b5762000b8b62001710565b6020026020010181905250808062000ba390620017a0565b91505062000b15565b505092915050565b62000bc160013362000df5565b62000be05760405162461bcd60e51b8152600401620004099062001663565b60405163095ea7b360e01b81526001600160a01b0383811660048301526024820183905284169063095ea7b39060440162000449565b600062000c2560013362000df5565b62000c445760405162461bcd60e51b8152600401620004099062001663565b60008484308560405162000c5890620011b1565b62000c679493929190620017bc565b604051809103906000f08015801562000c84573d6000803e3d6000fd5b5060405190915081906001600160a01b038216907f2e2b3f61b70d2d131b2a807371103cc98d51adcaa5e9a8f9c32658ad8426e74e90600090a29150505b9392505050565b6060620003d8600162000f46565b62000ce460013362000df5565b62000d035760405162461bcd60e51b8152600401620004099062001663565b60405163a9059cbb60e01b81526001600160a01b0383811660048301526024820183905284169063a9059cbb9060440162000449565b62000d4660013362000df5565b62000d655760405162461bcd60e51b8152600401620004099062001663565b6040516323b872dd60e01b81526001600160a01b0384811660048301528381166024830152604482018390528516906323b872dd906064016020604051808303816000875af115801562000dbd573d6000803e3d6000fd5b505050506040513d601f19601f8201168201806040525081019062000de39190620016aa565b5050505050565b6000620003c4825490565b6001600160a01b0381166000908152600183016020526040812054151562000cc2565b600062000cc2836001600160a01b03841662000f55565b6000805462000e3f600162000dea565b111562000e815760405162461bcd60e51b815260206004820152600f60248201526e1bdddb995c9cc8195e18d959591959608a1b604482015260640162000409565b62000e8e60018362001059565b6040519091506001600160a01b038316907f994a936646fe87ffe4f1e469d3d6aa417d6b855598397f323de5b449f765f0c390600090a2919050565b6060600080846001600160a01b03168460405162000ee991906200180a565b600060405180830381855af49150503d806000811462000f26576040519150601f19603f3d011682016040523d82523d6000602084013e62000f2b565b606091505b509150915062000f3d85838362001070565b95945050505050565b6060600062000cc283620010d4565b600081815260018301602052604081205480156200104e57600062000f7c600183620016fa565b855490915060009062000f9290600190620016fa565b905080821462000ffe57600086600001828154811062000fb65762000fb662001710565b906000526020600020015490508087600001848154811062000fdc5762000fdc62001710565b6000918252602080832090910192909255918252600188019052604090208390555b855486908062001012576200101262001828565b600190038181906000526020600020016000905590558560010160008681526020019081526020016000206000905560019350505050620003c4565b6000915050620003c4565b600062000cc2836001600160a01b03841662001132565b6060826200108957620010838262001184565b62000cc2565b8151158015620010a157506001600160a01b0384163b155b15620010cc57604051639996b31560e01b81526001600160a01b038516600482015260240162000409565b508062000cc2565b6060816000018054806020026020016040519081016040528092919081815260200182805480156200112657602002820191906000526020600020905b81548152602001906001019080831162001111575b50505050509050919050565b60008181526001830160205260408120546200117b57508154600181810184556000848152602080822090930184905584548482528286019093526040902091909155620003c4565b506000620003c4565b805115620011955780518082602001fd5b604051630a12f52160e11b815260040160405180910390fd5b50565b611592806200183f83390190565b600060208284031215620011d257600080fd5b81356001600160e01b03198116811462000cc257600080fd5b80356001600160a01b038116811462000a0757600080fd5b6000806000606084860312156200121957600080fd5b6200122484620011eb565b92506200123460208501620011eb565b9150604084013590509250925092565b6000602082840312156200125757600080fd5b62000cc282620011eb565b600080600080608085870312156200127957600080fd5b6200128485620011eb565b93506200129460208601620011eb565b925060408501359150620012ab60608601620011eb565b905092959194509250565b60008060408385031215620012ca57600080fd5b620012d583620011eb565b9150620009c560208401620011eb565b60008060408385031215620012f957600080fd5b6200130483620011eb565b946020939093013593505050565b600080602083850312156200132657600080fd5b823567ffffffffffffffff808211156200133f57600080fd5b818501915085601f8301126200135457600080fd5b8135818111156200136457600080fd5b8660208260051b85010111156200137a57600080fd5b60209290920196919550909350505050565b60005b83811015620013a95781810151838201526020016200138f565b50506000910152565b60008151808452620013cc8160208601602086016200138c565b601f01601f19169290920160200192915050565b6000602080830181845280855180835260408601915060408160051b870101925083870160005b828110156200143957603f1988860301845262001426858351620013b2565b9450928501929085019060010162001407565b5092979650505050505050565b8015158114620011ae57600080fd5b600080604083850312156200146957600080fd5b6200147483620011eb565b91506020830135620014868162001446565b809150509250929050565b634e487b7160e01b600052604160045260246000fd5b600082601f830112620014b957600080fd5b813567ffffffffffffffff80821115620014d757620014d762001491565b604051601f8301601f19908116603f0116810190828211818310171562001502576200150262001491565b816040528381528660208588010111156200151c57600080fd5b836020870160208301376000602085830101528094505050505092915050565b6000806000606084860312156200155257600080fd5b833567ffffffffffffffff808211156200156b57600080fd5b6200157987838801620014a7565b945060208601359150808211156200159057600080fd5b506200159f86828701620014a7565b925050604084013560ff81168114620015b757600080fd5b809150509250925092565b6020808252825182820181905260009190848201906040850190845b81811015620016055783516001600160a01b031683529284019291840191600101620015de565b50909695505050505050565b600080600080608085870312156200162857600080fd5b6200163385620011eb565b93506200164360208601620011eb565b92506200165360408601620011eb565b9396929550929360600135925050565b60208082526027908201527f4f6e6c79206f776e65722063616e20657865637574652074686973207472616e60408201526639b0b1ba34b7b760c91b606082015260800190565b600060208284031215620016bd57600080fd5b815162000cc28162001446565b600060208284031215620016dd57600080fd5b5051919050565b634e487b7160e01b600052601160045260246000fd5b81810381811115620003c457620003c4620016e4565b634e487b7160e01b600052603260045260246000fd5b6000808335601e198436030181126200173e57600080fd5b83018035915067ffffffffffffffff8211156200175a57600080fd5b6020019150368190038213156200177057600080fd5b9250929050565b828482376000838201600081528351620017968183602088016200138c565b0195945050505050565b600060018201620017b557620017b5620016e4565b5060010190565b608081526000620017d16080830187620013b2565b8281036020840152620017e58187620013b2565b6001600160a01b03959095166040840152505060ff9190911660609091015292915050565b600082516200181e8184602087016200138c565b9190910192915050565b634e487b7160e01b600052603160045260246000fdfe608060405260326000553480156200001657600080fd5b50604051620015923803806200159283398101604081905262000039916200026f565b83836006620000498382620003a4565b506007620000588282620003a4565b5050506200006c826200008b60201b60201c565b506008805460ff191660ff929092169190911790555062000470915050565b600080546200009b600162000129565b1115620000e05760405162461bcd60e51b815260206004820152600f60248201526e1bdddb995c9cc8195e18d959591959608a1b604482015260640160405180910390fd5b620000ed6001836200013a565b6040519091506001600160a01b038316907f994a936646fe87ffe4f1e469d3d6aa417d6b855598397f323de5b449f765f0c390600090a2919050565b600062000134825490565b92915050565b600062000151836001600160a01b03841662000158565b9392505050565b6000818152600183016020526040812054620001a15750815460018181018455600084815260208082209093018490558454848252828601909352604090209190915562000134565b50600062000134565b634e487b7160e01b600052604160045260246000fd5b600082601f830112620001d257600080fd5b81516001600160401b0380821115620001ef57620001ef620001aa565b604051601f8301601f19908116603f011681019082821181831017156200021a576200021a620001aa565b816040528381526020925086838588010111156200023757600080fd5b600091505b838210156200025b57858201830151818301840152908201906200023c565b600093810190920192909252949350505050565b600080600080608085870312156200028657600080fd5b84516001600160401b03808211156200029e57600080fd5b620002ac88838901620001c0565b95506020870151915080821115620002c357600080fd5b50620002d287828801620001c0565b604087015190945090506001600160a01b0381168114620002f257600080fd5b606086015190925060ff811681146200030a57600080fd5b939692955090935050565b600181811c908216806200032a57607f821691505b6020821081036200034b57634e487b7160e01b600052602260045260246000fd5b50919050565b601f8211156200039f57600081815260208120601f850160051c810160208610156200037a5750805b601f850160051c820191505b818110156200039b5782815560010162000386565b5050505b505050565b81516001600160401b03811115620003c057620003c0620001aa565b620003d881620003d1845462000315565b8462000351565b602080601f831160018114620004105760008415620003f75750858301515b600019600386901b1c1916600185901b1785556200039b565b600085815260208120601f198616915b82811015620004415788860151825594840194600190910190840162000420565b5085821015620004605787850151600019600388901b60f8161c191681555b5050505050600190811b01905550565b61111280620004806000396000f3fe608060405234801561001057600080fd5b50600436106101165760003560e01c806342966c68116100a257806395d89b411161007157806395d89b411461023f578063a9059cbb14610247578063ac9650d81461025a578063dd62ed3e1461027a578063ed60c0fc146102b357600080fd5b806342966c68146101db5780637065cb48146101f057806370a082311461020357806379cc67901461022c57600080fd5b806318160ddd116100e957806318160ddd1461018557806323b872dd1461018d5780632f54bf6e146101a0578063313ce567146101b357806340c10f19146101c857600080fd5b806306fdde031461011b578063095ea7b3146101395780630db026221461015c578063173825d914610172575b600080fd5b6101236102c8565b6040516101309190610d1e565b60405180910390f35b61014c610147366004610d48565b61035a565b6040519015158152602001610130565b610164610374565b604051908152602001610130565b61014c610180366004610d72565b610385565b600554610164565b61014c61019b366004610d8d565b6103fe565b61014c6101ae366004610d72565b610424565b60085460405160ff9091168152602001610130565b6101646101d6366004610d48565b610431565b6101ee6101e9366004610dc9565b61046a565b005b61014c6101fe366004610d72565b610477565b610164610211366004610d72565b6001600160a01b031660009081526003602052604090205490565b6101ee61023a366004610d48565b6104ae565b6101236104c7565b61014c610255366004610d48565b6104d6565b61026d610268366004610de2565b6104e4565b6040516101309190610e57565b610164610288366004610eb9565b6001600160a01b03918216600090815260046020908152604080832093909416825291909152205490565b6102bb6105d7565b6040516101309190610eec565b6060600680546102d790610f39565b80601f016020809104026020016040519081016040528092919081815260200182805461030390610f39565b80156103505780601f1061032557610100808354040283529160200191610350565b820191906000526020600020905b81548152906001019060200180831161033357829003601f168201915b5050505050905090565b6000336103688185856105e3565b60019150505b92915050565b600061038060016105f5565b905090565b60006103926001336105ff565b6103b75760405162461bcd60e51b81526004016103ae90610f6d565b60405180910390fd5b6103c2600183610621565b6040519091506001600160a01b038316907f58619076adf5bb0943d100ef88d52d7c3fd691b19d3a9071b555b651fbf418da90600090a2919050565b60003361040c858285610636565b6104178585856106b4565b60019150505b9392505050565b600061036e6001836105ff565b600061043e6001336105ff565b61045a5760405162461bcd60e51b81526004016103ae90610f6d565b6104648383610713565b50919050565b6104743382610749565b50565b60006104846001336105ff565b6104a05760405162461bcd60e51b81526004016103ae90610f6d565b61036e8261077f565b919050565b6104b9823383610636565b6104c38282610749565b5050565b6060600780546102d790610f39565b6000336103688185856106b4565b6040805160008152602081019091526060908267ffffffffffffffff81111561050f5761050f610fdd565b60405190808252806020026020018201604052801561054257816020015b606081526020019060019003908161052d5790505b50915060005b838110156105cf5761059f3086868481811061056657610566610ff3565b90506020028101906105789190611009565b8560405160200161058b93929190611057565b604051602081830303815290604052610814565b8382815181106105b1576105b1610ff3565b602002602001018190525080806105c79061107e565b915050610548565b505092915050565b6060610380600161088a565b6105f08383836001610897565b505050565b600061036e825490565b6001600160a01b0381166000908152600183016020526040812054151561041d565b600061041d836001600160a01b03841661096c565b6001600160a01b0383811660009081526004602090815260408083209386168352929052205460001981146106ae578181101561069f57604051637dc7a0d960e11b81526001600160a01b038416600482015260248101829052604481018390526064016103ae565b6106ae84848484036000610897565b50505050565b6001600160a01b0383166106de57604051634b637e8f60e11b8152600060048201526024016103ae565b6001600160a01b0382166107085760405163ec442f0560e01b8152600060048201526024016103ae565b6105f0838383610a5f565b6001600160a01b03821661073d5760405163ec442f0560e01b8152600060048201526024016103ae565b6104c360008383610a5f565b6001600160a01b03821661077357604051634b637e8f60e11b8152600060048201526024016103ae565b6104c382600083610a5f565b6000805461078d60016105f5565b11156107cd5760405162461bcd60e51b815260206004820152600f60248201526e1bdddb995c9cc8195e18d959591959608a1b60448201526064016103ae565b6107d8600183610b89565b6040519091506001600160a01b038316907f994a936646fe87ffe4f1e469d3d6aa417d6b855598397f323de5b449f765f0c390600090a2919050565b6060600080846001600160a01b0316846040516108319190611097565b600060405180830381855af49150503d806000811461086c576040519150601f19603f3d011682016040523d82523d6000602084013e610871565b606091505b5091509150610881858383610b9e565b95945050505050565b6060600061041d83610bfa565b6001600160a01b0384166108c15760405163e602df0560e01b8152600060048201526024016103ae565b6001600160a01b0383166108eb57604051634a1406b160e11b8152600060048201526024016103ae565b6001600160a01b03808516600090815260046020908152604080832093871683529290522082905580156106ae57826001600160a01b0316846001600160a01b03167f8c5be1e5ebec7d5bd14f71427d1e84f3dd0314c0f7b2291e5b200ac8c7c3b9258460405161095e91815260200190565b60405180910390a350505050565b60008181526001830160205260408120548015610a55576000610990600183610fca565b85549091506000906109a490600190610fca565b9050808214610a095760008660000182815481106109c4576109c4610ff3565b90600052602060002001549050808760000184815481106109e7576109e7610ff3565b6000918252602080832090910192909255918252600188019052604090208390555b8554869080610a1a57610a1a6110b3565b60019003818190600052602060002001600090559055856001016000868152602001908152602001600020600090556001935050505061036e565b600091505061036e565b6001600160a01b038316610a8a578060056000828254610a7f91906110c9565b90915550610afc9050565b6001600160a01b03831660009081526003602052604090205481811015610add5760405163391434e360e21b81526001600160a01b038516600482015260248101829052604481018390526064016103ae565b6001600160a01b03841660009081526003602052604090209082900390555b6001600160a01b038216610b1857600580548290039055610b37565b6001600160a01b03821660009081526003602052604090208054820190555b816001600160a01b0316836001600160a01b03167fddf252ad1be2c89b69c2b068fc378daa952ba7f163c4a11628f55a4df523b3ef83604051610b7c91815260200190565b60405180910390a3505050565b600061041d836001600160a01b038416610c56565b606082610bb357610bae82610ca5565b61041d565b8151158015610bca57506001600160a01b0384163b155b15610bf357604051639996b31560e01b81526001600160a01b03851660048201526024016103ae565b508061041d565b606081600001805480602002602001604051908101604052809291908181526020018280548015610c4a57602002820191906000526020600020905b815481526020019060010190808311610c36575b50505050509050919050565b6000818152600183016020526040812054610c9d5750815460018181018455600084815260208082209093018490558454848252828601909352604090209190915561036e565b50600061036e565b805115610cb55780518082602001fd5b604051630a12f52160e11b815260040160405180910390fd5b60005b83811015610ce9578181015183820152602001610cd1565b50506000910152565b60008151808452610d0a816020860160208601610cce565b601f01601f19169290920160200192915050565b60208152600061041d6020830184610cf2565b80356001600160a01b03811681146104a957600080fd5b60008060408385031215610d5b57600080fd5b610d6483610d31565b946020939093013593505050565b600060208284031215610d8457600080fd5b61041d82610d31565b600080600060608486031215610da257600080fd5b610dab84610d31565b9250610db960208501610d31565b9150604084013590509250925092565b600060208284031215610ddb57600080fd5b5035919050565b60008060208385031215610df557600080fd5b823567ffffffffffffffff80821115610e0d57600080fd5b818501915085601f830112610e2157600080fd5b813581811115610e3057600080fd5b8660208260051b8501011115610e4557600080fd5b60209290920196919550909350505050565b6000602080830181845280855180835260408601915060408160051b870101925083870160005b82811015610eac57603f19888603018452610e9a858351610cf2565b94509285019290850190600101610e7e565b5092979650505050505050565b60008060408385031215610ecc57600080fd5b610ed583610d31565b9150610ee360208401610d31565b90509250929050565b6020808252825182820181905260009190848201906040850190845b81811015610f2d5783516001600160a01b031683529284019291840191600101610f08565b50909695505050505050565b600181811c90821680610f4d57607f821691505b60208210810361046457634e487b7160e01b600052602260045260246000fd5b60208082526027908201527f4f6e6c79206f776e65722063616e20657865637574652074686973207472616e60408201526639b0b1ba34b7b760c91b606082015260800190565b634e487b7160e01b600052601160045260246000fd5b8181038181111561036e5761036e610fb4565b634e487b7160e01b600052604160045260246000fd5b634e487b7160e01b600052603260045260246000fd5b6000808335601e1984360301811261102057600080fd5b83018035915067ffffffffffffffff82111561103b57600080fd5b60200191503681900382131561105057600080fd5b9250929050565b828482376000838201600081528351611074818360208801610cce565b0195945050505050565b60006001820161109057611090610fb4565b5060010190565b600082516110a9818460208701610cce565b9190910192915050565b634e487b7160e01b600052603160045260246000fd5b8082018082111561036e5761036e610fb456fea2646970667358221220c1301e1280e1ab152ee1bf5665cbea6f361900231df7560db6cf9729757f8a7664736f6c63430008140033a26469706673582212208b0b14e27f524120d4236c57ec13c514fc677256f7a989dab0477d7166eac41d64736f6c63430008140033",
          "opcodes": "PUSH1 0x80 PUSH1 0x40 MSTORE PUSH1 0x32 PUSH1 0x0 SSTORE CALLVALUE DUP1 ISZERO PUSH3 0x16 JUMPI PUSH1 0x0 DUP1 REVERT JUMPDEST POP PUSH1 0x40 MLOAD PUSH3 0x2FAC CODESIZE SUB DUP1 PUSH3 0x2FAC DUP4 CODECOPY DUP2 ADD PUSH1 0x40 DUP2 SWAP1 MSTORE PUSH3 0x39 SWAP2 PUSH3 0x16B JUMP JUMPDEST PUSH3 0x44 DUP2 PUSH3 0x4C JUMP JUMPDEST POP POP PUSH3 0x196 JUMP JUMPDEST PUSH1 0x0 DUP1 SLOAD PUSH3 0x5C PUSH1 0x1 PUSH3 0xEA JUMP JUMPDEST GT ISZERO PUSH3 0xA1 JUMPI PUSH1 0x40 MLOAD PUSH3 0x461BCD PUSH1 0xE5 SHL DUP2 MSTORE PUSH1 0x20 PUSH1 0x4 DUP3 ADD MSTORE PUSH1 0xF PUSH1 0x24 DUP3 ADD MSTORE PUSH15 0x1BDDDB995C9CC8195E18D959591959 PUSH1 0x8A SHL PUSH1 0x44 DUP3 ADD MSTORE PUSH1 0x64 ADD PUSH1 0x40 MLOAD DUP1 SWAP2 SUB SWAP1 REVERT JUMPDEST PUSH3 0xAE PUSH1 0x1 DUP4 PUSH3 0xFB JUMP JUMPDEST PUSH1 0x40 MLOAD SWAP1 SWAP2 POP PUSH1 0x1 PUSH1 0x1 PUSH1 0xA0 SHL SUB DUP4 AND SWAP1 PUSH32 0x994A936646FE87FFE4F1E469D3D6AA417D6B855598397F323DE5B449F765F0C3 SWAP1 PUSH1 0x0 SWAP1 LOG2 SWAP2 SWAP1 POP JUMP JUMPDEST PUSH1 0x0 PUSH3 0xF5 DUP3 SLOAD SWAP1 JUMP JUMPDEST SWAP3 SWAP2 POP POP JUMP JUMPDEST PUSH1 0x0 PUSH3 0x112 DUP4 PUSH1 0x1 PUSH1 0x1 PUSH1 0xA0 SHL SUB DUP5 AND PUSH3 0x119 JUMP JUMPDEST SWAP4 SWAP3 POP POP POP JUMP JUMPDEST PUSH1 0x0 DUP2 DUP2 MSTORE PUSH1 0x1 DUP4 ADD PUSH1 0x20 MSTORE PUSH1 0x40 DUP2 KECCAK256 SLOAD PUSH3 0x162 JUMPI POP DUP2 SLOAD PUSH1 0x1 DUP2 DUP2 ADD DUP5 SSTORE PUSH1 0x0 DUP5 DUP2 MSTORE PUSH1 0x20 DUP1 DUP3 KECCAK256 SWAP1 SWAP4 ADD DUP5 SWAP1 SSTORE DUP5 SLOAD DUP5 DUP3 MSTORE DUP3 DUP7 ADD SWAP1 SWAP4 MSTORE PUSH1 0x40 SWAP1 KECCAK256 SWAP2 SWAP1 SWAP2 SSTORE PUSH3 0xF5 JUMP JUMPDEST POP PUSH1 0x0 PUSH3 0xF5 JUMP JUMPDEST PUSH1 0x0 PUSH1 0x20 DUP3 DUP5 SUB SLT ISZERO PUSH3 0x17E JUMPI PUSH1 0x0 DUP1 REVERT JUMPDEST DUP2 MLOAD PUSH1 0x1 PUSH1 0x1 PUSH1 0xA0 SHL SUB DUP2 AND DUP2 EQ PUSH3 0x112 JUMPI PUSH1 0x0 DUP1 REVERT JUMPDEST PUSH2 0x2E06 DUP1 PUSH3 0x1A6 PUSH1 0x0 CODECOPY PUSH1 0x0 RETURN INVALID PUSH1 0x80 PUSH1 0x40 MSTORE CALLVALUE DUP1 ISZERO PUSH3 0x11 JUMPI PUSH1 0x0 DUP1 REVERT JUMPDEST POP PUSH1 0x4 CALLDATASIZE LT PUSH3 0x139 JUMPI PUSH1 0x0 CALLDATALOAD PUSH1 0xE0 SHR DUP1 PUSH4 0x79C65068 GT PUSH3 0xBB JUMPI DUP1 PUSH4 0xDA3E3397 GT PUSH3 0x7A JUMPI DUP1 PUSH4 0xDA3E3397 EQ PUSH3 0x304 JUMPI DUP1 PUSH4 0xE8A0AED3 EQ PUSH3 0x31B JUMPI DUP1 PUSH4 0xED60C0FC EQ PUSH3 0x34B JUMPI DUP1 PUSH4 0xF5537EDE EQ PUSH3 0x364 JUMPI DUP1 PUSH4 0xFB3C0D70 EQ PUSH3 0x37B JUMPI PUSH1 0x0 DUP1 REVERT JUMPDEST DUP1 PUSH4 0x79C65068 EQ PUSH3 0x23C JUMPI DUP1 PUSH4 0x9A7B612A EQ PUSH3 0x253 JUMPI DUP1 PUSH4 0xA80F5612 EQ PUSH3 0x27C JUMPI DUP1 PUSH4 0xAC9650D8 EQ PUSH3 0x2A2 JUMPI DUP1 PUSH4 0xD293CF25 EQ PUSH3 0x2C8 JUMPI PUSH1 0x0 DUP1 REVERT JUMPDEST DUP1 PUSH4 0x2A92967A GT PUSH3 0x108 JUMPI DUP1 PUSH4 0x2A92967A EQ PUSH3 0x1B3 JUMPI DUP1 PUSH4 0x2CB5568E EQ PUSH3 0x1CA JUMPI DUP1 PUSH4 0x2F54BF6E EQ PUSH3 0x1E1 JUMPI DUP1 PUSH4 0x4937B174 EQ PUSH3 0x1F8 JUMPI DUP1 PUSH4 0x7065CB48 EQ PUSH3 0x225 JUMPI PUSH1 0x0 DUP1 REVERT JUMPDEST DUP1 PUSH4 0x1FFC9A7 EQ PUSH3 0x13E JUMPI DUP1 PUSH4 0xDB02622 EQ PUSH3 0x16A JUMPI DUP1 PUSH4 0x125BFB66 EQ PUSH3 0x183 JUMPI DUP1 PUSH4 0x173825D9 EQ PUSH3 0x19C JUMPI JUMPDEST PUSH1 0x0 DUP1 REVERT JUMPDEST PUSH3 0x155 PUSH3 0x14F CALLDATASIZE PUSH1 0x4 PUSH3 0x11BF JUMP JUMPDEST PUSH3 0x392 JUMP JUMPDEST PUSH1 0x40 MLOAD SWAP1 ISZERO ISZERO DUP2 MSTORE PUSH1 0x20 ADD JUMPDEST PUSH1 0x40 MLOAD DUP1 SWAP2 SUB SWAP1 RETURN JUMPDEST PUSH3 0x174 PUSH3 0x3CA JUMP JUMPDEST PUSH1 0x40 MLOAD SWAP1 DUP2 MSTORE PUSH1 0x20 ADD PUSH3 0x161 JUMP JUMPDEST PUSH3 0x19A PUSH3 0x194 CALLDATASIZE PUSH1 0x4 PUSH3 0x1203 JUMP JUMPDEST PUSH3 0x3DD JUMP JUMPDEST STOP JUMPDEST PUSH3 0x155 PUSH3 0x1AD CALLDATASIZE PUSH1 0x4 PUSH3 0x1244 JUMP JUMPDEST PUSH3 0x495 JUMP JUMPDEST PUSH3 0x19A PUSH3 0x1C4 CALLDATASIZE PUSH1 0x4 PUSH3 0x1262 JUMP JUMPDEST PUSH3 0x50C JUMP JUMPDEST PUSH3 0x19A PUSH3 0x1DB CALLDATASIZE PUSH1 0x4 PUSH3 0x12B6 JUMP JUMPDEST PUSH3 0x830 JUMP JUMPDEST PUSH3 0x155 PUSH3 0x1F2 CALLDATASIZE PUSH1 0x4 PUSH3 0x1244 JUMP JUMPDEST PUSH3 0x8D0 JUMP JUMPDEST PUSH3 0x20F PUSH3 0x209 CALLDATASIZE PUSH1 0x4 PUSH3 0x12B6 JUMP JUMPDEST PUSH3 0x8DF JUMP JUMPDEST PUSH1 0x40 DUP1 MLOAD SWAP3 DUP4 MSTORE PUSH1 0x20 DUP4 ADD SWAP2 SWAP1 SWAP2 MSTORE ADD PUSH3 0x161 JUMP JUMPDEST PUSH3 0x155 PUSH3 0x236 CALLDATASIZE PUSH1 0x4 PUSH3 0x1244 JUMP JUMPDEST PUSH3 0x9CE JUMP JUMPDEST PUSH3 0x19A PUSH3 0x24D CALLDATASIZE PUSH1 0x4 PUSH3 0x12E5 JUMP JUMPDEST PUSH3 0xA0C JUMP JUMPDEST PUSH3 0x262 PUSH4 0x612D4D5D PUSH1 0xE1 SHL DUP2 JUMP JUMPDEST PUSH1 0x40 MLOAD PUSH1 0x1 PUSH1 0x1 PUSH1 0xE0 SHL SUB NOT SWAP1 SWAP2 AND DUP2 MSTORE PUSH1 0x20 ADD PUSH3 0x161 JUMP JUMPDEST PUSH3 0x155 PUSH3 0x28D CALLDATASIZE PUSH1 0x4 PUSH3 0x1244 JUMP JUMPDEST PUSH1 0x3 PUSH1 0x20 MSTORE PUSH1 0x0 SWAP1 DUP2 MSTORE PUSH1 0x40 SWAP1 KECCAK256 SLOAD PUSH1 0xFF AND DUP2 JUMP JUMPDEST PUSH3 0x2B9 PUSH3 0x2B3 CALLDATASIZE PUSH1 0x4 PUSH3 0x1312 JUMP JUMPDEST PUSH3 0xAAC JUMP JUMPDEST PUSH1 0x40 MLOAD PUSH3 0x161 SWAP2 SWAP1 PUSH3 0x13E0 JUMP JUMPDEST PUSH3 0x19A PUSH3 0x2D9 CALLDATASIZE PUSH1 0x4 PUSH3 0x1455 JUMP JUMPDEST PUSH1 0x1 PUSH1 0x1 PUSH1 0xA0 SHL SUB SWAP2 SWAP1 SWAP2 AND PUSH1 0x0 SWAP1 DUP2 MSTORE PUSH1 0x3 PUSH1 0x20 MSTORE PUSH1 0x40 SWAP1 KECCAK256 DUP1 SLOAD PUSH1 0xFF NOT AND SWAP2 ISZERO ISZERO SWAP2 SWAP1 SWAP2 OR SWAP1 SSTORE JUMP JUMPDEST PUSH3 0x19A PUSH3 0x315 CALLDATASIZE PUSH1 0x4 PUSH3 0x1203 JUMP JUMPDEST PUSH3 0xBB4 JUMP JUMPDEST PUSH3 0x332 PUSH3 0x32C CALLDATASIZE PUSH1 0x4 PUSH3 0x153C JUMP JUMPDEST PUSH3 0xC16 JUMP JUMPDEST PUSH1 0x40 MLOAD PUSH1 0x1 PUSH1 0x1 PUSH1 0xA0 SHL SUB SWAP1 SWAP2 AND DUP2 MSTORE PUSH1 0x20 ADD PUSH3 0x161 JUMP JUMPDEST PUSH3 0x355 PUSH3 0xCC9 JUMP JUMPDEST PUSH1 0x40 MLOAD PUSH3 0x161 SWAP2 SWAP1 PUSH3 0x15C2 JUMP JUMPDEST PUSH3 0x19A PUSH3 0x375 CALLDATASIZE PUSH1 0x4 PUSH3 0x1203 JUMP JUMPDEST PUSH3 0xCD7 JUMP JUMPDEST PUSH3 0x19A PUSH3 0x38C CALLDATASIZE PUSH1 0x4 PUSH3 0x1611 JUMP JUMPDEST PUSH3 0xD39 JUMP JUMPDEST PUSH1 0x0 PUSH1 0x1 PUSH1 0x1 PUSH1 0xE0 SHL SUB NOT DUP3 AND PUSH4 0x612D4D5D PUSH1 0xE1 SHL EQ DUP1 PUSH3 0x3C4 JUMPI POP PUSH4 0x1FFC9A7 PUSH1 0xE0 SHL PUSH1 0x1 PUSH1 0x1 PUSH1 0xE0 SHL SUB NOT DUP4 AND EQ JUMPDEST SWAP3 SWAP2 POP POP JUMP JUMPDEST PUSH1 0x0 PUSH3 0x3D8 PUSH1 0x1 PUSH3 0xDEA JUMP JUMPDEST SWAP1 POP SWAP1 JUMP JUMPDEST PUSH3 0x3EA PUSH1 0x1 CALLER PUSH3 0xDF5 JUMP JUMPDEST PUSH3 0x412 JUMPI PUSH1 0x40 MLOAD PUSH3 0x461BCD PUSH1 0xE5 SHL DUP2 MSTORE PUSH1 0x4 ADD PUSH3 0x409 SWAP1 PUSH3 0x1663 JUMP JUMPDEST PUSH1 0x40 MLOAD DUP1 SWAP2 SUB SWAP1 REVERT JUMPDEST PUSH1 0x40 MLOAD PUSH4 0x23B872DD PUSH1 0xE0 SHL DUP2 MSTORE PUSH1 0x1 PUSH1 0x1 PUSH1 0xA0 SHL SUB DUP4 DUP2 AND PUSH1 0x4 DUP4 ADD MSTORE ADDRESS PUSH1 0x24 DUP4 ADD MSTORE PUSH1 0x44 DUP3 ADD DUP4 SWAP1 MSTORE DUP5 AND SWAP1 PUSH4 0x23B872DD SWAP1 PUSH1 0x64 ADD JUMPDEST PUSH1 0x20 PUSH1 0x40 MLOAD DUP1 DUP4 SUB DUP2 PUSH1 0x0 DUP8 GAS CALL ISZERO DUP1 ISZERO PUSH3 0x469 JUMPI RETURNDATASIZE PUSH1 0x0 DUP1 RETURNDATACOPY RETURNDATASIZE PUSH1 0x0 REVERT JUMPDEST POP POP POP POP PUSH1 0x40 MLOAD RETURNDATASIZE PUSH1 0x1F NOT PUSH1 0x1F DUP3 ADD AND DUP3 ADD DUP1 PUSH1 0x40 MSTORE POP DUP2 ADD SWAP1 PUSH3 0x48F SWAP2 SWAP1 PUSH3 0x16AA JUMP JUMPDEST POP POP POP POP JUMP JUMPDEST PUSH1 0x0 PUSH3 0x4A4 PUSH1 0x1 CALLER PUSH3 0xDF5 JUMP JUMPDEST PUSH3 0x4C3 JUMPI PUSH1 0x40 MLOAD PUSH3 0x461BCD PUSH1 0xE5 SHL DUP2 MSTORE PUSH1 0x4 ADD PUSH3 0x409 SWAP1 PUSH3 0x1663 JUMP JUMPDEST PUSH3 0x4D0 PUSH1 0x1 DUP4 PUSH3 0xE18 JUMP JUMPDEST PUSH1 0x40 MLOAD SWAP1 SWAP2 POP PUSH1 0x1 PUSH1 0x1 PUSH1 0xA0 SHL SUB DUP4 AND SWAP1 PUSH32 0x58619076ADF5BB0943D100EF88D52D7C3FD691B19D3A9071B555B651FBF418DA SWAP1 PUSH1 0x0 SWAP1 LOG2 SWAP2 SWAP1 POP JUMP JUMPDEST PUSH3 0x519 PUSH1 0x1 CALLER PUSH3 0xDF5 JUMP JUMPDEST PUSH3 0x538 JUMPI PUSH1 0x40 MLOAD PUSH3 0x461BCD PUSH1 0xE5 SHL DUP2 MSTORE PUSH1 0x4 ADD PUSH3 0x409 SWAP1 PUSH3 0x1663 JUMP JUMPDEST PUSH1 0x1 PUSH1 0x1 PUSH1 0xA0 SHL SUB DUP5 AND PUSH3 0x590 JUMPI PUSH1 0x40 MLOAD PUSH3 0x461BCD PUSH1 0xE5 SHL DUP2 MSTORE PUSH1 0x20 PUSH1 0x4 DUP3 ADD MSTORE PUSH1 0x1C PUSH1 0x24 DUP3 ADD MSTORE PUSH32 0x746F6B656E20616464726573732063616E6E6F74206265207A65726F00000000 PUSH1 0x44 DUP3 ADD MSTORE PUSH1 0x64 ADD PUSH3 0x409 JUMP JUMPDEST PUSH1 0x1 PUSH1 0x1 PUSH1 0xA0 SHL SUB DUP4 AND PUSH3 0x5E8 JUMPI PUSH1 0x40 MLOAD PUSH3 0x461BCD PUSH1 0xE5 SHL DUP2 MSTORE PUSH1 0x20 PUSH1 0x4 DUP3 ADD MSTORE PUSH1 0x1E PUSH1 0x24 DUP3 ADD MSTORE PUSH32 0x617070726F766520616464726573732063616E6E6F74206265207A65726F0000 PUSH1 0x44 DUP3 ADD MSTORE PUSH1 0x64 ADD PUSH3 0x409 JUMP JUMPDEST PUSH1 0x1 PUSH1 0x1 PUSH1 0xA0 SHL SUB DUP2 AND PUSH3 0x640 JUMPI PUSH1 0x40 MLOAD PUSH3 0x461BCD PUSH1 0xE5 SHL DUP2 MSTORE PUSH1 0x20 PUSH1 0x4 DUP3 ADD MSTORE PUSH1 0x1E PUSH1 0x24 DUP3 ADD MSTORE PUSH32 0x617070726F766520616464726573732063616E6E6F74206265207A65726F0000 PUSH1 0x44 DUP3 ADD MSTORE PUSH1 0x64 ADD PUSH3 0x409 JUMP JUMPDEST PUSH1 0x1 PUSH1 0x1 PUSH1 0xA0 SHL SUB DUP2 AND PUSH1 0x0 SWAP1 DUP2 MSTORE PUSH1 0x3 PUSH1 0x20 MSTORE PUSH1 0x40 SWAP1 KECCAK256 SLOAD PUSH1 0xFF AND PUSH3 0x6A3 JUMPI PUSH1 0x40 MLOAD PUSH3 0x461BCD PUSH1 0xE5 SHL DUP2 MSTORE PUSH1 0x20 PUSH1 0x4 DUP3 ADD MSTORE PUSH1 0x16 PUSH1 0x24 DUP3 ADD MSTORE PUSH22 0x1C1C9BDA9958DD081B9BDD081C9959DA5CDD195C9959 PUSH1 0x52 SHL PUSH1 0x44 DUP3 ADD MSTORE PUSH1 0x64 ADD PUSH3 0x409 JUMP JUMPDEST PUSH1 0x0 DUP3 GT PUSH3 0x6ED JUMPI PUSH1 0x40 MLOAD PUSH3 0x461BCD PUSH1 0xE5 SHL DUP2 MSTORE PUSH1 0x20 PUSH1 0x4 DUP3 ADD MSTORE PUSH1 0x15 PUSH1 0x24 DUP3 ADD MSTORE PUSH21 0x616D6F756E742063616E6E6F74206265207A65726F PUSH1 0x58 SHL PUSH1 0x44 DUP3 ADD MSTORE PUSH1 0x64 ADD PUSH3 0x409 JUMP JUMPDEST PUSH1 0x40 MLOAD PUSH4 0x40C10F19 PUSH1 0xE0 SHL DUP2 MSTORE ADDRESS PUSH1 0x4 DUP3 ADD MSTORE PUSH1 0x24 DUP2 ADD DUP4 SWAP1 MSTORE DUP5 SWAP1 PUSH1 0x1 PUSH1 0x1 PUSH1 0xA0 SHL SUB DUP3 AND SWAP1 PUSH4 0x40C10F19 SWAP1 PUSH1 0x44 ADD PUSH1 0x20 PUSH1 0x40 MLOAD DUP1 DUP4 SUB DUP2 PUSH1 0x0 DUP8 GAS CALL ISZERO DUP1 ISZERO PUSH3 0x73D JUMPI RETURNDATASIZE PUSH1 0x0 DUP1 RETURNDATACOPY RETURNDATASIZE PUSH1 0x0 REVERT JUMPDEST POP POP POP POP PUSH1 0x40 MLOAD RETURNDATASIZE PUSH1 0x1F NOT PUSH1 0x1F DUP3 ADD AND DUP3 ADD DUP1 PUSH1 0x40 MSTORE POP DUP2 ADD SWAP1 PUSH3 0x763 SWAP2 SWAP1 PUSH3 0x16CA JUMP JUMPDEST POP PUSH1 0x40 MLOAD PUSH4 0x95EA7B3 PUSH1 0xE0 SHL DUP2 MSTORE PUSH1 0x1 PUSH1 0x1 PUSH1 0xA0 SHL SUB DUP6 DUP2 AND PUSH1 0x4 DUP4 ADD MSTORE PUSH1 0x24 DUP3 ADD DUP6 SWAP1 MSTORE DUP3 AND SWAP1 PUSH4 0x95EA7B3 SWAP1 PUSH1 0x44 ADD PUSH1 0x20 PUSH1 0x40 MLOAD DUP1 DUP4 SUB DUP2 PUSH1 0x0 DUP8 GAS CALL ISZERO DUP1 ISZERO PUSH3 0x7B4 JUMPI RETURNDATASIZE PUSH1 0x0 DUP1 RETURNDATACOPY RETURNDATASIZE PUSH1 0x0 REVERT JUMPDEST POP POP POP POP PUSH1 0x40 MLOAD RETURNDATASIZE PUSH1 0x1F NOT PUSH1 0x1F DUP3 ADD AND DUP3 ADD DUP1 PUSH1 0x40 MSTORE POP DUP2 ADD SWAP1 PUSH3 0x7DA SWAP2 SWAP1 PUSH3 0x16AA JUMP JUMPDEST POP DUP4 PUSH1 0x1 PUSH1 0x1 PUSH1 0xA0 SHL SUB AND DUP6 PUSH1 0x1 PUSH1 0x1 PUSH1 0xA0 SHL SUB AND PUSH32 0xDC6904C4E8E3746F835EB600662C644C895C758995784A4B39C68F75355B2D27 DUP6 PUSH1 0x40 MLOAD PUSH3 0x821 SWAP2 DUP2 MSTORE PUSH1 0x20 ADD SWAP1 JUMP JUMPDEST PUSH1 0x40 MLOAD DUP1 SWAP2 SUB SWAP1 LOG3 POP POP POP POP POP JUMP JUMPDEST PUSH3 0x83D PUSH1 0x1 CALLER PUSH3 0xDF5 JUMP JUMPDEST PUSH3 0x85C JUMPI PUSH1 0x40 MLOAD PUSH3 0x461BCD PUSH1 0xE5 SHL DUP2 MSTORE PUSH1 0x4 ADD PUSH3 0x409 SWAP1 PUSH3 0x1663 JUMP JUMPDEST PUSH1 0x40 MLOAD PUSH4 0xE0CB969 PUSH1 0xE3 SHL DUP2 MSTORE PUSH1 0x1 PUSH1 0x1 PUSH1 0xA0 SHL SUB DUP3 DUP2 AND PUSH1 0x4 DUP4 ADD MSTORE DUP4 AND SWAP1 PUSH4 0x7065CB48 SWAP1 PUSH1 0x24 ADD PUSH1 0x20 PUSH1 0x40 MLOAD DUP1 DUP4 SUB DUP2 PUSH1 0x0 DUP8 GAS CALL ISZERO DUP1 ISZERO PUSH3 0x8A5 JUMPI RETURNDATASIZE PUSH1 0x0 DUP1 RETURNDATACOPY RETURNDATASIZE PUSH1 0x0 REVERT JUMPDEST POP POP POP POP PUSH1 0x40 MLOAD RETURNDATASIZE PUSH1 0x1F NOT PUSH1 0x1F DUP3 ADD AND DUP3 ADD DUP1 PUSH1 0x40 MSTORE POP DUP2 ADD SWAP1 PUSH3 0x8CB SWAP2 SWAP1 PUSH3 0x16AA JUMP JUMPDEST POP POP POP JUMP JUMPDEST PUSH1 0x0 PUSH3 0x3C4 PUSH1 0x1 DUP4 PUSH3 0xDF5 JUMP JUMPDEST PUSH1 0x40 MLOAD PUSH4 0x6EB1769F PUSH1 0xE1 SHL DUP2 MSTORE PUSH1 0x1 PUSH1 0x1 PUSH1 0xA0 SHL SUB DUP3 DUP2 AND PUSH1 0x4 DUP4 ADD MSTORE ADDRESS PUSH1 0x24 DUP4 ADD MSTORE PUSH1 0x0 SWAP2 DUP3 SWAP2 DUP6 AND SWAP1 PUSH4 0xDD62ED3E SWAP1 PUSH1 0x44 ADD PUSH1 0x20 PUSH1 0x40 MLOAD DUP1 DUP4 SUB DUP2 DUP7 GAS STATICCALL ISZERO DUP1 ISZERO PUSH3 0x931 JUMPI RETURNDATASIZE PUSH1 0x0 DUP1 RETURNDATACOPY RETURNDATASIZE PUSH1 0x0 REVERT JUMPDEST POP POP POP POP PUSH1 0x40 MLOAD RETURNDATASIZE PUSH1 0x1F NOT PUSH1 0x1F DUP3 ADD AND DUP3 ADD DUP1 PUSH1 0x40 MSTORE POP DUP2 ADD SWAP1 PUSH3 0x957 SWAP2 SWAP1 PUSH3 0x16CA JUMP JUMPDEST PUSH1 0x40 MLOAD PUSH4 0x70A08231 PUSH1 0xE0 SHL DUP2 MSTORE ADDRESS PUSH1 0x4 DUP3 ADD MSTORE SWAP1 SWAP3 POP PUSH1 0x1 PUSH1 0x1 PUSH1 0xA0 SHL SUB DUP6 AND SWAP1 PUSH4 0x70A08231 SWAP1 PUSH1 0x24 ADD PUSH1 0x20 PUSH1 0x40 MLOAD DUP1 DUP4 SUB DUP2 DUP7 GAS STATICCALL ISZERO DUP1 ISZERO PUSH3 0x99F JUMPI RETURNDATASIZE PUSH1 0x0 DUP1 RETURNDATACOPY RETURNDATASIZE PUSH1 0x0 REVERT JUMPDEST POP POP POP POP PUSH1 0x40 MLOAD RETURNDATASIZE PUSH1 0x1F NOT PUSH1 0x1F DUP3 ADD AND DUP3 ADD DUP1 PUSH1 0x40 MSTORE POP DUP2 ADD SWAP1 PUSH3 0x9C5 SWAP2 SWAP1 PUSH3 0x16CA JUMP JUMPDEST SWAP1 POP SWAP3 POP SWAP3 SWAP1 POP JUMP JUMPDEST PUSH1 0x0 PUSH3 0x9DD PUSH1 0x1 CALLER PUSH3 0xDF5 JUMP JUMPDEST PUSH3 0x9FC JUMPI PUSH1 0x40 MLOAD PUSH3 0x461BCD PUSH1 0xE5 SHL DUP2 MSTORE PUSH1 0x4 ADD PUSH3 0x409 SWAP1 PUSH3 0x1663 JUMP JUMPDEST PUSH3 0x3C4 DUP3 PUSH3 0xE2F JUMP JUMPDEST SWAP2 SWAP1 POP JUMP JUMPDEST PUSH3 0xA19 PUSH1 0x1 CALLER PUSH3 0xDF5 JUMP JUMPDEST PUSH3 0xA38 JUMPI PUSH1 0x40 MLOAD PUSH3 0x461BCD PUSH1 0xE5 SHL DUP2 MSTORE PUSH1 0x4 ADD PUSH3 0x409 SWAP1 PUSH3 0x1663 JUMP JUMPDEST PUSH1 0x40 MLOAD PUSH4 0x40C10F19 PUSH1 0xE0 SHL DUP2 MSTORE ADDRESS PUSH1 0x4 DUP3 ADD MSTORE PUSH1 0x24 DUP2 ADD DUP3 SWAP1 MSTORE PUSH1 0x1 PUSH1 0x1 PUSH1 0xA0 SHL SUB DUP4 AND SWAP1 PUSH4 0x40C10F19 SWAP1 PUSH1 0x44 ADD PUSH1 0x20 PUSH1 0x40 MLOAD DUP1 DUP4 SUB DUP2 PUSH1 0x0 DUP8 GAS CALL ISZERO DUP1 ISZERO PUSH3 0xA86 JUMPI RETURNDATASIZE PUSH1 0x0 DUP1 RETURNDATACOPY RETURNDATASIZE PUSH1 0x0 REVERT JUMPDEST POP POP POP POP PUSH1 0x40 MLOAD RETURNDATASIZE PUSH1 0x1F NOT PUSH1 0x1F DUP3 ADD AND DUP3 ADD DUP1 PUSH1 0x40 MSTORE POP DUP2 ADD SWAP1 PUSH3 0x8CB SWAP2 SWAP1 PUSH3 0x16CA JUMP JUMPDEST PUSH1 0x40 DUP1 MLOAD PUSH1 0x0 DUP2 MSTORE PUSH1 0x20 DUP2 ADD SWAP1 SWAP2 MSTORE PUSH1 0x60 SWAP1 DUP3 PUSH8 0xFFFFFFFFFFFFFFFF DUP2 GT ISZERO PUSH3 0xADA JUMPI PUSH3 0xADA PUSH3 0x1491 JUMP JUMPDEST PUSH1 0x40 MLOAD SWAP1 DUP1 DUP3 MSTORE DUP1 PUSH1 0x20 MUL PUSH1 0x20 ADD DUP3 ADD PUSH1 0x40 MSTORE DUP1 ISZERO PUSH3 0xB0F JUMPI DUP2 PUSH1 0x20 ADD JUMPDEST PUSH1 0x60 DUP2 MSTORE PUSH1 0x20 ADD SWAP1 PUSH1 0x1 SWAP1 SUB SWAP1 DUP2 PUSH3 0xAF9 JUMPI SWAP1 POP JUMPDEST POP SWAP2 POP PUSH1 0x0 JUMPDEST DUP4 DUP2 LT ISZERO PUSH3 0xBAC JUMPI PUSH3 0xB76 ADDRESS DUP7 DUP7 DUP5 DUP2 DUP2 LT PUSH3 0xB38 JUMPI PUSH3 0xB38 PUSH3 0x1710 JUMP JUMPDEST SWAP1 POP PUSH1 0x20 MUL DUP2 ADD SWAP1 PUSH3 0xB4C SWAP2 SWAP1 PUSH3 0x1726 JUMP JUMPDEST DUP6 PUSH1 0x40 MLOAD PUSH1 0x20 ADD PUSH3 0xB61 SWAP4 SWAP3 SWAP2 SWAP1 PUSH3 0x1777 JUMP JUMPDEST PUSH1 0x40 MLOAD PUSH1 0x20 DUP2 DUP4 SUB SUB DUP2 MSTORE SWAP1 PUSH1 0x40 MSTORE PUSH3 0xECA JUMP JUMPDEST DUP4 DUP3 DUP2 MLOAD DUP2 LT PUSH3 0xB8B JUMPI PUSH3 0xB8B PUSH3 0x1710 JUMP JUMPDEST PUSH1 0x20 MUL PUSH1 0x20 ADD ADD DUP2 SWAP1 MSTORE POP DUP1 DUP1 PUSH3 0xBA3 SWAP1 PUSH3 0x17A0 JUMP JUMPDEST SWAP2 POP POP PUSH3 0xB15 JUMP JUMPDEST POP POP SWAP3 SWAP2 POP POP JUMP JUMPDEST PUSH3 0xBC1 PUSH1 0x1 CALLER PUSH3 0xDF5 JUMP JUMPDEST PUSH3 0xBE0 JUMPI PUSH1 0x40 MLOAD PUSH3 0x461BCD PUSH1 0xE5 SHL DUP2 MSTORE PUSH1 0x4 ADD PUSH3 0x409 SWAP1 PUSH3 0x1663 JUMP JUMPDEST PUSH1 0x40 MLOAD PUSH4 0x95EA7B3 PUSH1 0xE0 SHL DUP2 MSTORE PUSH1 0x1 PUSH1 0x1 PUSH1 0xA0 SHL SUB DUP4 DUP2 AND PUSH1 0x4 DUP4 ADD MSTORE PUSH1 0x24 DUP3 ADD DUP4 SWAP1 MSTORE DUP5 AND SWAP1 PUSH4 0x95EA7B3 SWAP1 PUSH1 0x44 ADD PUSH3 0x449 JUMP JUMPDEST PUSH1 0x0 PUSH3 0xC25 PUSH1 0x1 CALLER PUSH3 0xDF5 JUMP JUMPDEST PUSH3 0xC44 JUMPI PUSH1 0x40 MLOAD PUSH3 0x461BCD PUSH1 0xE5 SHL DUP2 MSTORE PUSH1 0x4 ADD PUSH3 0x409 SWAP1 PUSH3 0x1663 JUMP JUMPDEST PUSH1 0x0 DUP5 DUP5 ADDRESS DUP6 PUSH1 0x40 MLOAD PUSH3 0xC58 SWAP1 PUSH3 0x11B1 JUMP JUMPDEST PUSH3 0xC67 SWAP5 SWAP4 SWAP3 SWAP2 SWAP1 PUSH3 0x17BC JUMP JUMPDEST PUSH1 0x40 MLOAD DUP1 SWAP2 SUB SWAP1 PUSH1 0x0 CREATE DUP1 ISZERO DUP1 ISZERO PUSH3 0xC84 JUMPI RETURNDATASIZE PUSH1 0x0 DUP1 RETURNDATACOPY RETURNDATASIZE PUSH1 0x0 REVERT JUMPDEST POP PUSH1 0x40 MLOAD SWAP1 SWAP2 POP DUP2 SWAP1 PUSH1 0x1 PUSH1 0x1 PUSH1 0xA0 SHL SUB DUP3 AND SWAP1 PUSH32 0x2E2B3F61B70D2D131B2A807371103CC98D51ADCAA5E9A8F9C32658AD8426E74E SWAP1 PUSH1 0x0 SWAP1 LOG2 SWAP2 POP POP JUMPDEST SWAP4 SWAP3 POP POP POP JUMP JUMPDEST PUSH1 0x60 PUSH3 0x3D8 PUSH1 0x1 PUSH3 0xF46 JUMP JUMPDEST PUSH3 0xCE4 PUSH1 0x1 CALLER PUSH3 0xDF5 JUMP JUMPDEST PUSH3 0xD03 JUMPI PUSH1 0x40 MLOAD PUSH3 0x461BCD PUSH1 0xE5 SHL DUP2 MSTORE PUSH1 0x4 ADD PUSH3 0x409 SWAP1 PUSH3 0x1663 JUMP JUMPDEST PUSH1 0x40 MLOAD PUSH4 0xA9059CBB PUSH1 0xE0 SHL DUP2 MSTORE PUSH1 0x1 PUSH1 0x1 PUSH1 0xA0 SHL SUB DUP4 DUP2 AND PUSH1 0x4 DUP4 ADD MSTORE PUSH1 0x24 DUP3 ADD DUP4 SWAP1 MSTORE DUP5 AND SWAP1 PUSH4 0xA9059CBB SWAP1 PUSH1 0x44 ADD PUSH3 0x449 JUMP JUMPDEST PUSH3 0xD46 PUSH1 0x1 CALLER PUSH3 0xDF5 JUMP JUMPDEST PUSH3 0xD65 JUMPI PUSH1 0x40 MLOAD PUSH3 0x461BCD PUSH1 0xE5 SHL DUP2 MSTORE PUSH1 0x4 ADD PUSH3 0x409 SWAP1 PUSH3 0x1663 JUMP JUMPDEST PUSH1 0x40 MLOAD PUSH4 0x23B872DD PUSH1 0xE0 SHL DUP2 MSTORE PUSH1 0x1 PUSH1 0x1 PUSH1 0xA0 SHL SUB DUP5 DUP2 AND PUSH1 0x4 DUP4 ADD MSTORE DUP4 DUP2 AND PUSH1 0x24 DUP4 ADD MSTORE PUSH1 0x44 DUP3 ADD DUP4 SWAP1 MSTORE DUP6 AND SWAP1 PUSH4 0x23B872DD SWAP1 PUSH1 0x64 ADD PUSH1 0x20 PUSH1 0x40 MLOAD DUP1 DUP4 SUB DUP2 PUSH1 0x0 DUP8 GAS CALL ISZERO DUP1 ISZERO PUSH3 0xDBD JUMPI RETURNDATASIZE PUSH1 0x0 DUP1 RETURNDATACOPY RETURNDATASIZE PUSH1 0x0 REVERT JUMPDEST POP POP POP POP PUSH1 0x40 MLOAD RETURNDATASIZE PUSH1 0x1F NOT PUSH1 0x1F DUP3 ADD AND DUP3 ADD DUP1 PUSH1 0x40 MSTORE POP DUP2 ADD SWAP1 PUSH3 0xDE3 SWAP2 SWAP1 PUSH3 0x16AA JUMP JUMPDEST POP POP POP POP POP JUMP JUMPDEST PUSH1 0x0 PUSH3 0x3C4 DUP3 SLOAD SWAP1 JUMP JUMPDEST PUSH1 0x1 PUSH1 0x1 PUSH1 0xA0 SHL SUB DUP2 AND PUSH1 0x0 SWAP1 DUP2 MSTORE PUSH1 0x1 DUP4 ADD PUSH1 0x20 MSTORE PUSH1 0x40 DUP2 KECCAK256 SLOAD ISZERO ISZERO PUSH3 0xCC2 JUMP JUMPDEST PUSH1 0x0 PUSH3 0xCC2 DUP4 PUSH1 0x1 PUSH1 0x1 PUSH1 0xA0 SHL SUB DUP5 AND PUSH3 0xF55 JUMP JUMPDEST PUSH1 0x0 DUP1 SLOAD PUSH3 0xE3F PUSH1 0x1 PUSH3 0xDEA JUMP JUMPDEST GT ISZERO PUSH3 0xE81 JUMPI PUSH1 0x40 MLOAD PUSH3 0x461BCD PUSH1 0xE5 SHL DUP2 MSTORE PUSH1 0x20 PUSH1 0x4 DUP3 ADD MSTORE PUSH1 0xF PUSH1 0x24 DUP3 ADD MSTORE PUSH15 0x1BDDDB995C9CC8195E18D959591959 PUSH1 0x8A SHL PUSH1 0x44 DUP3 ADD MSTORE PUSH1 0x64 ADD PUSH3 0x409 JUMP JUMPDEST PUSH3 0xE8E PUSH1 0x1 DUP4 PUSH3 0x1059 JUMP JUMPDEST PUSH1 0x40 MLOAD SWAP1 SWAP2 POP PUSH1 0x1 PUSH1 0x1 PUSH1 0xA0 SHL SUB DUP4 AND SWAP1 PUSH32 0x994A936646FE87FFE4F1E469D3D6AA417D6B855598397F323DE5B449F765F0C3 SWAP1 PUSH1 0x0 SWAP1 LOG2 SWAP2 SWAP1 POP JUMP JUMPDEST PUSH1 0x60 PUSH1 0x0 DUP1 DUP5 PUSH1 0x1 PUSH1 0x1 PUSH1 0xA0 SHL SUB AND DUP5 PUSH1 0x40 MLOAD PUSH3 0xEE9 SWAP2 SWAP1 PUSH3 0x180A JUMP JUMPDEST PUSH1 0x0 PUSH1 0x40 MLOAD DUP1 DUP4 SUB DUP2 DUP6 GAS DELEGATECALL SWAP2 POP POP RETURNDATASIZE DUP1 PUSH1 0x0 DUP2 EQ PUSH3 0xF26 JUMPI PUSH1 0x40 MLOAD SWAP2 POP PUSH1 0x1F NOT PUSH1 0x3F RETURNDATASIZE ADD AND DUP3 ADD PUSH1 0x40 MSTORE RETURNDATASIZE DUP3 MSTORE RETURNDATASIZE PUSH1 0x0 PUSH1 0x20 DUP5 ADD RETURNDATACOPY PUSH3 0xF2B JUMP JUMPDEST PUSH1 0x60 SWAP2 POP JUMPDEST POP SWAP2 POP SWAP2 POP PUSH3 0xF3D DUP6 DUP4 DUP4 PUSH3 0x1070 JUMP JUMPDEST SWAP6 SWAP5 POP POP POP POP POP JUMP JUMPDEST PUSH1 0x60 PUSH1 0x0 PUSH3 0xCC2 DUP4 PUSH3 0x10D4 JUMP JUMPDEST PUSH1 0x0 DUP2 DUP2 MSTORE PUSH1 0x1 DUP4 ADD PUSH1 0x20 MSTORE PUSH1 0x40 DUP2 KECCAK256 SLOAD DUP1 ISZERO PUSH3 0x104E JUMPI PUSH1 0x0 PUSH3 0xF7C PUSH1 0x1 DUP4 PUSH3 0x16FA JUMP JUMPDEST DUP6 SLOAD SWAP1 SWAP2 POP PUSH1 0x0 SWAP1 PUSH3 0xF92 SWAP1 PUSH1 0x1 SWAP1 PUSH3 0x16FA JUMP JUMPDEST SWAP1 POP DUP1 DUP3 EQ PUSH3 0xFFE JUMPI PUSH1 0x0 DUP7 PUSH1 0x0 ADD DUP3 DUP2 SLOAD DUP2 LT PUSH3 0xFB6 JUMPI PUSH3 0xFB6 PUSH3 0x1710 JUMP JUMPDEST SWAP1 PUSH1 0x0 MSTORE PUSH1 0x20 PUSH1 0x0 KECCAK256 ADD SLOAD SWAP1 POP DUP1 DUP8 PUSH1 0x0 ADD DUP5 DUP2 SLOAD DUP2 LT PUSH3 0xFDC JUMPI PUSH3 0xFDC PUSH3 0x1710 JUMP JUMPDEST PUSH1 0x0 SWAP2 DUP3 MSTORE PUSH1 0x20 DUP1 DUP4 KECCAK256 SWAP1 SWAP2 ADD SWAP3 SWAP1 SWAP3 SSTORE SWAP2 DUP3 MSTORE PUSH1 0x1 DUP9 ADD SWAP1 MSTORE PUSH1 0x40 SWAP1 KECCAK256 DUP4 SWAP1 SSTORE JUMPDEST DUP6 SLOAD DUP7 SWAP1 DUP1 PUSH3 0x1012 JUMPI PUSH3 0x1012 PUSH3 0x1828 JUMP JUMPDEST PUSH1 0x1 SWAP1 SUB DUP2 DUP2 SWAP1 PUSH1 0x0 MSTORE PUSH1 0x20 PUSH1 0x0 KECCAK256 ADD PUSH1 0x0 SWAP1 SSTORE SWAP1 SSTORE DUP6 PUSH1 0x1 ADD PUSH1 0x0 DUP7 DUP2 MSTORE PUSH1 0x20 ADD SWAP1 DUP2 MSTORE PUSH1 0x20 ADD PUSH1 0x0 KECCAK256 PUSH1 0x0 SWAP1 SSTORE PUSH1 0x1 SWAP4 POP POP POP POP PUSH3 0x3C4 JUMP JUMPDEST PUSH1 0x0 SWAP2 POP POP PUSH3 0x3C4 JUMP JUMPDEST PUSH1 0x0 PUSH3 0xCC2 DUP4 PUSH1 0x1 PUSH1 0x1 PUSH1 0xA0 SHL SUB DUP5 AND PUSH3 0x1132 JUMP JUMPDEST PUSH1 0x60 DUP3 PUSH3 0x1089 JUMPI PUSH3 0x1083 DUP3 PUSH3 0x1184 JUMP JUMPDEST PUSH3 0xCC2 JUMP JUMPDEST DUP2 MLOAD ISZERO DUP1 ISZERO PUSH3 0x10A1 JUMPI POP PUSH1 0x1 PUSH1 0x1 PUSH1 0xA0 SHL SUB DUP5 AND EXTCODESIZE ISZERO JUMPDEST ISZERO PUSH3 0x10CC JUMPI PUSH1 0x40 MLOAD PUSH4 0x9996B315 PUSH1 0xE0 SHL DUP2 MSTORE PUSH1 0x1 PUSH1 0x1 PUSH1 0xA0 SHL SUB DUP6 AND PUSH1 0x4 DUP3 ADD MSTORE PUSH1 0x24 ADD PUSH3 0x409 JUMP JUMPDEST POP DUP1 PUSH3 0xCC2 JUMP JUMPDEST PUSH1 0x60 DUP2 PUSH1 0x0 ADD DUP1 SLOAD DUP1 PUSH1 0x20 MUL PUSH1 0x20 ADD PUSH1 0x40 MLOAD SWAP1 DUP2 ADD PUSH1 0x40 MSTORE DUP1 SWAP3 SWAP2 SWAP1 DUP2 DUP2 MSTORE PUSH1 0x20 ADD DUP3 DUP1 SLOAD DUP1 ISZERO PUSH3 0x1126 JUMPI PUSH1 0x20 MUL DUP3 ADD SWAP2 SWAP1 PUSH1 0x0 MSTORE PUSH1 0x20 PUSH1 0x0 KECCAK256 SWAP1 JUMPDEST DUP2 SLOAD DUP2 MSTORE PUSH1 0x20 ADD SWAP1 PUSH1 0x1 ADD SWAP1 DUP1 DUP4 GT PUSH3 0x1111 JUMPI JUMPDEST POP POP POP POP POP SWAP1 POP SWAP2 SWAP1 POP JUMP JUMPDEST PUSH1 0x0 DUP2 DUP2 MSTORE PUSH1 0x1 DUP4 ADD PUSH1 0x20 MSTORE PUSH1 0x40 DUP2 KECCAK256 SLOAD PUSH3 0x117B JUMPI POP DUP2 SLOAD PUSH1 0x1 DUP2 DUP2 ADD DUP5 SSTORE PUSH1 0x0 DUP5 DUP2 MSTORE PUSH1 0x20 DUP1 DUP3 KECCAK256 SWAP1 SWAP4 ADD DUP5 SWAP1 SSTORE DUP5 SLOAD DUP5 DUP3 MSTORE DUP3 DUP7 ADD SWAP1 SWAP4 MSTORE PUSH1 0x40 SWAP1 KECCAK256 SWAP2 SWAP1 SWAP2 SSTORE PUSH3 0x3C4 JUMP JUMPDEST POP PUSH1 0x0 PUSH3 0x3C4 JUMP JUMPDEST DUP1 MLOAD ISZERO PUSH3 0x1195 JUMPI DUP1 MLOAD DUP1 DUP3 PUSH1 0x20 ADD REVERT JUMPDEST PUSH1 0x40 MLOAD PUSH4 0xA12F521 PUSH1 0xE1 SHL DUP2 MSTORE PUSH1 0x4 ADD PUSH1 0x40 MLOAD DUP1 SWAP2 SUB SWAP1 REVERT JUMPDEST POP JUMP JUMPDEST PUSH2 0x1592 DUP1 PUSH3 0x183F DUP4 CODECOPY ADD SWAP1 JUMP JUMPDEST PUSH1 0x0 PUSH1 0x20 DUP3 DUP5 SUB SLT ISZERO PUSH3 0x11D2 JUMPI PUSH1 0x0 DUP1 REVERT JUMPDEST DUP2 CALLDATALOAD PUSH1 0x1 PUSH1 0x1 PUSH1 0xE0 SHL SUB NOT DUP2 AND DUP2 EQ PUSH3 0xCC2 JUMPI PUSH1 0x0 DUP1 REVERT JUMPDEST DUP1 CALLDATALOAD PUSH1 0x1 PUSH1 0x1 PUSH1 0xA0 SHL SUB DUP2 AND DUP2 EQ PUSH3 0xA07 JUMPI PUSH1 0x0 DUP1 REVERT JUMPDEST PUSH1 0x0 DUP1 PUSH1 0x0 PUSH1 0x60 DUP5 DUP7 SUB SLT ISZERO PUSH3 0x1219 JUMPI PUSH1 0x0 DUP1 REVERT JUMPDEST PUSH3 0x1224 DUP5 PUSH3 0x11EB JUMP JUMPDEST SWAP3 POP PUSH3 0x1234 PUSH1 0x20 DUP6 ADD PUSH3 0x11EB JUMP JUMPDEST SWAP2 POP PUSH1 0x40 DUP5 ADD CALLDATALOAD SWAP1 POP SWAP3 POP SWAP3 POP SWAP3 JUMP JUMPDEST PUSH1 0x0 PUSH1 0x20 DUP3 DUP5 SUB SLT ISZERO PUSH3 0x1257 JUMPI PUSH1 0x0 DUP1 REVERT JUMPDEST PUSH3 0xCC2 DUP3 PUSH3 0x11EB JUMP JUMPDEST PUSH1 0x0 DUP1 PUSH1 0x0 DUP1 PUSH1 0x80 DUP6 DUP8 SUB SLT ISZERO PUSH3 0x1279 JUMPI PUSH1 0x0 DUP1 REVERT JUMPDEST PUSH3 0x1284 DUP6 PUSH3 0x11EB JUMP JUMPDEST SWAP4 POP PUSH3 0x1294 PUSH1 0x20 DUP7 ADD PUSH3 0x11EB JUMP JUMPDEST SWAP3 POP PUSH1 0x40 DUP6 ADD CALLDATALOAD SWAP2 POP PUSH3 0x12AB PUSH1 0x60 DUP7 ADD PUSH3 0x11EB JUMP JUMPDEST SWAP1 POP SWAP3 SWAP6 SWAP2 SWAP5 POP SWAP3 POP JUMP JUMPDEST PUSH1 0x0 DUP1 PUSH1 0x40 DUP4 DUP6 SUB SLT ISZERO PUSH3 0x12CA JUMPI PUSH1 0x0 DUP1 REVERT JUMPDEST PUSH3 0x12D5 DUP4 PUSH3 0x11EB JUMP JUMPDEST SWAP2 POP PUSH3 0x9C5 PUSH1 0x20 DUP5 ADD PUSH3 0x11EB JUMP JUMPDEST PUSH1 0x0 DUP1 PUSH1 0x40 DUP4 DUP6 SUB SLT ISZERO PUSH3 0x12F9 JUMPI PUSH1 0x0 DUP1 REVERT JUMPDEST PUSH3 0x1304 DUP4 PUSH3 0x11EB JUMP JUMPDEST SWAP5 PUSH1 0x20 SWAP4 SWAP1 SWAP4 ADD CALLDATALOAD SWAP4 POP POP POP JUMP JUMPDEST PUSH1 0x0 DUP1 PUSH1 0x20 DUP4 DUP6 SUB SLT ISZERO PUSH3 0x1326 JUMPI PUSH1 0x0 DUP1 REVERT JUMPDEST DUP3 CALLDATALOAD PUSH8 0xFFFFFFFFFFFFFFFF DUP1 DUP3 GT ISZERO PUSH3 0x133F JUMPI PUSH1 0x0 DUP1 REVERT JUMPDEST DUP2 DUP6 ADD SWAP2 POP DUP6 PUSH1 0x1F DUP4 ADD SLT PUSH3 0x1354 JUMPI PUSH1 0x0 DUP1 REVERT JUMPDEST DUP2 CALLDATALOAD DUP2 DUP2 GT ISZERO PUSH3 0x1364 JUMPI PUSH1 0x0 DUP1 REVERT JUMPDEST DUP7 PUSH1 0x20 DUP3 PUSH1 0x5 SHL DUP6 ADD ADD GT ISZERO PUSH3 0x137A JUMPI PUSH1 0x0 DUP1 REVERT JUMPDEST PUSH1 0x20 SWAP3 SWAP1 SWAP3 ADD SWAP7 SWAP2 SWAP6 POP SWAP1 SWAP4 POP POP POP POP JUMP JUMPDEST PUSH1 0x0 JUMPDEST DUP4 DUP2 LT ISZERO PUSH3 0x13A9 JUMPI DUP2 DUP2 ADD MLOAD DUP4 DUP3 ADD MSTORE PUSH1 0x20 ADD PUSH3 0x138F JUMP JUMPDEST POP POP PUSH1 0x0 SWAP2 ADD MSTORE JUMP JUMPDEST PUSH1 0x0 DUP2 MLOAD DUP1 DUP5 MSTORE PUSH3 0x13CC DUP2 PUSH1 0x20 DUP7 ADD PUSH1 0x20 DUP7 ADD PUSH3 0x138C JUMP JUMPDEST PUSH1 0x1F ADD PUSH1 0x1F NOT AND SWAP3 SWAP1 SWAP3 ADD PUSH1 0x20 ADD SWAP3 SWAP2 POP POP JUMP JUMPDEST PUSH1 0x0 PUSH1 0x20 DUP1 DUP4 ADD DUP2 DUP5 MSTORE DUP1 DUP6 MLOAD DUP1 DUP4 MSTORE PUSH1 0x40 DUP7 ADD SWAP2 POP PUSH1 0x40 DUP2 PUSH1 0x5 SHL DUP8 ADD ADD SWAP3 POP DUP4 DUP8 ADD PUSH1 0x0 JUMPDEST DUP3 DUP2 LT ISZERO PUSH3 0x1439 JUMPI PUSH1 0x3F NOT DUP9 DUP7 SUB ADD DUP5 MSTORE PUSH3 0x1426 DUP6 DUP4 MLOAD PUSH3 0x13B2 JUMP JUMPDEST SWAP5 POP SWAP3 DUP6 ADD SWAP3 SWAP1 DUP6 ADD SWAP1 PUSH1 0x1 ADD PUSH3 0x1407 JUMP JUMPDEST POP SWAP3 SWAP8 SWAP7 POP POP POP POP POP POP POP JUMP JUMPDEST DUP1 ISZERO ISZERO DUP2 EQ PUSH3 0x11AE JUMPI PUSH1 0x0 DUP1 REVERT JUMPDEST PUSH1 0x0 DUP1 PUSH1 0x40 DUP4 DUP6 SUB SLT ISZERO PUSH3 0x1469 JUMPI PUSH1 0x0 DUP1 REVERT JUMPDEST PUSH3 0x1474 DUP4 PUSH3 0x11EB JUMP JUMPDEST SWAP2 POP PUSH1 0x20 DUP4 ADD CALLDATALOAD PUSH3 0x1486 DUP2 PUSH3 0x1446 JUMP JUMPDEST DUP1 SWAP2 POP POP SWAP3 POP SWAP3 SWAP1 POP JUMP JUMPDEST PUSH4 0x4E487B71 PUSH1 0xE0 SHL PUSH1 0x0 MSTORE PUSH1 0x41 PUSH1 0x4 MSTORE PUSH1 0x24 PUSH1 0x0 REVERT JUMPDEST PUSH1 0x0 DUP3 PUSH1 0x1F DUP4 ADD SLT PUSH3 0x14B9 JUMPI PUSH1 0x0 DUP1 REVERT JUMPDEST DUP2 CALLDATALOAD PUSH8 0xFFFFFFFFFFFFFFFF DUP1 DUP3 GT ISZERO PUSH3 0x14D7 JUMPI PUSH3 0x14D7 PUSH3 0x1491 JUMP JUMPDEST PUSH1 0x40 MLOAD PUSH1 0x1F DUP4 ADD PUSH1 0x1F NOT SWAP1 DUP2 AND PUSH1 0x3F ADD AND DUP2 ADD SWAP1 DUP3 DUP3 GT DUP2 DUP4 LT OR ISZERO PUSH3 0x1502 JUMPI PUSH3 0x1502 PUSH3 0x1491 JUMP JUMPDEST DUP2 PUSH1 0x40 MSTORE DUP4 DUP2 MSTORE DUP7 PUSH1 0x20 DUP6 DUP9 ADD ADD GT ISZERO PUSH3 0x151C JUMPI PUSH1 0x0 DUP1 REVERT JUMPDEST DUP4 PUSH1 0x20 DUP8 ADD PUSH1 0x20 DUP4 ADD CALLDATACOPY PUSH1 0x0 PUSH1 0x20 DUP6 DUP4 ADD ADD MSTORE DUP1 SWAP5 POP POP POP POP POP SWAP3 SWAP2 POP POP JUMP JUMPDEST PUSH1 0x0 DUP1 PUSH1 0x0 PUSH1 0x60 DUP5 DUP7 SUB SLT ISZERO PUSH3 0x1552 JUMPI PUSH1 0x0 DUP1 REVERT JUMPDEST DUP4 CALLDATALOAD PUSH8 0xFFFFFFFFFFFFFFFF DUP1 DUP3 GT ISZERO PUSH3 0x156B JUMPI PUSH1 0x0 DUP1 REVERT JUMPDEST PUSH3 0x1579 DUP8 DUP4 DUP9 ADD PUSH3 0x14A7 JUMP JUMPDEST SWAP5 POP PUSH1 0x20 DUP7 ADD CALLDATALOAD SWAP2 POP DUP1 DUP3 GT ISZERO PUSH3 0x1590 JUMPI PUSH1 0x0 DUP1 REVERT JUMPDEST POP PUSH3 0x159F DUP7 DUP3 DUP8 ADD PUSH3 0x14A7 JUMP JUMPDEST SWAP3 POP POP PUSH1 0x40 DUP5 ADD CALLDATALOAD PUSH1 0xFF DUP2 AND DUP2 EQ PUSH3 0x15B7 JUMPI PUSH1 0x0 DUP1 REVERT JUMPDEST DUP1 SWAP2 POP POP SWAP3 POP SWAP3 POP SWAP3 JUMP JUMPDEST PUSH1 0x20 DUP1 DUP3 MSTORE DUP3 MLOAD DUP3 DUP3 ADD DUP2 SWAP1 MSTORE PUSH1 0x0 SWAP2 SWAP1 DUP5 DUP3 ADD SWAP1 PUSH1 0x40 DUP6 ADD SWAP1 DUP5 JUMPDEST DUP2 DUP2 LT ISZERO PUSH3 0x1605 JUMPI DUP4 MLOAD PUSH1 0x1 PUSH1 0x1 PUSH1 0xA0 SHL SUB AND DUP4 MSTORE SWAP3 DUP5 ADD SWAP3 SWAP2 DUP5 ADD SWAP2 PUSH1 0x1 ADD PUSH3 0x15DE JUMP JUMPDEST POP SWAP1 SWAP7 SWAP6 POP POP POP POP POP POP JUMP JUMPDEST PUSH1 0x0 DUP1 PUSH1 0x0 DUP1 PUSH1 0x80 DUP6 DUP8 SUB SLT ISZERO PUSH3 0x1628 JUMPI PUSH1 0x0 DUP1 REVERT JUMPDEST PUSH3 0x1633 DUP6 PUSH3 0x11EB JUMP JUMPDEST SWAP4 POP PUSH3 0x1643 PUSH1 0x20 DUP7 ADD PUSH3 0x11EB JUMP JUMPDEST SWAP3 POP PUSH3 0x1653 PUSH1 0x40 DUP7 ADD PUSH3 0x11EB JUMP JUMPDEST SWAP4 SWAP7 SWAP3 SWAP6 POP SWAP3 SWAP4 PUSH1 0x60 ADD CALLDATALOAD SWAP3 POP POP JUMP JUMPDEST PUSH1 0x20 DUP1 DUP3 MSTORE PUSH1 0x27 SWAP1 DUP3 ADD MSTORE PUSH32 0x4F6E6C79206F776E65722063616E20657865637574652074686973207472616E PUSH1 0x40 DUP3 ADD MSTORE PUSH7 0x39B0B1BA34B7B7 PUSH1 0xC9 SHL PUSH1 0x60 DUP3 ADD MSTORE PUSH1 0x80 ADD SWAP1 JUMP JUMPDEST PUSH1 0x0 PUSH1 0x20 DUP3 DUP5 SUB SLT ISZERO PUSH3 0x16BD JUMPI PUSH1 0x0 DUP1 REVERT JUMPDEST DUP2 MLOAD PUSH3 0xCC2 DUP2 PUSH3 0x1446 JUMP JUMPDEST PUSH1 0x0 PUSH1 0x20 DUP3 DUP5 SUB SLT ISZERO PUSH3 0x16DD JUMPI PUSH1 0x0 DUP1 REVERT JUMPDEST POP MLOAD SWAP2 SWAP1 POP JUMP JUMPDEST PUSH4 0x4E487B71 PUSH1 0xE0 SHL PUSH1 0x0 MSTORE PUSH1 0x11 PUSH1 0x4 MSTORE PUSH1 0x24 PUSH1 0x0 REVERT JUMPDEST DUP2 DUP2 SUB DUP2 DUP2 GT ISZERO PUSH3 0x3C4 JUMPI PUSH3 0x3C4 PUSH3 0x16E4 JUMP JUMPDEST PUSH4 0x4E487B71 PUSH1 0xE0 SHL PUSH1 0x0 MSTORE PUSH1 0x32 PUSH1 0x4 MSTORE PUSH1 0x24 PUSH1 0x0 REVERT JUMPDEST PUSH1 0x0 DUP1 DUP4 CALLDATALOAD PUSH1 0x1E NOT DUP5 CALLDATASIZE SUB ADD DUP2 SLT PUSH3 0x173E JUMPI PUSH1 0x0 DUP1 REVERT JUMPDEST DUP4 ADD DUP1 CALLDATALOAD SWAP2 POP PUSH8 0xFFFFFFFFFFFFFFFF DUP3 GT ISZERO PUSH3 0x175A JUMPI PUSH1 0x0 DUP1 REVERT JUMPDEST PUSH1 0x20 ADD SWAP2 POP CALLDATASIZE DUP2 SWAP1 SUB DUP3 SGT ISZERO PUSH3 0x1770 JUMPI PUSH1 0x0 DUP1 REVERT JUMPDEST SWAP3 POP SWAP3 SWAP1 POP JUMP JUMPDEST DUP3 DUP5 DUP3 CALLDATACOPY PUSH1 0x0 DUP4 DUP3 ADD PUSH1 0x0 DUP2 MSTORE DUP4 MLOAD PUSH3 0x1796 DUP2 DUP4 PUSH1 0x20 DUP9 ADD PUSH3 0x138C JUMP JUMPDEST ADD SWAP6 SWAP5 POP POP POP POP POP JUMP JUMPDEST PUSH1 0x0 PUSH1 0x1 DUP3 ADD PUSH3 0x17B5 JUMPI PUSH3 0x17B5 PUSH3 0x16E4 JUMP JUMPDEST POP PUSH1 0x1 ADD SWAP1 JUMP JUMPDEST PUSH1 0x80 DUP2 MSTORE PUSH1 0x0 PUSH3 0x17D1 PUSH1 0x80 DUP4 ADD DUP8 PUSH3 0x13B2 JUMP JUMPDEST DUP3 DUP2 SUB PUSH1 0x20 DUP5 ADD MSTORE PUSH3 0x17E5 DUP2 DUP8 PUSH3 0x13B2 JUMP JUMPDEST PUSH1 0x1 PUSH1 0x1 PUSH1 0xA0 SHL SUB SWAP6 SWAP1 SWAP6 AND PUSH1 0x40 DUP5 ADD MSTORE POP POP PUSH1 0xFF SWAP2 SWAP1 SWAP2 AND PUSH1 0x60 SWAP1 SWAP2 ADD MSTORE SWAP3 SWAP2 POP POP JUMP JUMPDEST PUSH1 0x0 DUP3 MLOAD PUSH3 0x181E DUP2 DUP5 PUSH1 0x20 DUP8 ADD PUSH3 0x138C JUMP JUMPDEST SWAP2 SWAP1 SWAP2 ADD SWAP3 SWAP2 POP POP JUMP JUMPDEST PUSH4 0x4E487B71 PUSH1 0xE0 SHL PUSH1 0x0 MSTORE PUSH1 0x31 PUSH1 0x4 MSTORE PUSH1 0x24 PUSH1 0x0 REVERT INVALID PUSH1 0x80 PUSH1 0x40 MSTORE PUSH1 0x32 PUSH1 0x0 SSTORE CALLVALUE DUP1 ISZERO PUSH3 0x16 JUMPI PUSH1 0x0 DUP1 REVERT JUMPDEST POP PUSH1 0x40 MLOAD PUSH3 0x1592 CODESIZE SUB DUP1 PUSH3 0x1592 DUP4 CODECOPY DUP2 ADD PUSH1 0x40 DUP2 SWAP1 MSTORE PUSH3 0x39 SWAP2 PUSH3 0x26F JUMP JUMPDEST DUP4 DUP4 PUSH1 0x6 PUSH3 0x49 DUP4 DUP3 PUSH3 0x3A4 JUMP JUMPDEST POP PUSH1 0x7 PUSH3 0x58 DUP3 DUP3 PUSH3 0x3A4 JUMP JUMPDEST POP POP POP PUSH3 0x6C DUP3 PUSH3 0x8B PUSH1 0x20 SHL PUSH1 0x20 SHR JUMP JUMPDEST POP PUSH1 0x8 DUP1 SLOAD PUSH1 0xFF NOT AND PUSH1 0xFF SWAP3 SWAP1 SWAP3 AND SWAP2 SWAP1 SWAP2 OR SWAP1 SSTORE POP PUSH3 0x470 SWAP2 POP POP JUMP JUMPDEST PUSH1 0x0 DUP1 SLOAD PUSH3 0x9B PUSH1 0x1 PUSH3 0x129 JUMP JUMPDEST GT ISZERO PUSH3 0xE0 JUMPI PUSH1 0x40 MLOAD PUSH3 0x461BCD PUSH1 0xE5 SHL DUP2 MSTORE PUSH1 0x20 PUSH1 0x4 DUP3 ADD MSTORE PUSH1 0xF PUSH1 0x24 DUP3 ADD MSTORE PUSH15 0x1BDDDB995C9CC8195E18D959591959 PUSH1 0x8A SHL PUSH1 0x44 DUP3 ADD MSTORE PUSH1 0x64 ADD PUSH1 0x40 MLOAD DUP1 SWAP2 SUB SWAP1 REVERT JUMPDEST PUSH3 0xED PUSH1 0x1 DUP4 PUSH3 0x13A JUMP JUMPDEST PUSH1 0x40 MLOAD SWAP1 SWAP2 POP PUSH1 0x1 PUSH1 0x1 PUSH1 0xA0 SHL SUB DUP4 AND SWAP1 PUSH32 0x994A936646FE87FFE4F1E469D3D6AA417D6B855598397F323DE5B449F765F0C3 SWAP1 PUSH1 0x0 SWAP1 LOG2 SWAP2 SWAP1 POP JUMP JUMPDEST PUSH1 0x0 PUSH3 0x134 DUP3 SLOAD SWAP1 JUMP JUMPDEST SWAP3 SWAP2 POP POP JUMP JUMPDEST PUSH1 0x0 PUSH3 0x151 DUP4 PUSH1 0x1 PUSH1 0x1 PUSH1 0xA0 SHL SUB DUP5 AND PUSH3 0x158 JUMP JUMPDEST SWAP4 SWAP3 POP POP POP JUMP JUMPDEST PUSH1 0x0 DUP2 DUP2 MSTORE PUSH1 0x1 DUP4 ADD PUSH1 0x20 MSTORE PUSH1 0x40 DUP2 KECCAK256 SLOAD PUSH3 0x1A1 JUMPI POP DUP2 SLOAD PUSH1 0x1 DUP2 DUP2 ADD DUP5 SSTORE PUSH1 0x0 DUP5 DUP2 MSTORE PUSH1 0x20 DUP1 DUP3 KECCAK256 SWAP1 SWAP4 ADD DUP5 SWAP1 SSTORE DUP5 SLOAD DUP5 DUP3 MSTORE DUP3 DUP7 ADD SWAP1 SWAP4 MSTORE PUSH1 0x40 SWAP1 KECCAK256 SWAP2 SWAP1 SWAP2 SSTORE PUSH3 0x134 JUMP JUMPDEST POP PUSH1 0x0 PUSH3 0x134 JUMP JUMPDEST PUSH4 0x4E487B71 PUSH1 0xE0 SHL PUSH1 0x0 MSTORE PUSH1 0x41 PUSH1 0x4 MSTORE PUSH1 0x24 PUSH1 0x0 REVERT JUMPDEST PUSH1 0x0 DUP3 PUSH1 0x1F DUP4 ADD SLT PUSH3 0x1D2 JUMPI PUSH1 0x0 DUP1 REVERT JUMPDEST DUP2 MLOAD PUSH1 0x1 PUSH1 0x1 PUSH1 0x40 SHL SUB DUP1 DUP3 GT ISZERO PUSH3 0x1EF JUMPI PUSH3 0x1EF PUSH3 0x1AA JUMP JUMPDEST PUSH1 0x40 MLOAD PUSH1 0x1F DUP4 ADD PUSH1 0x1F NOT SWAP1 DUP2 AND PUSH1 0x3F ADD AND DUP2 ADD SWAP1 DUP3 DUP3 GT DUP2 DUP4 LT OR ISZERO PUSH3 0x21A JUMPI PUSH3 0x21A PUSH3 0x1AA JUMP JUMPDEST DUP2 PUSH1 0x40 MSTORE DUP4 DUP2 MSTORE PUSH1 0x20 SWAP3 POP DUP7 DUP4 DUP6 DUP9 ADD ADD GT ISZERO PUSH3 0x237 JUMPI PUSH1 0x0 DUP1 REVERT JUMPDEST PUSH1 0x0 SWAP2 POP JUMPDEST DUP4 DUP3 LT ISZERO PUSH3 0x25B JUMPI DUP6 DUP3 ADD DUP4 ADD MLOAD DUP2 DUP4 ADD DUP5 ADD MSTORE SWAP1 DUP3 ADD SWAP1 PUSH3 0x23C JUMP JUMPDEST PUSH1 0x0 SWAP4 DUP2 ADD SWAP1 SWAP3 ADD SWAP3 SWAP1 SWAP3 MSTORE SWAP5 SWAP4 POP POP POP POP JUMP JUMPDEST PUSH1 0x0 DUP1 PUSH1 0x0 DUP1 PUSH1 0x80 DUP6 DUP8 SUB SLT ISZERO PUSH3 0x286 JUMPI PUSH1 0x0 DUP1 REVERT JUMPDEST DUP5 MLOAD PUSH1 0x1 PUSH1 0x1 PUSH1 0x40 SHL SUB DUP1 DUP3 GT ISZERO PUSH3 0x29E JUMPI PUSH1 0x0 DUP1 REVERT JUMPDEST PUSH3 0x2AC DUP9 DUP4 DUP10 ADD PUSH3 0x1C0 JUMP JUMPDEST SWAP6 POP PUSH1 0x20 DUP8 ADD MLOAD SWAP2 POP DUP1 DUP3 GT ISZERO PUSH3 0x2C3 JUMPI PUSH1 0x0 DUP1 REVERT JUMPDEST POP PUSH3 0x2D2 DUP8 DUP3 DUP9 ADD PUSH3 0x1C0 JUMP JUMPDEST PUSH1 0x40 DUP8 ADD MLOAD SWAP1 SWAP5 POP SWAP1 POP PUSH1 0x1 PUSH1 0x1 PUSH1 0xA0 SHL SUB DUP2 AND DUP2 EQ PUSH3 0x2F2 JUMPI PUSH1 0x0 DUP1 REVERT JUMPDEST PUSH1 0x60 DUP7 ADD MLOAD SWAP1 SWAP3 POP PUSH1 0xFF DUP2 AND DUP2 EQ PUSH3 0x30A JUMPI PUSH1 0x0 DUP1 REVERT JUMPDEST SWAP4 SWAP7 SWAP3 SWAP6 POP SWAP1 SWAP4 POP POP JUMP JUMPDEST PUSH1 0x1 DUP2 DUP2 SHR SWAP1 DUP3 AND DUP1 PUSH3 0x32A JUMPI PUSH1 0x7F DUP3 AND SWAP2 POP JUMPDEST PUSH1 0x20 DUP3 LT DUP2 SUB PUSH3 0x34B JUMPI PUSH4 0x4E487B71 PUSH1 0xE0 SHL PUSH1 0x0 MSTORE PUSH1 0x22 PUSH1 0x4 MSTORE PUSH1 0x24 PUSH1 0x0 REVERT JUMPDEST POP SWAP2 SWAP1 POP JUMP JUMPDEST PUSH1 0x1F DUP3 GT ISZERO PUSH3 0x39F JUMPI PUSH1 0x0 DUP2 DUP2 MSTORE PUSH1 0x20 DUP2 KECCAK256 PUSH1 0x1F DUP6 ADD PUSH1 0x5 SHR DUP2 ADD PUSH1 0x20 DUP7 LT ISZERO PUSH3 0x37A JUMPI POP DUP1 JUMPDEST PUSH1 0x1F DUP6 ADD PUSH1 0x5 SHR DUP3 ADD SWAP2 POP JUMPDEST DUP2 DUP2 LT ISZERO PUSH3 0x39B JUMPI DUP3 DUP2 SSTORE PUSH1 0x1 ADD PUSH3 0x386 JUMP JUMPDEST POP POP POP JUMPDEST POP POP POP JUMP JUMPDEST DUP2 MLOAD PUSH1 0x1 PUSH1 0x1 PUSH1 0x40 SHL SUB DUP2 GT ISZERO PUSH3 0x3C0 JUMPI PUSH3 0x3C0 PUSH3 0x1AA JUMP JUMPDEST PUSH3 0x3D8 DUP2 PUSH3 0x3D1 DUP5 SLOAD PUSH3 0x315 JUMP JUMPDEST DUP5 PUSH3 0x351 JUMP JUMPDEST PUSH1 0x20 DUP1 PUSH1 0x1F DUP4 GT PUSH1 0x1 DUP2 EQ PUSH3 0x410 JUMPI PUSH1 0x0 DUP5 ISZERO PUSH3 0x3F7 JUMPI POP DUP6 DUP4 ADD MLOAD JUMPDEST PUSH1 0x0 NOT PUSH1 0x3 DUP7 SWAP1 SHL SHR NOT AND PUSH1 0x1 DUP6 SWAP1 SHL OR DUP6 SSTORE PUSH3 0x39B JUMP JUMPDEST PUSH1 0x0 DUP6 DUP2 MSTORE PUSH1 0x20 DUP2 KECCAK256 PUSH1 0x1F NOT DUP7 AND SWAP2 JUMPDEST DUP3 DUP2 LT ISZERO PUSH3 0x441 JUMPI DUP9 DUP7 ADD MLOAD DUP3 SSTORE SWAP5 DUP5 ADD SWAP5 PUSH1 0x1 SWAP1 SWAP2 ADD SWAP1 DUP5 ADD PUSH3 0x420 JUMP JUMPDEST POP DUP6 DUP3 LT ISZERO PUSH3 0x460 JUMPI DUP8 DUP6 ADD MLOAD PUSH1 0x0 NOT PUSH1 0x3 DUP9 SWAP1 SHL PUSH1 0xF8 AND SHR NOT AND DUP2 SSTORE JUMPDEST POP POP POP POP POP PUSH1 0x1 SWAP1 DUP2 SHL ADD SWAP1 SSTORE POP JUMP JUMPDEST PUSH2 0x1112 DUP1 PUSH3 0x480 PUSH1 0x0 CODECOPY PUSH1 0x0 RETURN INVALID PUSH1 0x80 PUSH1 0x40 MSTORE CALLVALUE DUP1 ISZERO PUSH2 0x10 JUMPI PUSH1 0x0 DUP1 REVERT JUMPDEST POP PUSH1 0x4 CALLDATASIZE LT PUSH2 0x116 JUMPI PUSH1 0x0 CALLDATALOAD PUSH1 0xE0 SHR DUP1 PUSH4 0x42966C68 GT PUSH2 0xA2 JUMPI DUP1 PUSH4 0x95D89B41 GT PUSH2 0x71 JUMPI DUP1 PUSH4 0x95D89B41 EQ PUSH2 0x23F JUMPI DUP1 PUSH4 0xA9059CBB EQ PUSH2 0x247 JUMPI DUP1 PUSH4 0xAC9650D8 EQ PUSH2 0x25A JUMPI DUP1 PUSH4 0xDD62ED3E EQ PUSH2 0x27A JUMPI DUP1 PUSH4 0xED60C0FC EQ PUSH2 0x2B3 JUMPI PUSH1 0x0 DUP1 REVERT JUMPDEST DUP1 PUSH4 0x42966C68 EQ PUSH2 0x1DB JUMPI DUP1 PUSH4 0x7065CB48 EQ PUSH2 0x1F0 JUMPI DUP1 PUSH4 0x70A08231 EQ PUSH2 0x203 JUMPI DUP1 PUSH4 0x79CC6790 EQ PUSH2 0x22C JUMPI PUSH1 0x0 DUP1 REVERT JUMPDEST DUP1 PUSH4 0x18160DDD GT PUSH2 0xE9 JUMPI DUP1 PUSH4 0x18160DDD EQ PUSH2 0x185 JUMPI DUP1 PUSH4 0x23B872DD EQ PUSH2 0x18D JUMPI DUP1 PUSH4 0x2F54BF6E EQ PUSH2 0x1A0 JUMPI DUP1 PUSH4 0x313CE567 EQ PUSH2 0x1B3 JUMPI DUP1 PUSH4 0x40C10F19 EQ PUSH2 0x1C8 JUMPI PUSH1 0x0 DUP1 REVERT JUMPDEST DUP1 PUSH4 0x6FDDE03 EQ PUSH2 0x11B JUMPI DUP1 PUSH4 0x95EA7B3 EQ PUSH2 0x139 JUMPI DUP1 PUSH4 0xDB02622 EQ PUSH2 0x15C JUMPI DUP1 PUSH4 0x173825D9 EQ PUSH2 0x172 JUMPI JUMPDEST PUSH1 0x0 DUP1 REVERT JUMPDEST PUSH2 0x123 PUSH2 0x2C8 JUMP JUMPDEST PUSH1 0x40 MLOAD PUSH2 0x130 SWAP2 SWAP1 PUSH2 0xD1E JUMP JUMPDEST PUSH1 0x40 MLOAD DUP1 SWAP2 SUB SWAP1 RETURN JUMPDEST PUSH2 0x14C PUSH2 0x147 CALLDATASIZE PUSH1 0x4 PUSH2 0xD48 JUMP JUMPDEST PUSH2 0x35A JUMP JUMPDEST PUSH1 0x40 MLOAD SWAP1 ISZERO ISZERO DUP2 MSTORE PUSH1 0x20 ADD PUSH2 0x130 JUMP JUMPDEST PUSH2 0x164 PUSH2 0x374 JUMP JUMPDEST PUSH1 0x40 MLOAD SWAP1 DUP2 MSTORE PUSH1 0x20 ADD PUSH2 0x130 JUMP JUMPDEST PUSH2 0x14C PUSH2 0x180 CALLDATASIZE PUSH1 0x4 PUSH2 0xD72 JUMP JUMPDEST PUSH2 0x385 JUMP JUMPDEST PUSH1 0x5 SLOAD PUSH2 0x164 JUMP JUMPDEST PUSH2 0x14C PUSH2 0x19B CALLDATASIZE PUSH1 0x4 PUSH2 0xD8D JUMP JUMPDEST PUSH2 0x3FE JUMP JUMPDEST PUSH2 0x14C PUSH2 0x1AE CALLDATASIZE PUSH1 0x4 PUSH2 0xD72 JUMP JUMPDEST PUSH2 0x424 JUMP JUMPDEST PUSH1 0x8 SLOAD PUSH1 0x40 MLOAD PUSH1 0xFF SWAP1 SWAP2 AND DUP2 MSTORE PUSH1 0x20 ADD PUSH2 0x130 JUMP JUMPDEST PUSH2 0x164 PUSH2 0x1D6 CALLDATASIZE PUSH1 0x4 PUSH2 0xD48 JUMP JUMPDEST PUSH2 0x431 JUMP JUMPDEST PUSH2 0x1EE PUSH2 0x1E9 CALLDATASIZE PUSH1 0x4 PUSH2 0xDC9 JUMP JUMPDEST PUSH2 0x46A JUMP JUMPDEST STOP JUMPDEST PUSH2 0x14C PUSH2 0x1FE CALLDATASIZE PUSH1 0x4 PUSH2 0xD72 JUMP JUMPDEST PUSH2 0x477 JUMP JUMPDEST PUSH2 0x164 PUSH2 0x211 CALLDATASIZE PUSH1 0x4 PUSH2 0xD72 JUMP JUMPDEST PUSH1 0x1 PUSH1 0x1 PUSH1 0xA0 SHL SUB AND PUSH1 0x0 SWAP1 DUP2 MSTORE PUSH1 0x3 PUSH1 0x20 MSTORE PUSH1 0x40 SWAP1 KECCAK256 SLOAD SWAP1 JUMP JUMPDEST PUSH2 0x1EE PUSH2 0x23A CALLDATASIZE PUSH1 0x4 PUSH2 0xD48 JUMP JUMPDEST PUSH2 0x4AE JUMP JUMPDEST PUSH2 0x123 PUSH2 0x4C7 JUMP JUMPDEST PUSH2 0x14C PUSH2 0x255 CALLDATASIZE PUSH1 0x4 PUSH2 0xD48 JUMP JUMPDEST PUSH2 0x4D6 JUMP JUMPDEST PUSH2 0x26D PUSH2 0x268 CALLDATASIZE PUSH1 0x4 PUSH2 0xDE2 JUMP JUMPDEST PUSH2 0x4E4 JUMP JUMPDEST PUSH1 0x40 MLOAD PUSH2 0x130 SWAP2 SWAP1 PUSH2 0xE57 JUMP JUMPDEST PUSH2 0x164 PUSH2 0x288 CALLDATASIZE PUSH1 0x4 PUSH2 0xEB9 JUMP JUMPDEST PUSH1 0x1 PUSH1 0x1 PUSH1 0xA0 SHL SUB SWAP2 DUP3 AND PUSH1 0x0 SWAP1 DUP2 MSTORE PUSH1 0x4 PUSH1 0x20 SWAP1 DUP2 MSTORE PUSH1 0x40 DUP1 DUP4 KECCAK256 SWAP4 SWAP1 SWAP5 AND DUP3 MSTORE SWAP2 SWAP1 SWAP2 MSTORE KECCAK256 SLOAD SWAP1 JUMP JUMPDEST PUSH2 0x2BB PUSH2 0x5D7 JUMP JUMPDEST PUSH1 0x40 MLOAD PUSH2 0x130 SWAP2 SWAP1 PUSH2 0xEEC JUMP JUMPDEST PUSH1 0x60 PUSH1 0x6 DUP1 SLOAD PUSH2 0x2D7 SWAP1 PUSH2 0xF39 JUMP JUMPDEST DUP1 PUSH1 0x1F ADD PUSH1 0x20 DUP1 SWAP2 DIV MUL PUSH1 0x20 ADD PUSH1 0x40 MLOAD SWAP1 DUP2 ADD PUSH1 0x40 MSTORE DUP1 SWAP3 SWAP2 SWAP1 DUP2 DUP2 MSTORE PUSH1 0x20 ADD DUP3 DUP1 SLOAD PUSH2 0x303 SWAP1 PUSH2 0xF39 JUMP JUMPDEST DUP1 ISZERO PUSH2 0x350 JUMPI DUP1 PUSH1 0x1F LT PUSH2 0x325 JUMPI PUSH2 0x100 DUP1 DUP4 SLOAD DIV MUL DUP4 MSTORE SWAP2 PUSH1 0x20 ADD SWAP2 PUSH2 0x350 JUMP JUMPDEST DUP3 ADD SWAP2 SWAP1 PUSH1 0x0 MSTORE PUSH1 0x20 PUSH1 0x0 KECCAK256 SWAP1 JUMPDEST DUP2 SLOAD DUP2 MSTORE SWAP1 PUSH1 0x1 ADD SWAP1 PUSH1 0x20 ADD DUP1 DUP4 GT PUSH2 0x333 JUMPI DUP3 SWAP1 SUB PUSH1 0x1F AND DUP3 ADD SWAP2 JUMPDEST POP POP POP POP POP SWAP1 POP SWAP1 JUMP JUMPDEST PUSH1 0x0 CALLER PUSH2 0x368 DUP2 DUP6 DUP6 PUSH2 0x5E3 JUMP JUMPDEST PUSH1 0x1 SWAP2 POP POP JUMPDEST SWAP3 SWAP2 POP POP JUMP JUMPDEST PUSH1 0x0 PUSH2 0x380 PUSH1 0x1 PUSH2 0x5F5 JUMP JUMPDEST SWAP1 POP SWAP1 JUMP JUMPDEST PUSH1 0x0 PUSH2 0x392 PUSH1 0x1 CALLER PUSH2 0x5FF JUMP JUMPDEST PUSH2 0x3B7 JUMPI PUSH1 0x40 MLOAD PUSH3 0x461BCD PUSH1 0xE5 SHL DUP2 MSTORE PUSH1 0x4 ADD PUSH2 0x3AE SWAP1 PUSH2 0xF6D JUMP JUMPDEST PUSH1 0x40 MLOAD DUP1 SWAP2 SUB SWAP1 REVERT JUMPDEST PUSH2 0x3C2 PUSH1 0x1 DUP4 PUSH2 0x621 JUMP JUMPDEST PUSH1 0x40 MLOAD SWAP1 SWAP2 POP PUSH1 0x1 PUSH1 0x1 PUSH1 0xA0 SHL SUB DUP4 AND SWAP1 PUSH32 0x58619076ADF5BB0943D100EF88D52D7C3FD691B19D3A9071B555B651FBF418DA SWAP1 PUSH1 0x0 SWAP1 LOG2 SWAP2 SWAP1 POP JUMP JUMPDEST PUSH1 0x0 CALLER PUSH2 0x40C DUP6 DUP3 DUP6 PUSH2 0x636 JUMP JUMPDEST PUSH2 0x417 DUP6 DUP6 DUP6 PUSH2 0x6B4 JUMP JUMPDEST PUSH1 0x1 SWAP2 POP POP JUMPDEST SWAP4 SWAP3 POP POP POP JUMP JUMPDEST PUSH1 0x0 PUSH2 0x36E PUSH1 0x1 DUP4 PUSH2 0x5FF JUMP JUMPDEST PUSH1 0x0 PUSH2 0x43E PUSH1 0x1 CALLER PUSH2 0x5FF JUMP JUMPDEST PUSH2 0x45A JUMPI PUSH1 0x40 MLOAD PUSH3 0x461BCD PUSH1 0xE5 SHL DUP2 MSTORE PUSH1 0x4 ADD PUSH2 0x3AE SWAP1 PUSH2 0xF6D JUMP JUMPDEST PUSH2 0x464 DUP4 DUP4 PUSH2 0x713 JUMP JUMPDEST POP SWAP2 SWAP1 POP JUMP JUMPDEST PUSH2 0x474 CALLER DUP3 PUSH2 0x749 JUMP JUMPDEST POP JUMP JUMPDEST PUSH1 0x0 PUSH2 0x484 PUSH1 0x1 CALLER PUSH2 0x5FF JUMP JUMPDEST PUSH2 0x4A0 JUMPI PUSH1 0x40 MLOAD PUSH3 0x461BCD PUSH1 0xE5 SHL DUP2 MSTORE PUSH1 0x4 ADD PUSH2 0x3AE SWAP1 PUSH2 0xF6D JUMP JUMPDEST PUSH2 0x36E DUP3 PUSH2 0x77F JUMP JUMPDEST SWAP2 SWAP1 POP JUMP JUMPDEST PUSH2 0x4B9 DUP3 CALLER DUP4 PUSH2 0x636 JUMP JUMPDEST PUSH2 0x4C3 DUP3 DUP3 PUSH2 0x749 JUMP JUMPDEST POP POP JUMP JUMPDEST PUSH1 0x60 PUSH1 0x7 DUP1 SLOAD PUSH2 0x2D7 SWAP1 PUSH2 0xF39 JUMP JUMPDEST PUSH1 0x0 CALLER PUSH2 0x368 DUP2 DUP6 DUP6 PUSH2 0x6B4 JUMP JUMPDEST PUSH1 0x40 DUP1 MLOAD PUSH1 0x0 DUP2 MSTORE PUSH1 0x20 DUP2 ADD SWAP1 SWAP2 MSTORE PUSH1 0x60 SWAP1 DUP3 PUSH8 0xFFFFFFFFFFFFFFFF DUP2 GT ISZERO PUSH2 0x50F JUMPI PUSH2 0x50F PUSH2 0xFDD JUMP JUMPDEST PUSH1 0x40 MLOAD SWAP1 DUP1 DUP3 MSTORE DUP1 PUSH1 0x20 MUL PUSH1 0x20 ADD DUP3 ADD PUSH1 0x40 MSTORE DUP1 ISZERO PUSH2 0x542 JUMPI DUP2 PUSH1 0x20 ADD JUMPDEST PUSH1 0x60 DUP2 MSTORE PUSH1 0x20 ADD SWAP1 PUSH1 0x1 SWAP1 SUB SWAP1 DUP2 PUSH2 0x52D JUMPI SWAP1 POP JUMPDEST POP SWAP2 POP PUSH1 0x0 JUMPDEST DUP4 DUP2 LT ISZERO PUSH2 0x5CF JUMPI PUSH2 0x59F ADDRESS DUP7 DUP7 DUP5 DUP2 DUP2 LT PUSH2 0x566 JUMPI PUSH2 0x566 PUSH2 0xFF3 JUMP JUMPDEST SWAP1 POP PUSH1 0x20 MUL DUP2 ADD SWAP1 PUSH2 0x578 SWAP2 SWAP1 PUSH2 0x1009 JUMP JUMPDEST DUP6 PUSH1 0x40 MLOAD PUSH1 0x20 ADD PUSH2 0x58B SWAP4 SWAP3 SWAP2 SWAP1 PUSH2 0x1057 JUMP JUMPDEST PUSH1 0x40 MLOAD PUSH1 0x20 DUP2 DUP4 SUB SUB DUP2 MSTORE SWAP1 PUSH1 0x40 MSTORE PUSH2 0x814 JUMP JUMPDEST DUP4 DUP3 DUP2 MLOAD DUP2 LT PUSH2 0x5B1 JUMPI PUSH2 0x5B1 PUSH2 0xFF3 JUMP JUMPDEST PUSH1 0x20 MUL PUSH1 0x20 ADD ADD DUP2 SWAP1 MSTORE POP DUP1 DUP1 PUSH2 0x5C7 SWAP1 PUSH2 0x107E JUMP JUMPDEST SWAP2 POP POP PUSH2 0x548 JUMP JUMPDEST POP POP SWAP3 SWAP2 POP POP JUMP JUMPDEST PUSH1 0x60 PUSH2 0x380 PUSH1 0x1 PUSH2 0x88A JUMP JUMPDEST PUSH2 0x5F0 DUP4 DUP4 DUP4 PUSH1 0x1 PUSH2 0x897 JUMP JUMPDEST POP POP POP JUMP JUMPDEST PUSH1 0x0 PUSH2 0x36E DUP3 SLOAD SWAP1 JUMP JUMPDEST PUSH1 0x1 PUSH1 0x1 PUSH1 0xA0 SHL SUB DUP2 AND PUSH1 0x0 SWAP1 DUP2 MSTORE PUSH1 0x1 DUP4 ADD PUSH1 0x20 MSTORE PUSH1 0x40 DUP2 KECCAK256 SLOAD ISZERO ISZERO PUSH2 0x41D JUMP JUMPDEST PUSH1 0x0 PUSH2 0x41D DUP4 PUSH1 0x1 PUSH1 0x1 PUSH1 0xA0 SHL SUB DUP5 AND PUSH2 0x96C JUMP JUMPDEST PUSH1 0x1 PUSH1 0x1 PUSH1 0xA0 SHL SUB DUP4 DUP2 AND PUSH1 0x0 SWAP1 DUP2 MSTORE PUSH1 0x4 PUSH1 0x20 SWAP1 DUP2 MSTORE PUSH1 0x40 DUP1 DUP4 KECCAK256 SWAP4 DUP7 AND DUP4 MSTORE SWAP3 SWAP1 MSTORE KECCAK256 SLOAD PUSH1 0x0 NOT DUP2 EQ PUSH2 0x6AE JUMPI DUP2 DUP2 LT ISZERO PUSH2 0x69F JUMPI PUSH1 0x40 MLOAD PUSH4 0x7DC7A0D9 PUSH1 0xE1 SHL DUP2 MSTORE PUSH1 0x1 PUSH1 0x1 PUSH1 0xA0 SHL SUB DUP5 AND PUSH1 0x4 DUP3 ADD MSTORE PUSH1 0x24 DUP2 ADD DUP3 SWAP1 MSTORE PUSH1 0x44 DUP2 ADD DUP4 SWAP1 MSTORE PUSH1 0x64 ADD PUSH2 0x3AE JUMP JUMPDEST PUSH2 0x6AE DUP5 DUP5 DUP5 DUP5 SUB PUSH1 0x0 PUSH2 0x897 JUMP JUMPDEST POP POP POP POP JUMP JUMPDEST PUSH1 0x1 PUSH1 0x1 PUSH1 0xA0 SHL SUB DUP4 AND PUSH2 0x6DE JUMPI PUSH1 0x40 MLOAD PUSH4 0x4B637E8F PUSH1 0xE1 SHL DUP2 MSTORE PUSH1 0x0 PUSH1 0x4 DUP3 ADD MSTORE PUSH1 0x24 ADD PUSH2 0x3AE JUMP JUMPDEST PUSH1 0x1 PUSH1 0x1 PUSH1 0xA0 SHL SUB DUP3 AND PUSH2 0x708 JUMPI PUSH1 0x40 MLOAD PUSH4 0xEC442F05 PUSH1 0xE0 SHL DUP2 MSTORE PUSH1 0x0 PUSH1 0x4 DUP3 ADD MSTORE PUSH1 0x24 ADD PUSH2 0x3AE JUMP JUMPDEST PUSH2 0x5F0 DUP4 DUP4 DUP4 PUSH2 0xA5F JUMP JUMPDEST PUSH1 0x1 PUSH1 0x1 PUSH1 0xA0 SHL SUB DUP3 AND PUSH2 0x73D JUMPI PUSH1 0x40 MLOAD PUSH4 0xEC442F05 PUSH1 0xE0 SHL DUP2 MSTORE PUSH1 0x0 PUSH1 0x4 DUP3 ADD MSTORE PUSH1 0x24 ADD PUSH2 0x3AE JUMP JUMPDEST PUSH2 0x4C3 PUSH1 0x0 DUP4 DUP4 PUSH2 0xA5F JUMP JUMPDEST PUSH1 0x1 PUSH1 0x1 PUSH1 0xA0 SHL SUB DUP3 AND PUSH2 0x773 JUMPI PUSH1 0x40 MLOAD PUSH4 0x4B637E8F PUSH1 0xE1 SHL DUP2 MSTORE PUSH1 0x0 PUSH1 0x4 DUP3 ADD MSTORE PUSH1 0x24 ADD PUSH2 0x3AE JUMP JUMPDEST PUSH2 0x4C3 DUP3 PUSH1 0x0 DUP4 PUSH2 0xA5F JUMP JUMPDEST PUSH1 0x0 DUP1 SLOAD PUSH2 0x78D PUSH1 0x1 PUSH2 0x5F5 JUMP JUMPDEST GT ISZERO PUSH2 0x7CD JUMPI PUSH1 0x40 MLOAD PUSH3 0x461BCD PUSH1 0xE5 SHL DUP2 MSTORE PUSH1 0x20 PUSH1 0x4 DUP3 ADD MSTORE PUSH1 0xF PUSH1 0x24 DUP3 ADD MSTORE PUSH15 0x1BDDDB995C9CC8195E18D959591959 PUSH1 0x8A SHL PUSH1 0x44 DUP3 ADD MSTORE PUSH1 0x64 ADD PUSH2 0x3AE JUMP JUMPDEST PUSH2 0x7D8 PUSH1 0x1 DUP4 PUSH2 0xB89 JUMP JUMPDEST PUSH1 0x40 MLOAD SWAP1 SWAP2 POP PUSH1 0x1 PUSH1 0x1 PUSH1 0xA0 SHL SUB DUP4 AND SWAP1 PUSH32 0x994A936646FE87FFE4F1E469D3D6AA417D6B855598397F323DE5B449F765F0C3 SWAP1 PUSH1 0x0 SWAP1 LOG2 SWAP2 SWAP1 POP JUMP JUMPDEST PUSH1 0x60 PUSH1 0x0 DUP1 DUP5 PUSH1 0x1 PUSH1 0x1 PUSH1 0xA0 SHL SUB AND DUP5 PUSH1 0x40 MLOAD PUSH2 0x831 SWAP2 SWAP1 PUSH2 0x1097 JUMP JUMPDEST PUSH1 0x0 PUSH1 0x40 MLOAD DUP1 DUP4 SUB DUP2 DUP6 GAS DELEGATECALL SWAP2 POP POP RETURNDATASIZE DUP1 PUSH1 0x0 DUP2 EQ PUSH2 0x86C JUMPI PUSH1 0x40 MLOAD SWAP2 POP PUSH1 0x1F NOT PUSH1 0x3F RETURNDATASIZE ADD AND DUP3 ADD PUSH1 0x40 MSTORE RETURNDATASIZE DUP3 MSTORE RETURNDATASIZE PUSH1 0x0 PUSH1 0x20 DUP5 ADD RETURNDATACOPY PUSH2 0x871 JUMP JUMPDEST PUSH1 0x60 SWAP2 POP JUMPDEST POP SWAP2 POP SWAP2 POP PUSH2 0x881 DUP6 DUP4 DUP4 PUSH2 0xB9E JUMP JUMPDEST SWAP6 SWAP5 POP POP POP POP POP JUMP JUMPDEST PUSH1 0x60 PUSH1 0x0 PUSH2 0x41D DUP4 PUSH2 0xBFA JUMP JUMPDEST PUSH1 0x1 PUSH1 0x1 PUSH1 0xA0 SHL SUB DUP5 AND PUSH2 0x8C1 JUMPI PUSH1 0x40 MLOAD PUSH4 0xE602DF05 PUSH1 0xE0 SHL DUP2 MSTORE PUSH1 0x0 PUSH1 0x4 DUP3 ADD MSTORE PUSH1 0x24 ADD PUSH2 0x3AE JUMP JUMPDEST PUSH1 0x1 PUSH1 0x1 PUSH1 0xA0 SHL SUB DUP4 AND PUSH2 0x8EB JUMPI PUSH1 0x40 MLOAD PUSH4 0x4A1406B1 PUSH1 0xE1 SHL DUP2 MSTORE PUSH1 0x0 PUSH1 0x4 DUP3 ADD MSTORE PUSH1 0x24 ADD PUSH2 0x3AE JUMP JUMPDEST PUSH1 0x1 PUSH1 0x1 PUSH1 0xA0 SHL SUB DUP1 DUP6 AND PUSH1 0x0 SWAP1 DUP2 MSTORE PUSH1 0x4 PUSH1 0x20 SWAP1 DUP2 MSTORE PUSH1 0x40 DUP1 DUP4 KECCAK256 SWAP4 DUP8 AND DUP4 MSTORE SWAP3 SWAP1 MSTORE KECCAK256 DUP3 SWAP1 SSTORE DUP1 ISZERO PUSH2 0x6AE JUMPI DUP3 PUSH1 0x1 PUSH1 0x1 PUSH1 0xA0 SHL SUB AND DUP5 PUSH1 0x1 PUSH1 0x1 PUSH1 0xA0 SHL SUB AND PUSH32 0x8C5BE1E5EBEC7D5BD14F71427D1E84F3DD0314C0F7B2291E5B200AC8C7C3B925 DUP5 PUSH1 0x40 MLOAD PUSH2 0x95E SWAP2 DUP2 MSTORE PUSH1 0x20 ADD SWAP1 JUMP JUMPDEST PUSH1 0x40 MLOAD DUP1 SWAP2 SUB SWAP1 LOG3 POP POP POP POP JUMP JUMPDEST PUSH1 0x0 DUP2 DUP2 MSTORE PUSH1 0x1 DUP4 ADD PUSH1 0x20 MSTORE PUSH1 0x40 DUP2 KECCAK256 SLOAD DUP1 ISZERO PUSH2 0xA55 JUMPI PUSH1 0x0 PUSH2 0x990 PUSH1 0x1 DUP4 PUSH2 0xFCA JUMP JUMPDEST DUP6 SLOAD SWAP1 SWAP2 POP PUSH1 0x0 SWAP1 PUSH2 0x9A4 SWAP1 PUSH1 0x1 SWAP1 PUSH2 0xFCA JUMP JUMPDEST SWAP1 POP DUP1 DUP3 EQ PUSH2 0xA09 JUMPI PUSH1 0x0 DUP7 PUSH1 0x0 ADD DUP3 DUP2 SLOAD DUP2 LT PUSH2 0x9C4 JUMPI PUSH2 0x9C4 PUSH2 0xFF3 JUMP JUMPDEST SWAP1 PUSH1 0x0 MSTORE PUSH1 0x20 PUSH1 0x0 KECCAK256 ADD SLOAD SWAP1 POP DUP1 DUP8 PUSH1 0x0 ADD DUP5 DUP2 SLOAD DUP2 LT PUSH2 0x9E7 JUMPI PUSH2 0x9E7 PUSH2 0xFF3 JUMP JUMPDEST PUSH1 0x0 SWAP2 DUP3 MSTORE PUSH1 0x20 DUP1 DUP4 KECCAK256 SWAP1 SWAP2 ADD SWAP3 SWAP1 SWAP3 SSTORE SWAP2 DUP3 MSTORE PUSH1 0x1 DUP9 ADD SWAP1 MSTORE PUSH1 0x40 SWAP1 KECCAK256 DUP4 SWAP1 SSTORE JUMPDEST DUP6 SLOAD DUP7 SWAP1 DUP1 PUSH2 0xA1A JUMPI PUSH2 0xA1A PUSH2 0x10B3 JUMP JUMPDEST PUSH1 0x1 SWAP1 SUB DUP2 DUP2 SWAP1 PUSH1 0x0 MSTORE PUSH1 0x20 PUSH1 0x0 KECCAK256 ADD PUSH1 0x0 SWAP1 SSTORE SWAP1 SSTORE DUP6 PUSH1 0x1 ADD PUSH1 0x0 DUP7 DUP2 MSTORE PUSH1 0x20 ADD SWAP1 DUP2 MSTORE PUSH1 0x20 ADD PUSH1 0x0 KECCAK256 PUSH1 0x0 SWAP1 SSTORE PUSH1 0x1 SWAP4 POP POP POP POP PUSH2 0x36E JUMP JUMPDEST PUSH1 0x0 SWAP2 POP POP PUSH2 0x36E JUMP JUMPDEST PUSH1 0x1 PUSH1 0x1 PUSH1 0xA0 SHL SUB DUP4 AND PUSH2 0xA8A JUMPI DUP1 PUSH1 0x5 PUSH1 0x0 DUP3 DUP3 SLOAD PUSH2 0xA7F SWAP2 SWAP1 PUSH2 0x10C9 JUMP JUMPDEST SWAP1 SWAP2 SSTORE POP PUSH2 0xAFC SWAP1 POP JUMP JUMPDEST PUSH1 0x1 PUSH1 0x1 PUSH1 0xA0 SHL SUB DUP4 AND PUSH1 0x0 SWAP1 DUP2 MSTORE PUSH1 0x3 PUSH1 0x20 MSTORE PUSH1 0x40 SWAP1 KECCAK256 SLOAD DUP2 DUP2 LT ISZERO PUSH2 0xADD JUMPI PUSH1 0x40 MLOAD PUSH4 0x391434E3 PUSH1 0xE2 SHL DUP2 MSTORE PUSH1 0x1 PUSH1 0x1 PUSH1 0xA0 SHL SUB DUP6 AND PUSH1 0x4 DUP3 ADD MSTORE PUSH1 0x24 DUP2 ADD DUP3 SWAP1 MSTORE PUSH1 0x44 DUP2 ADD DUP4 SWAP1 MSTORE PUSH1 0x64 ADD PUSH2 0x3AE JUMP JUMPDEST PUSH1 0x1 PUSH1 0x1 PUSH1 0xA0 SHL SUB DUP5 AND PUSH1 0x0 SWAP1 DUP2 MSTORE PUSH1 0x3 PUSH1 0x20 MSTORE PUSH1 0x40 SWAP1 KECCAK256 SWAP1 DUP3 SWAP1 SUB SWAP1 SSTORE JUMPDEST PUSH1 0x1 PUSH1 0x1 PUSH1 0xA0 SHL SUB DUP3 AND PUSH2 0xB18 JUMPI PUSH1 0x5 DUP1 SLOAD DUP3 SWAP1 SUB SWAP1 SSTORE PUSH2 0xB37 JUMP JUMPDEST PUSH1 0x1 PUSH1 0x1 PUSH1 0xA0 SHL SUB DUP3 AND PUSH1 0x0 SWAP1 DUP2 MSTORE PUSH1 0x3 PUSH1 0x20 MSTORE PUSH1 0x40 SWAP1 KECCAK256 DUP1 SLOAD DUP3 ADD SWAP1 SSTORE JUMPDEST DUP2 PUSH1 0x1 PUSH1 0x1 PUSH1 0xA0 SHL SUB AND DUP4 PUSH1 0x1 PUSH1 0x1 PUSH1 0xA0 SHL SUB AND PUSH32 0xDDF252AD1BE2C89B69C2B068FC378DAA952BA7F163C4A11628F55A4DF523B3EF DUP4 PUSH1 0x40 MLOAD PUSH2 0xB7C SWAP2 DUP2 MSTORE PUSH1 0x20 ADD SWAP1 JUMP JUMPDEST PUSH1 0x40 MLOAD DUP1 SWAP2 SUB SWAP1 LOG3 POP POP POP JUMP JUMPDEST PUSH1 0x0 PUSH2 0x41D DUP4 PUSH1 0x1 PUSH1 0x1 PUSH1 0xA0 SHL SUB DUP5 AND PUSH2 0xC56 JUMP JUMPDEST PUSH1 0x60 DUP3 PUSH2 0xBB3 JUMPI PUSH2 0xBAE DUP3 PUSH2 0xCA5 JUMP JUMPDEST PUSH2 0x41D JUMP JUMPDEST DUP2 MLOAD ISZERO DUP1 ISZERO PUSH2 0xBCA JUMPI POP PUSH1 0x1 PUSH1 0x1 PUSH1 0xA0 SHL SUB DUP5 AND EXTCODESIZE ISZERO JUMPDEST ISZERO PUSH2 0xBF3 JUMPI PUSH1 0x40 MLOAD PUSH4 0x9996B315 PUSH1 0xE0 SHL DUP2 MSTORE PUSH1 0x1 PUSH1 0x1 PUSH1 0xA0 SHL SUB DUP6 AND PUSH1 0x4 DUP3 ADD MSTORE PUSH1 0x24 ADD PUSH2 0x3AE JUMP JUMPDEST POP DUP1 PUSH2 0x41D JUMP JUMPDEST PUSH1 0x60 DUP2 PUSH1 0x0 ADD DUP1 SLOAD DUP1 PUSH1 0x20 MUL PUSH1 0x20 ADD PUSH1 0x40 MLOAD SWAP1 DUP2 ADD PUSH1 0x40 MSTORE DUP1 SWAP3 SWAP2 SWAP1 DUP2 DUP2 MSTORE PUSH1 0x20 ADD DUP3 DUP1 SLOAD DUP1 ISZERO PUSH2 0xC4A JUMPI PUSH1 0x20 MUL DUP3 ADD SWAP2 SWAP1 PUSH1 0x0 MSTORE PUSH1 0x20 PUSH1 0x0 KECCAK256 SWAP1 JUMPDEST DUP2 SLOAD DUP2 MSTORE PUSH1 0x20 ADD SWAP1 PUSH1 0x1 ADD SWAP1 DUP1 DUP4 GT PUSH2 0xC36 JUMPI JUMPDEST POP POP POP POP POP SWAP1 POP SWAP2 SWAP1 POP JUMP JUMPDEST PUSH1 0x0 DUP2 DUP2 MSTORE PUSH1 0x1 DUP4 ADD PUSH1 0x20 MSTORE PUSH1 0x40 DUP2 KECCAK256 SLOAD PUSH2 0xC9D JUMPI POP DUP2 SLOAD PUSH1 0x1 DUP2 DUP2 ADD DUP5 SSTORE PUSH1 0x0 DUP5 DUP2 MSTORE PUSH1 0x20 DUP1 DUP3 KECCAK256 SWAP1 SWAP4 ADD DUP5 SWAP1 SSTORE DUP5 SLOAD DUP5 DUP3 MSTORE DUP3 DUP7 ADD SWAP1 SWAP4 MSTORE PUSH1 0x40 SWAP1 KECCAK256 SWAP2 SWAP1 SWAP2 SSTORE PUSH2 0x36E JUMP JUMPDEST POP PUSH1 0x0 PUSH2 0x36E JUMP JUMPDEST DUP1 MLOAD ISZERO PUSH2 0xCB5 JUMPI DUP1 MLOAD DUP1 DUP3 PUSH1 0x20 ADD REVERT JUMPDEST PUSH1 0x40 MLOAD PUSH4 0xA12F521 PUSH1 0xE1 SHL DUP2 MSTORE PUSH1 0x4 ADD PUSH1 0x40 MLOAD DUP1 SWAP2 SUB SWAP1 REVERT JUMPDEST PUSH1 0x0 JUMPDEST DUP4 DUP2 LT ISZERO PUSH2 0xCE9 JUMPI DUP2 DUP2 ADD MLOAD DUP4 DUP3 ADD MSTORE PUSH1 0x20 ADD PUSH2 0xCD1 JUMP JUMPDEST POP POP PUSH1 0x0 SWAP2 ADD MSTORE JUMP JUMPDEST PUSH1 0x0 DUP2 MLOAD DUP1 DUP5 MSTORE PUSH2 0xD0A DUP2 PUSH1 0x20 DUP7 ADD PUSH1 0x20 DUP7 ADD PUSH2 0xCCE JUMP JUMPDEST PUSH1 0x1F ADD PUSH1 0x1F NOT AND SWAP3 SWAP1 SWAP3 ADD PUSH1 0x20 ADD SWAP3 SWAP2 POP POP JUMP JUMPDEST PUSH1 0x20 DUP2 MSTORE PUSH1 0x0 PUSH2 0x41D PUSH1 0x20 DUP4 ADD DUP5 PUSH2 0xCF2 JUMP JUMPDEST DUP1 CALLDATALOAD PUSH1 0x1 PUSH1 0x1 PUSH1 0xA0 SHL SUB DUP2 AND DUP2 EQ PUSH2 0x4A9 JUMPI PUSH1 0x0 DUP1 REVERT JUMPDEST PUSH1 0x0 DUP1 PUSH1 0x40 DUP4 DUP6 SUB SLT ISZERO PUSH2 0xD5B JUMPI PUSH1 0x0 DUP1 REVERT JUMPDEST PUSH2 0xD64 DUP4 PUSH2 0xD31 JUMP JUMPDEST SWAP5 PUSH1 0x20 SWAP4 SWAP1 SWAP4 ADD CALLDATALOAD SWAP4 POP POP POP JUMP JUMPDEST PUSH1 0x0 PUSH1 0x20 DUP3 DUP5 SUB SLT ISZERO PUSH2 0xD84 JUMPI PUSH1 0x0 DUP1 REVERT JUMPDEST PUSH2 0x41D DUP3 PUSH2 0xD31 JUMP JUMPDEST PUSH1 0x0 DUP1 PUSH1 0x0 PUSH1 0x60 DUP5 DUP7 SUB SLT ISZERO PUSH2 0xDA2 JUMPI PUSH1 0x0 DUP1 REVERT JUMPDEST PUSH2 0xDAB DUP5 PUSH2 0xD31 JUMP JUMPDEST SWAP3 POP PUSH2 0xDB9 PUSH1 0x20 DUP6 ADD PUSH2 0xD31 JUMP JUMPDEST SWAP2 POP PUSH1 0x40 DUP5 ADD CALLDATALOAD SWAP1 POP SWAP3 POP SWAP3 POP SWAP3 JUMP JUMPDEST PUSH1 0x0 PUSH1 0x20 DUP3 DUP5 SUB SLT ISZERO PUSH2 0xDDB JUMPI PUSH1 0x0 DUP1 REVERT JUMPDEST POP CALLDATALOAD SWAP2 SWAP1 POP JUMP JUMPDEST PUSH1 0x0 DUP1 PUSH1 0x20 DUP4 DUP6 SUB SLT ISZERO PUSH2 0xDF5 JUMPI PUSH1 0x0 DUP1 REVERT JUMPDEST DUP3 CALLDATALOAD PUSH8 0xFFFFFFFFFFFFFFFF DUP1 DUP3 GT ISZERO PUSH2 0xE0D JUMPI PUSH1 0x0 DUP1 REVERT JUMPDEST DUP2 DUP6 ADD SWAP2 POP DUP6 PUSH1 0x1F DUP4 ADD SLT PUSH2 0xE21 JUMPI PUSH1 0x0 DUP1 REVERT JUMPDEST DUP2 CALLDATALOAD DUP2 DUP2 GT ISZERO PUSH2 0xE30 JUMPI PUSH1 0x0 DUP1 REVERT JUMPDEST DUP7 PUSH1 0x20 DUP3 PUSH1 0x5 SHL DUP6 ADD ADD GT ISZERO PUSH2 0xE45 JUMPI PUSH1 0x0 DUP1 REVERT JUMPDEST PUSH1 0x20 SWAP3 SWAP1 SWAP3 ADD SWAP7 SWAP2 SWAP6 POP SWAP1 SWAP4 POP POP POP POP JUMP JUMPDEST PUSH1 0x0 PUSH1 0x20 DUP1 DUP4 ADD DUP2 DUP5 MSTORE DUP1 DUP6 MLOAD DUP1 DUP4 MSTORE PUSH1 0x40 DUP7 ADD SWAP2 POP PUSH1 0x40 DUP2 PUSH1 0x5 SHL DUP8 ADD ADD SWAP3 POP DUP4 DUP8 ADD PUSH1 0x0 JUMPDEST DUP3 DUP2 LT ISZERO PUSH2 0xEAC JUMPI PUSH1 0x3F NOT DUP9 DUP7 SUB ADD DUP5 MSTORE PUSH2 0xE9A DUP6 DUP4 MLOAD PUSH2 0xCF2 JUMP JUMPDEST SWAP5 POP SWAP3 DUP6 ADD SWAP3 SWAP1 DUP6 ADD SWAP1 PUSH1 0x1 ADD PUSH2 0xE7E JUMP JUMPDEST POP SWAP3 SWAP8 SWAP7 POP POP POP POP POP POP POP JUMP JUMPDEST PUSH1 0x0 DUP1 PUSH1 0x40 DUP4 DUP6 SUB SLT ISZERO PUSH2 0xECC JUMPI PUSH1 0x0 DUP1 REVERT JUMPDEST PUSH2 0xED5 DUP4 PUSH2 0xD31 JUMP JUMPDEST SWAP2 POP PUSH2 0xEE3 PUSH1 0x20 DUP5 ADD PUSH2 0xD31 JUMP JUMPDEST SWAP1 POP SWAP3 POP SWAP3 SWAP1 POP JUMP JUMPDEST PUSH1 0x20 DUP1 DUP3 MSTORE DUP3 MLOAD DUP3 DUP3 ADD DUP2 SWAP1 MSTORE PUSH1 0x0 SWAP2 SWAP1 DUP5 DUP3 ADD SWAP1 PUSH1 0x40 DUP6 ADD SWAP1 DUP5 JUMPDEST DUP2 DUP2 LT ISZERO PUSH2 0xF2D JUMPI DUP4 MLOAD PUSH1 0x1 PUSH1 0x1 PUSH1 0xA0 SHL SUB AND DUP4 MSTORE SWAP3 DUP5 ADD SWAP3 SWAP2 DUP5 ADD SWAP2 PUSH1 0x1 ADD PUSH2 0xF08 JUMP JUMPDEST POP SWAP1 SWAP7 SWAP6 POP POP POP POP POP POP JUMP JUMPDEST PUSH1 0x1 DUP2 DUP2 SHR SWAP1 DUP3 AND DUP1 PUSH2 0xF4D JUMPI PUSH1 0x7F DUP3 AND SWAP2 POP JUMPDEST PUSH1 0x20 DUP3 LT DUP2 SUB PUSH2 0x464 JUMPI PUSH4 0x4E487B71 PUSH1 0xE0 SHL PUSH1 0x0 MSTORE PUSH1 0x22 PUSH1 0x4 MSTORE PUSH1 0x24 PUSH1 0x0 REVERT JUMPDEST PUSH1 0x20 DUP1 DUP3 MSTORE PUSH1 0x27 SWAP1 DUP3 ADD MSTORE PUSH32 0x4F6E6C79206F776E65722063616E20657865637574652074686973207472616E PUSH1 0x40 DUP3 ADD MSTORE PUSH7 0x39B0B1BA34B7B7 PUSH1 0xC9 SHL PUSH1 0x60 DUP3 ADD MSTORE PUSH1 0x80 ADD SWAP1 JUMP JUMPDEST PUSH4 0x4E487B71 PUSH1 0xE0 SHL PUSH1 0x0 MSTORE PUSH1 0x11 PUSH1 0x4 MSTORE PUSH1 0x24 PUSH1 0x0 REVERT JUMPDEST DUP2 DUP2 SUB DUP2 DUP2 GT ISZERO PUSH2 0x36E JUMPI PUSH2 0x36E PUSH2 0xFB4 JUMP JUMPDEST PUSH4 0x4E487B71 PUSH1 0xE0 SHL PUSH1 0x0 MSTORE PUSH1 0x41 PUSH1 0x4 MSTORE PUSH1 0x24 PUSH1 0x0 REVERT JUMPDEST PUSH4 0x4E487B71 PUSH1 0xE0 SHL PUSH1 0x0 MSTORE PUSH1 0x32 PUSH1 0x4 MSTORE PUSH1 0x24 PUSH1 0x0 REVERT JUMPDEST PUSH1 0x0 DUP1 DUP4 CALLDATALOAD PUSH1 0x1E NOT DUP5 CALLDATASIZE SUB ADD DUP2 SLT PUSH2 0x1020 JUMPI PUSH1 0x0 DUP1 REVERT JUMPDEST DUP4 ADD DUP1 CALLDATALOAD SWAP2 POP PUSH8 0xFFFFFFFFFFFFFFFF DUP3 GT ISZERO PUSH2 0x103B JUMPI PUSH1 0x0 DUP1 REVERT JUMPDEST PUSH1 0x20 ADD SWAP2 POP CALLDATASIZE DUP2 SWAP1 SUB DUP3 SGT ISZERO PUSH2 0x1050 JUMPI PUSH1 0x0 DUP1 REVERT JUMPDEST SWAP3 POP SWAP3 SWAP1 POP JUMP JUMPDEST DUP3 DUP5 DUP3 CALLDATACOPY PUSH1 0x0 DUP4 DUP3 ADD PUSH1 0x0 DUP2 MSTORE DUP4 MLOAD PUSH2 0x1074 DUP2 DUP4 PUSH1 0x20 DUP9 ADD PUSH2 0xCCE JUMP JUMPDEST ADD SWAP6 SWAP5 POP POP POP POP POP JUMP JUMPDEST PUSH1 0x0 PUSH1 0x1 DUP3 ADD PUSH2 0x1090 JUMPI PUSH2 0x1090 PUSH2 0xFB4 JUMP JUMPDEST POP PUSH1 0x1 ADD SWAP1 JUMP JUMPDEST PUSH1 0x0 DUP3 MLOAD PUSH2 0x10A9 DUP2 DUP5 PUSH1 0x20 DUP8 ADD PUSH2 0xCCE JUMP JUMPDEST SWAP2 SWAP1 SWAP2 ADD SWAP3 SWAP2 POP POP JUMP JUMPDEST PUSH4 0x4E487B71 PUSH1 0xE0 SHL PUSH1 0x0 MSTORE PUSH1 0x31 PUSH1 0x4 MSTORE PUSH1 0x24 PUSH1 0x0 REVERT JUMPDEST DUP1 DUP3 ADD DUP1 DUP3 GT ISZERO PUSH2 0x36E JUMPI PUSH2 0x36E PUSH2 0xFB4 JUMP INVALID LOG2 PUSH5 0x6970667358 0x22 SLT KECCAK256 0xC1 ADDRESS 0x1E SLT DUP1 0xE1 0xAB ISZERO 0x2E 0xE1 0xBF JUMP PUSH6 0xCBEA6F361900 0x23 SAR 0xF7 JUMP 0xD 0xB6 0xCF SWAP8 0x29 PUSH22 0x7F8A7664736F6C63430008140033A264697066735822 SLT KECCAK256 DUP12 SIGNEXTEND EQ 0xE2 PUSH32 0x524120D4236C57EC13C514FC677256F7A989DAB0477D7166EAC41D64736F6C63 NUMBER STOP ADDMOD EQ STOP CALLER "
        },
        "methodIdentifiers": {
          "IID_RAHAT_DONOR()": "9a7b612a",
          "_registeredProject(address)": "a80f5612",
          "addOwner(address)": "7065cb48",
          "addTokenOwner(address,address)": "2cb5568e",
          "approveToken(address,address,uint256)": "da3e3397",
          "claimToken(address,address,uint256)": "125bfb66",
          "createToken(string,string,uint8)": "e8a0aed3",
          "getAllowanceAndBalance(address,address)": "4937b174",
          "isOwner(address)": "2f54bf6e",
          "listOwners()": "ed60c0fc",
          "mintToken(address,uint256)": "79c65068",
          "mintTokenAndApprove(address,address,uint256,address)": "2a92967a",
          "multicall(bytes[])": "ac9650d8",
          "ownerCount()": "0db02622",
          "registerProject(address,bool)": "d293cf25",
          "removeOwner(address)": "173825d9",
          "supportsInterface(bytes4)": "01ffc9a7",
          "transferFromToken(address,address,address,uint256)": "fb3c0d70",
          "transferToken(address,address,uint256)": "f5537ede"
        }
      }
    }
  }
}